{
  "contractName": "KittyOwnership",
  "abi": [
    {
      "constant": true,
      "inputs": [],
      "name": "name",
      "outputs": [
        {
          "name": "",
          "type": "string"
        }
      ],
      "payable": false,
      "stateMutability": "view",
      "type": "function"
    },
    {
      "constant": true,
      "inputs": [
        {
          "name": "",
          "type": "uint256"
        }
      ],
      "name": "kittyIndexToApproved",
      "outputs": [
        {
          "name": "",
          "type": "address"
        }
      ],
      "payable": false,
      "stateMutability": "view",
      "type": "function"
    },
    {
      "constant": true,
      "inputs": [
        {
          "name": "",
          "type": "bytes32"
        }
      ],
      "name": "breedingAssistant",
      "outputs": [
        {
          "name": "requestor",
          "type": "address"
        },
        {
          "name": "dadId",
          "type": "uint256"
        },
        {
          "name": "momId",
          "type": "uint256"
        },
        {
          "name": "randomNumber",
          "type": "uint256"
        },
        {
          "name": "kidGen",
          "type": "uint256"
        },
        {
          "name": "geneKid",
          "type": "uint256"
        }
      ],
      "payable": false,
      "stateMutability": "view",
      "type": "function"
    },
    {
      "constant": true,
      "inputs": [],
      "name": "symbol",
      "outputs": [
        {
          "name": "",
          "type": "string"
        }
      ],
      "payable": false,
      "stateMutability": "view",
      "type": "function"
    },
    {
      "constant": true,
      "inputs": [
        {
          "name": "",
          "type": "uint256"
        }
      ],
      "name": "kittyIndexToOwner",
      "outputs": [
        {
          "name": "",
          "type": "address"
        }
      ],
      "payable": false,
      "stateMutability": "view",
      "type": "function"
    },
    {
      "anonymous": false,
      "inputs": [
        {
          "indexed": false,
          "name": "from",
          "type": "address"
        },
        {
          "indexed": false,
          "name": "to",
          "type": "address"
        },
        {
          "indexed": false,
          "name": "tokenId",
          "type": "uint256"
        }
      ],
      "name": "Transfer",
      "type": "event"
    },
    {
      "anonymous": false,
      "inputs": [
        {
          "indexed": false,
          "name": "owner",
          "type": "address"
        },
        {
          "indexed": false,
          "name": "approved",
          "type": "address"
        },
        {
          "indexed": false,
          "name": "tokenId",
          "type": "uint256"
        }
      ],
      "name": "Approval",
      "type": "event"
    },
    {
      "anonymous": false,
      "inputs": [
        {
          "indexed": false,
          "name": "owner",
          "type": "address"
        },
        {
          "indexed": false,
          "name": "kittyId",
          "type": "uint256"
        },
        {
          "indexed": false,
          "name": "momId",
          "type": "uint256"
        },
        {
          "indexed": false,
          "name": "dadId",
          "type": "uint256"
        },
        {
          "indexed": false,
          "name": "genes",
          "type": "uint256"
        }
      ],
      "name": "Birth",
      "type": "event"
    },
    {
      "constant": true,
      "inputs": [
        {
          "name": "_interfaceID",
          "type": "bytes4"
        }
      ],
      "name": "supportsInterface",
      "outputs": [
        {
          "name": "",
          "type": "bool"
        }
      ],
      "payable": false,
      "stateMutability": "pure",
      "type": "function"
    },
    {
      "constant": true,
      "inputs": [],
      "name": "totalSupply",
      "outputs": [
        {
          "name": "",
          "type": "uint256"
        }
      ],
      "payable": false,
      "stateMutability": "view",
      "type": "function"
    },
    {
      "constant": true,
      "inputs": [
        {
          "name": "_owner",
          "type": "address"
        }
      ],
      "name": "balanceOf",
      "outputs": [
        {
          "name": "count",
          "type": "uint256"
        }
      ],
      "payable": false,
      "stateMutability": "view",
      "type": "function"
    },
    {
      "constant": true,
      "inputs": [
        {
          "name": "_tokenId",
          "type": "uint256"
        }
      ],
      "name": "ownerOf",
      "outputs": [
        {
          "name": "owner",
          "type": "address"
        }
      ],
      "payable": false,
      "stateMutability": "view",
      "type": "function"
    },
    {
      "constant": false,
      "inputs": [
        {
          "name": "_to",
          "type": "address"
        },
        {
          "name": "_tokenId",
          "type": "uint256"
        }
      ],
      "name": "approve",
      "outputs": [],
      "payable": false,
      "stateMutability": "nonpayable",
      "type": "function"
    },
    {
      "constant": false,
      "inputs": [
        {
          "name": "_to",
          "type": "address"
        },
        {
          "name": "_tokenId",
          "type": "uint256"
        }
      ],
      "name": "transfer",
      "outputs": [],
      "payable": false,
      "stateMutability": "nonpayable",
      "type": "function"
    },
    {
      "constant": false,
      "inputs": [
        {
          "name": "_from",
          "type": "address"
        },
        {
          "name": "_to",
          "type": "address"
        },
        {
          "name": "_tokenId",
          "type": "uint256"
        }
      ],
      "name": "transferFrom",
      "outputs": [],
      "payable": false,
      "stateMutability": "nonpayable",
      "type": "function"
    },
    {
      "constant": true,
      "inputs": [
        {
          "name": "_owner",
          "type": "address"
        }
      ],
      "name": "tokensOfOwner",
      "outputs": [
        {
          "name": "ownerTokens",
          "type": "uint256[]"
        }
      ],
      "payable": false,
      "stateMutability": "view",
      "type": "function"
    }
  ],
  "bytecode": "0x608060405234801561001057600080fd5b506111f3806100206000396000f3fe6080604052600436106100c5576000357c0100000000000000000000000000000000000000000000000000000000900463ffffffff16806301ffc9a7146100ca57806306fdde031461013c578063095ea7b3146101cc57806318160ddd1461022757806323b872dd14610252578063481af3d3146102cd5780636352211e1461034857806370a08231146103c35780638462151c146104285780638852e048146104ce57806395d89b411461056c578063a45f4bfc146105fc578063a9059cbb14610677575b600080fd5b3480156100d657600080fd5b50610122600480360360208110156100ed57600080fd5b8101908080357bffffffffffffffffffffffffffffffffffffffffffffffffffffffff191690602001909291905050506106d2565b604051808215151515815260200191505060405180910390f35b34801561014857600080fd5b506101516109ac565b6040518080602001828103825283818151815260200191508051906020019080838360005b83811015610191578082015181840152602081019050610176565b50505050905090810190601f1680156101be5780820380516001836020036101000a031916815260200191505b509250505060405180910390f35b3480156101d857600080fd5b50610225600480360360408110156101ef57600080fd5b81019080803573ffffffffffffffffffffffffffffffffffffffff169060200190929190803590602001909291905050506109e5565b005b34801561023357600080fd5b5061023c610aa7565b6040518082815260200191505060405180910390f35b34801561025e57600080fd5b506102cb6004803603606081101561027557600080fd5b81019080803573ffffffffffffffffffffffffffffffffffffffff169060200190929190803573ffffffffffffffffffffffffffffffffffffffff16906020019092919080359060200190929190505050610ab6565b005b3480156102d957600080fd5b50610306600480360360208110156102f057600080fd5b8101908080359060200190929190505050610b2c565b604051808273ffffffffffffffffffffffffffffffffffffffff1673ffffffffffffffffffffffffffffffffffffffff16815260200191505060405180910390f35b34801561035457600080fd5b506103816004803603602081101561036b57600080fd5b8101908080359060200190929190505050610b5f565b604051808273ffffffffffffffffffffffffffffffffffffffff1673ffffffffffffffffffffffffffffffffffffffff16815260200191505060405180910390f35b3480156103cf57600080fd5b50610412600480360360208110156103e657600080fd5b81019080803573ffffffffffffffffffffffffffffffffffffffff169060200190929190505050610bd8565b6040518082815260200191505060405180910390f35b34801561043457600080fd5b506104776004803603602081101561044b57600080fd5b81019080803573ffffffffffffffffffffffffffffffffffffffff169060200190929190505050610c21565b6040518080602001828103825283818151815260200191508051906020019060200280838360005b838110156104ba57808201518184015260208101905061049f565b505050509050019250505060405180910390f35b3480156104da57600080fd5b50610507600480360360208110156104f157600080fd5b8101908080359060200190929190505050610d6f565b604051808773ffffffffffffffffffffffffffffffffffffffff1673ffffffffffffffffffffffffffffffffffffffff168152602001868152602001858152602001848152602001838152602001828152602001965050505050505060405180910390f35b34801561057857600080fd5b50610581610dcb565b6040518080602001828103825283818151815260200191508051906020019080838360005b838110156105c15780820151818401526020810190506105a6565b50505050905090810190601f1680156105ee5780820380516001836020036101000a031916815260200191505b509250505060405180910390f35b34801561060857600080fd5b506106356004803603602081101561061f57600080fd5b8101908080359060200190929190505050610e04565b604051808273ffffffffffffffffffffffffffffffffffffffff1673ffffffffffffffffffffffffffffffffffffffff16815260200191505060405180910390f35b34801561068357600080fd5b506106d06004803603604081101561069a57600080fd5b81019080803573ffffffffffffffffffffffffffffffffffffffff16906020019092919080359060200190929190505050610e37565b005b600060405180807f737570706f727473496e74657266616365286279746573342900000000000000815250601901905060405180910390207bffffffffffffffffffffffffffffffffffffffffffffffffffffffff1916827bffffffffffffffffffffffffffffffffffffffffffffffffffffffff191614806109a5575060405180807f746f6b656e734f664f776e6572286164647265737329000000000000000000008152506016019050604051809103902060405180807f7472616e7366657246726f6d28616464726573732c616464726573732c75696e81526020017f74323536290000000000000000000000000000000000000000000000000000008152506025019050604051809103902060405180807f7472616e7366657228616464726573732c75696e7432353629000000000000008152506019019050604051809103902060405180807f617070726f766528616464726573732c75696e743235362900000000000000008152506018019050604051809103902060405180807f6f776e65724f662875696e7432353629000000000000000000000000000000008152506010019050604051809103902060405180807f62616c616e63654f6628616464726573732900000000000000000000000000008152506012019050604051809103902060405180807f746f74616c537570706c79282900000000000000000000000000000000000000815250600d019050604051809103902060405180807f73796d626f6c28290000000000000000000000000000000000000000000000008152506008019050604051809103902060405180807f6e616d65282900000000000000000000000000000000000000000000000000008152506006019050604051809103902018181818181818187bffffffffffffffffffffffffffffffffffffffffffffffffffffffff1916827bffffffffffffffffffffffffffffffffffffffffffffffffffffffff1916145b9050919050565b6040805190810160405280600b81526020017f4976616e4b69747469657300000000000000000000000000000000000000000081525081565b6109ef8282610e97565b15156109fa57600080fd5b610a048133610f03565b7f8c5be1e5ebec7d5bd14f71427d1e84f3dd0314c0f7b2291e5b200ac8c7c3b925338383604051808473ffffffffffffffffffffffffffffffffffffffff1673ffffffffffffffffffffffffffffffffffffffff1681526020018373ffffffffffffffffffffffffffffffffffffffff1673ffffffffffffffffffffffffffffffffffffffff168152602001828152602001935050505060405180910390a15050565b60006001808054905003905090565b600073ffffffffffffffffffffffffffffffffffffffff168273ffffffffffffffffffffffffffffffffffffffff1614151515610af257600080fd5b610afc3382610f59565b1515610b0757600080fd5b610b118382610e97565b1515610b1c57600080fd5b610b27838383610fc5565b505050565b60046020528060005260406000206000915054906101000a900473ffffffffffffffffffffffffffffffffffffffff1681565b60006002600083815260200190815260200160002060009054906101000a900473ffffffffffffffffffffffffffffffffffffffff169050600073ffffffffffffffffffffffffffffffffffffffff168173ffffffffffffffffffffffffffffffffffffffff1614151515610bd357600080fd5b919050565b6000600360008373ffffffffffffffffffffffffffffffffffffffff1673ffffffffffffffffffffffffffffffffffffffff168152602001908152602001600020549050919050565b60606000610c2e83610bd8565b90506000811415610c72576000604051908082528060200260200182016040528015610c695781602001602082028038833980820191505090505b50915050610d6a565b606081604051908082528060200260200182016040528015610ca35781602001602082028038833980820191505090505b5090506000610cb0610aa7565b905060008090506000600190505b8281111515610d61578673ffffffffffffffffffffffffffffffffffffffff166002600083815260200190815260200160002060009054906101000a900473ffffffffffffffffffffffffffffffffffffffff1673ffffffffffffffffffffffffffffffffffffffff161415610d5457808483815181101515610d3d57fe5b906020019060200201818152505081806001019250505b8080600101915050610cbe565b83955050505050505b919050565b60006020528060005260406000206000915090508060000160009054906101000a900473ffffffffffffffffffffffffffffffffffffffff16908060010154908060020154908060030154908060040154908060050154905086565b6040805190810160405280600281526020017f434b00000000000000000000000000000000000000000000000000000000000081525081565b60026020528060005260406000206000915054906101000a900473ffffffffffffffffffffffffffffffffffffffff1681565b600073ffffffffffffffffffffffffffffffffffffffff168273ffffffffffffffffffffffffffffffffffffffff1614151515610e7357600080fd5b610e7d3382610e97565b1515610e8857600080fd5b610e93338383610fc5565b5050565b60008273ffffffffffffffffffffffffffffffffffffffff166002600084815260200190815260200160002060009054906101000a900473ffffffffffffffffffffffffffffffffffffffff1673ffffffffffffffffffffffffffffffffffffffff1614905092915050565b806004600084815260200190815260200160002060006101000a81548173ffffffffffffffffffffffffffffffffffffffff021916908373ffffffffffffffffffffffffffffffffffffffff1602179055505050565b60008273ffffffffffffffffffffffffffffffffffffffff166004600084815260200190815260200160002060009054906101000a900473ffffffffffffffffffffffffffffffffffffffff1673ffffffffffffffffffffffffffffffffffffffff1614905092915050565b600360008373ffffffffffffffffffffffffffffffffffffffff1673ffffffffffffffffffffffffffffffffffffffff16815260200190815260200160002060008154809291906001019190505550816002600083815260200190815260200160002060006101000a81548173ffffffffffffffffffffffffffffffffffffffff021916908373ffffffffffffffffffffffffffffffffffffffff160217905550600073ffffffffffffffffffffffffffffffffffffffff168373ffffffffffffffffffffffffffffffffffffffff1614151561112357600360008473ffffffffffffffffffffffffffffffffffffffff1673ffffffffffffffffffffffffffffffffffffffff16815260200190815260200160002060008154809291906001900391905055506004600082815260200190815260200160002060006101000a81549073ffffffffffffffffffffffffffffffffffffffff02191690555b7fddf252ad1be2c89b69c2b068fc378daa952ba7f163c4a11628f55a4df523b3ef838383604051808473ffffffffffffffffffffffffffffffffffffffff1673ffffffffffffffffffffffffffffffffffffffff1681526020018373ffffffffffffffffffffffffffffffffffffffff1673ffffffffffffffffffffffffffffffffffffffff168152602001828152602001935050505060405180910390a150505056fea165627a7a72305820444336df54cde2632f2c26360a70d5a3287da7584cdcddd0cbb1e68a04bbcc7b0029",
  "source": "pragma solidity ^0.5.0;\n\nimport \"./KittyFactory.sol\";\n\ncontract KittyOwnership is KittyFactory{\n\n  string public constant name = \"IvanKitties\";\n  string public constant symbol = \"CK\";\n\n  event Transfer(address from, address to, uint256 tokenId);\n  event Approval(address owner, address approved, uint256 tokenId);\n\n  /*\n  *    We use the modulo of each function to set the interfaceId\n  */\n  bytes4 constant InterfaceSignature_ERC165 =\n      bytes4(keccak256('supportsInterface(bytes4)'));\n\n  bytes4 constant InterfaceSignature_ERC721 =\n      bytes4(keccak256('name()')) ^\n      bytes4(keccak256('symbol()')) ^\n      bytes4(keccak256('totalSupply()')) ^\n      bytes4(keccak256('balanceOf(address)')) ^\n      bytes4(keccak256('ownerOf(uint256)')) ^\n      bytes4(keccak256('approve(address,uint256)')) ^\n      bytes4(keccak256('transfer(address,uint256)')) ^\n      bytes4(keccak256('transferFrom(address,address,uint256)')) ^\n      bytes4(keccak256('tokensOfOwner(address)'));\n\n  function supportsInterface(bytes4 _interfaceID) external pure returns (bool)\n  {\n      return ((_interfaceID == InterfaceSignature_ERC165) || (_interfaceID == InterfaceSignature_ERC721));\n  }\n\n  function _owns(address _claimant, uint256 _tokenId) internal view returns (bool) {\n      return kittyIndexToOwner[_tokenId] == _claimant;\n  }\n\n  function _approvedFor(address _claimant, uint256 _tokenId) internal view returns (bool) {\n      return kittyIndexToApproved[_tokenId] == _claimant;\n  }\n\n  function _approve(uint256 _tokenId, address _approved) internal {\n      kittyIndexToApproved[_tokenId] = _approved;\n  }\n\n\n  /*\n  *   Function required by the erc 721 interface\n  */\n\n  function totalSupply() public view returns (uint) {\n      return kitties.length - 1;\n  }\n\n  function balanceOf(address _owner) public view returns (uint256 count) {\n      return ownershipTokenCount[_owner];\n  }\n\n  function ownerOf(uint256 _tokenId)\n      external\n      view\n      returns (address owner)\n  {\n      owner = kittyIndexToOwner[_tokenId];\n\n      require(owner != address(0));\n  }\n\n  function approve(\n      address _to,\n      uint256 _tokenId\n  )\n      public\n  {\n      require(_owns(_to, _tokenId));\n\n      _approve(_tokenId, msg.sender);\n      emit Approval(msg.sender, _to, _tokenId);\n  }\n\n  function transfer(\n      address _to,\n      uint256 _tokenId\n  )\n      public\n  {\n      require(_to != address(0));\n      require(_owns(msg.sender, _tokenId));\n\n      _transfer(msg.sender, _to, _tokenId);\n  }\n\n  function transferFrom(\n      address _from,\n      address _to,\n      uint256 _tokenId\n  )\n      public\n  {\n      require(_to != address(0));\n      require(_approvedFor(msg.sender, _tokenId));\n      require(_owns(_from, _tokenId));\n\n      _transfer(_from, _to, _tokenId);\n  }\n\n  function tokensOfOwner(address _owner) public view returns(uint256[] memory ownerTokens) {\n    uint256 tokenCount = balanceOf(_owner);\n\n    if (tokenCount == 0) {\n        return new uint256[](0);\n    } else {\n        uint256[] memory result = new uint256[](tokenCount);\n        uint256 totalCats = totalSupply();\n        uint256 resultIndex = 0;\n\n        uint256 catId;\n\n        for (catId = 1; catId <= totalCats; catId++) {\n            if (kittyIndexToOwner[catId] == _owner) {\n                result[resultIndex] = catId;\n                resultIndex++;\n            }\n        }\n\n        return result;\n    }\n  }\n}\n",
  "sourcePath": "/Users/dan/Documents/Coding/Solidity/academy/academy-cryptokitties/contracts/KittyOwnership.sol",
  "compiler": {
    "name": "solc",
    "version": "0.5.0+commit.1d4f565a.Emscripten.clang"
  },
  "schemaVersion": "3.0.23",
  "updatedAt": "2020-06-27T11:27:01.968Z",
  "devdoc": {
    "methods": {}
  },
  "userdoc": {
    "methods": {}
  }
}