{
  "contractName": "KittyFactory",
  "abi": [
    {
      "anonymous": false,
      "inputs": [
        {
          "indexed": false,
          "internalType": "address",
          "name": "owner",
          "type": "address"
        },
        {
          "indexed": false,
          "internalType": "uint256",
          "name": "kittyId",
          "type": "uint256"
        },
        {
          "indexed": false,
          "internalType": "uint256",
          "name": "mumId",
          "type": "uint256"
        },
        {
          "indexed": false,
          "internalType": "uint256",
          "name": "dadId",
          "type": "uint256"
        },
        {
          "indexed": false,
          "internalType": "uint256",
          "name": "genes",
          "type": "uint256"
        }
      ],
      "name": "Birth",
      "type": "event"
    },
    {
      "anonymous": false,
      "inputs": [
        {
          "indexed": false,
          "internalType": "address",
          "name": "from",
          "type": "address"
        },
        {
          "indexed": false,
          "internalType": "address",
          "name": "to",
          "type": "address"
        },
        {
          "indexed": false,
          "internalType": "uint256",
          "name": "tokenId",
          "type": "uint256"
        }
      ],
      "name": "Transfer",
      "type": "event"
    },
    {
      "constant": true,
      "inputs": [
        {
          "internalType": "uint256",
          "name": "",
          "type": "uint256"
        }
      ],
      "name": "kittyIndexToApproved",
      "outputs": [
        {
          "internalType": "address",
          "name": "",
          "type": "address"
        }
      ],
      "payable": false,
      "stateMutability": "view",
      "type": "function"
    },
    {
      "constant": true,
      "inputs": [
        {
          "internalType": "uint256",
          "name": "",
          "type": "uint256"
        }
      ],
      "name": "kittyIndexToOwner",
      "outputs": [
        {
          "internalType": "address",
          "name": "",
          "type": "address"
        }
      ],
      "payable": false,
      "stateMutability": "view",
      "type": "function"
    }
  ],
  "bytecode": "0x608060405234801561001057600080fd5b506101b2806100206000396000f3fe608060405234801561001057600080fd5b50600436106100365760003560e01c8063481af3d31461003b578063a45f4bfc146100a9575b600080fd5b6100676004803603602081101561005157600080fd5b8101908080359060200190929190505050610117565b604051808273ffffffffffffffffffffffffffffffffffffffff1673ffffffffffffffffffffffffffffffffffffffff16815260200191505060405180910390f35b6100d5600480360360208110156100bf57600080fd5b810190808035906020019092919050505061014a565b604051808273ffffffffffffffffffffffffffffffffffffffff1673ffffffffffffffffffffffffffffffffffffffff16815260200191505060405180910390f35b60036020528060005260406000206000915054906101000a900473ffffffffffffffffffffffffffffffffffffffff1681565b60016020528060005260406000206000915054906101000a900473ffffffffffffffffffffffffffffffffffffffff168156fea265627a7a723158200de2289b40065aef9f1d927e53f552d8192eb72b97c731bb32c738124d06aab764736f6c634300050c0032",
  "source": "pragma solidity ^0.5.0;\r\n\r\ncontract KittyFactory {\r\n\r\n  /*\r\n  *   A new cat is born\r\n  */\r\n  event Birth(address owner, uint256 kittyId, uint256 mumId, uint256 dadId, uint256 genes);\r\n\r\n  /*\r\n  *   A cat has been transfer\r\n  */\r\n  event Transfer(address from, address to, uint256 tokenId);\r\n\r\n  /*\r\n  *   Here we will use the same structure as the original crypto kitties game\r\n  *   As it fit exactly into two bit words\r\n  */\r\n  struct Kitty {\r\n\r\n      uint256 genes;\r\n      uint64 birthTime;\r\n      uint32 mumId;\r\n      uint32 dadId;\r\n      uint16 generation;\r\n  }\r\n\r\n  Kitty[] kitties;\r\n\r\n  mapping (uint256 => address) public kittyIndexToOwner;\r\n  mapping (address => uint256) ownershipTokenCount;\r\n\r\n  // Add a list of approved kitties, that are allowed to be transfered\r\n  mapping (uint256 => address) public kittyIndexToApproved;\r\n\r\n  function _createKitty(\r\n      uint256 _mumId,\r\n      uint256 _dadId,\r\n      uint256 _generation,\r\n      uint256 _genes,\r\n      address _owner\r\n  )\r\n      internal\r\n      returns (uint)\r\n  {\r\n\r\n    Kitty memory _kitty = Kitty({\r\n        genes: _genes,\r\n        birthTime: uint64(now),\r\n        mumId: uint32(_mumId),\r\n        dadId: uint32(_dadId),\r\n        generation: uint16(_generation)\r\n    });\r\n\r\n    uint256 newKittenId = kitties.push(_kitty) - 1;\r\n\r\n    // It's probably never going to happen, 4 billion cats is A LOT, but\r\n    // let's just be 100% sure we never let this happen.\r\n    require(newKittenId == uint256(uint32(newKittenId)));\r\n\r\n    // emit the birth event\r\n    emit Birth(\r\n        _owner,\r\n        newKittenId,\r\n        uint256(_kitty.mumId),\r\n        uint256(_kitty.dadId),\r\n        _kitty.genes\r\n    );\r\n\r\n    // This will assign ownership, and also emit the Transfer event as\r\n    // per ERC721 draft\r\n    _transfer(address(0), _owner, newKittenId);\r\n    return newKittenId;\r\n  }\r\n\r\n  function _transfer(address _from, address _to, uint256 _tokenId) internal {\r\n\r\n    // Since the number of kittens is capped to 2^32 we can't overflow this\r\n    ownershipTokenCount[_to]++;\r\n    // transfer ownership\r\n    kittyIndexToOwner[_tokenId] = _to;\r\n\r\n    if (_from != address(0)) {\r\n        ownershipTokenCount[_from]--;\r\n\r\n        delete kittyIndexToApproved[_tokenId];\r\n    }\r\n\r\n    // Emit the transfer event.\r\n    emit Transfer(_from, _to, _tokenId);\r\n  }\r\n}\r\n",
  "sourcePath": "D:\\Documents\\GitHub\\academy-cryptokitties\\contracts\\KittyFactory.sol",
  "compiler": {
    "name": "solc",
    "version": "0.5.12+commit.7709ece9.Emscripten.clang"
  },
  "schemaVersion": "3.4.10",
  "updatedAt": "2022-09-24T21:21:47.874Z",
  "devdoc": {
    "methods": {}
  },
  "userdoc": {
    "methods": {}
  }
}