{
  "contractName": "KittyFactory",
  "abi": [
    {
      "constant": true,
      "inputs": [
        {
          "name": "",
          "type": "uint256"
        }
      ],
      "name": "kittyIndexToApproved",
      "outputs": [
        {
          "name": "",
          "type": "address"
        }
      ],
      "payable": false,
      "stateMutability": "view",
      "type": "function"
    },
    {
      "constant": true,
      "inputs": [
        {
          "name": "",
          "type": "bytes32"
        }
      ],
      "name": "breedingAssistant",
      "outputs": [
        {
          "name": "requestor",
          "type": "address"
        },
        {
          "name": "dadId",
          "type": "uint256"
        },
        {
          "name": "momId",
          "type": "uint256"
        },
        {
          "name": "randomNumber",
          "type": "uint256"
        },
        {
          "name": "kidGen",
          "type": "uint256"
        },
        {
          "name": "geneKid",
          "type": "uint256"
        }
      ],
      "payable": false,
      "stateMutability": "view",
      "type": "function"
    },
    {
      "constant": true,
      "inputs": [
        {
          "name": "",
          "type": "uint256"
        }
      ],
      "name": "kittyIndexToOwner",
      "outputs": [
        {
          "name": "",
          "type": "address"
        }
      ],
      "payable": false,
      "stateMutability": "view",
      "type": "function"
    },
    {
      "anonymous": false,
      "inputs": [
        {
          "indexed": false,
          "name": "owner",
          "type": "address"
        },
        {
          "indexed": false,
          "name": "kittyId",
          "type": "uint256"
        },
        {
          "indexed": false,
          "name": "momId",
          "type": "uint256"
        },
        {
          "indexed": false,
          "name": "dadId",
          "type": "uint256"
        },
        {
          "indexed": false,
          "name": "genes",
          "type": "uint256"
        }
      ],
      "name": "Birth",
      "type": "event"
    },
    {
      "anonymous": false,
      "inputs": [
        {
          "indexed": false,
          "name": "from",
          "type": "address"
        },
        {
          "indexed": false,
          "name": "to",
          "type": "address"
        },
        {
          "indexed": false,
          "name": "tokenId",
          "type": "uint256"
        }
      ],
      "name": "Transfer",
      "type": "event"
    }
  ],
  "bytecode": "0x608060405234801561001057600080fd5b506102de806100206000396000f3fe608060405260043610610057576000357c0100000000000000000000000000000000000000000000000000000000900463ffffffff168063481af3d31461005c5780638852e048146100d7578063a45f4bfc14610175575b600080fd5b34801561006857600080fd5b506100956004803603602081101561007f57600080fd5b81019080803590602001909291905050506101f0565b604051808273ffffffffffffffffffffffffffffffffffffffff1673ffffffffffffffffffffffffffffffffffffffff16815260200191505060405180910390f35b3480156100e357600080fd5b50610110600480360360208110156100fa57600080fd5b8101908080359060200190929190505050610223565b604051808773ffffffffffffffffffffffffffffffffffffffff1673ffffffffffffffffffffffffffffffffffffffff168152602001868152602001858152602001848152602001838152602001828152602001965050505050505060405180910390f35b34801561018157600080fd5b506101ae6004803603602081101561019857600080fd5b810190808035906020019092919050505061027f565b604051808273ffffffffffffffffffffffffffffffffffffffff1673ffffffffffffffffffffffffffffffffffffffff16815260200191505060405180910390f35b60046020528060005260406000206000915054906101000a900473ffffffffffffffffffffffffffffffffffffffff1681565b60006020528060005260406000206000915090508060000160009054906101000a900473ffffffffffffffffffffffffffffffffffffffff16908060010154908060020154908060030154908060040154908060050154905086565b60026020528060005260406000206000915054906101000a900473ffffffffffffffffffffffffffffffffffffffff168156fea165627a7a72305820a47cc5eaec873e9a20e44e7ec10cc04ce07337d7aa6accff578eb8b7c1dc51b70029",
  "source": "pragma solidity ^0.5.0;\n\ncontract KittyFactory {\n\n  /*\n  *   A new cat is born\n  */\n  event Birth(address owner, uint256 kittyId, uint256 momId, uint256 dadId, uint256 genes);\n\n  /*\n  *   A cat has been transfer\n  */\n  event Transfer(address from, address to, uint256 tokenId);\n\n  /*\n  *   Here we will use the same structure as the original crypto kitties game\n  *   As it fit exactly into two bit words\n  */\n\n  struct BreedingAssistant {\n    address requestor;\n    uint256 dadId;\n    uint256 momId;\n    uint256 randomNumber;\n    uint256 kidGen;\n    uint256 geneKid;\n  }\n\n  mapping (bytes32 => BreedingAssistant) public breedingAssistant;\n\n\n  struct Kitty {\n\n      uint256 genes;\n      uint64 birthTime;\n      uint32 momId;\n      uint32 dadId;\n      uint16 generation;\n  }\n\n  Kitty[] kitties;\n\n  mapping (uint256 => address) public kittyIndexToOwner;\n  mapping (address => uint256) ownershipTokenCount;\n\n  // Add a list of approved kitties, that are allowed to be transfered\n  mapping (uint256 => address) public kittyIndexToApproved;\n\n\n  function _createKitty(\n      bytes32 _requestId\n  )\n      internal\n      returns (uint)\n  {\n\n    Kitty memory _kitty = Kitty({\n        genes: breedingAssistant[_requestId].geneKid,\n        birthTime: uint64(now),\n        momId: uint32(breedingAssistant[_requestId].momId),\n        dadId: uint32(breedingAssistant[_requestId].dadId),\n        generation: uint16(breedingAssistant[_requestId].kidGen)\n    });\n\n    uint256 newKittenId = kitties.push(_kitty) - 1;\n\n    // It's probably never going to happen, 4 billion cats is A LOT, but\n    // let's just be 100% sure we never let this happen.\n    require(newKittenId == uint256(uint32(newKittenId)), \"Kitty Ids mismatch\");\n\n    // emit the birth event\n    emit Birth(\n        breedingAssistant[_requestId].requestor,\n        newKittenId,\n        uint256(breedingAssistant[_requestId].momId),\n        uint256(breedingAssistant[_requestId].dadId),\n        _kitty.genes\n    );\n\n    // This will assign ownership, and also emit the Transfer event as\n    // per ERC721 draft\n    _transfer(address(0), breedingAssistant[_requestId].requestor, newKittenId);\n\n    // Deleting breedingAssistant for given _requestId\n    delete (breedingAssistant[_requestId]);\n\n    return newKittenId;\n  }\n\n  function _transfer(address _from, address _to, uint256 _tokenId) internal {\n\n    // Since the number of kittens is capped to 2^32 we can't overflow this\n    ownershipTokenCount[_to]++;\n    // transfer ownership\n    kittyIndexToOwner[_tokenId] = _to;\n\n    if (_from != address(0)) {\n        ownershipTokenCount[_from]--;\n\n        delete kittyIndexToApproved[_tokenId];\n    }\n\n    // Emit the transfer event.\n    emit Transfer(_from, _to, _tokenId);\n  }\n}\n",
  "sourcePath": "/Users/dan/Documents/Coding/Solidity/academy/academy-cryptokitties/contracts/KittyFactory.sol",
  "compiler": {
    "name": "solc",
    "version": "0.5.0+commit.1d4f565a.Emscripten.clang"
  },
  "schemaVersion": "3.0.23",
  "updatedAt": "2020-06-27T11:27:01.927Z",
  "devdoc": {
    "methods": {}
  },
  "userdoc": {
    "methods": {}
  }
}