{
  "contractName": "KittyCore",
  "abi": [
    {
      "inputs": [
        {
          "internalType": "address",
          "name": "_vrfCoordinator",
          "type": "address"
        },
        {
          "internalType": "address",
          "name": "_link",
          "type": "address"
        }
      ],
      "payable": false,
      "stateMutability": "nonpayable",
      "type": "constructor"
    },
    {
      "anonymous": false,
      "inputs": [
        {
          "indexed": false,
          "internalType": "address",
          "name": "owner",
          "type": "address"
        },
        {
          "indexed": false,
          "internalType": "address",
          "name": "approved",
          "type": "address"
        },
        {
          "indexed": false,
          "internalType": "uint256",
          "name": "tokenId",
          "type": "uint256"
        }
      ],
      "name": "Approval",
      "type": "event"
    },
    {
      "anonymous": false,
      "inputs": [
        {
          "indexed": true,
          "internalType": "address",
          "name": "owner",
          "type": "address"
        },
        {
          "indexed": true,
          "internalType": "address",
          "name": "operator",
          "type": "address"
        },
        {
          "indexed": false,
          "internalType": "bool",
          "name": "approved",
          "type": "bool"
        }
      ],
      "name": "ApprovalForAll",
      "type": "event"
    },
    {
      "anonymous": false,
      "inputs": [
        {
          "indexed": false,
          "internalType": "address",
          "name": "owner",
          "type": "address"
        },
        {
          "indexed": false,
          "internalType": "uint256",
          "name": "kittyId",
          "type": "uint256"
        },
        {
          "indexed": false,
          "internalType": "uint256",
          "name": "mumId",
          "type": "uint256"
        },
        {
          "indexed": false,
          "internalType": "uint256",
          "name": "dadId",
          "type": "uint256"
        },
        {
          "indexed": false,
          "internalType": "uint256",
          "name": "genes",
          "type": "uint256"
        }
      ],
      "name": "Birth",
      "type": "event"
    },
    {
      "anonymous": false,
      "inputs": [
        {
          "indexed": false,
          "internalType": "string",
          "name": "TxType",
          "type": "string"
        },
        {
          "indexed": false,
          "internalType": "address",
          "name": "owner",
          "type": "address"
        },
        {
          "indexed": false,
          "internalType": "uint256",
          "name": "tokenId",
          "type": "uint256"
        }
      ],
      "name": "MarketTransaction",
      "type": "event"
    },
    {
      "anonymous": false,
      "inputs": [
        {
          "indexed": true,
          "internalType": "bytes32",
          "name": "requestId",
          "type": "bytes32"
        },
        {
          "indexed": false,
          "internalType": "bytes32",
          "name": "keyHash",
          "type": "bytes32"
        },
        {
          "indexed": false,
          "internalType": "uint256",
          "name": "seed",
          "type": "uint256"
        }
      ],
      "name": "RequestRandomness",
      "type": "event"
    },
    {
      "anonymous": false,
      "inputs": [
        {
          "indexed": true,
          "internalType": "bytes32",
          "name": "requestId",
          "type": "bytes32"
        },
        {
          "indexed": false,
          "internalType": "uint256",
          "name": "randomness",
          "type": "uint256"
        }
      ],
      "name": "RequestRandomnessFulfilled",
      "type": "event"
    },
    {
      "anonymous": false,
      "inputs": [
        {
          "indexed": false,
          "internalType": "address",
          "name": "from",
          "type": "address"
        },
        {
          "indexed": false,
          "internalType": "address",
          "name": "to",
          "type": "address"
        },
        {
          "indexed": false,
          "internalType": "uint256",
          "name": "tokenId",
          "type": "uint256"
        }
      ],
      "name": "Transfer",
      "type": "event"
    },
    {
      "constant": true,
      "inputs": [],
      "name": "CREATION_LIMIT_GEN0",
      "outputs": [
        {
          "internalType": "uint256",
          "name": "",
          "type": "uint256"
        }
      ],
      "payable": false,
      "stateMutability": "view",
      "type": "function"
    },
    {
      "constant": false,
      "inputs": [
        {
          "internalType": "address",
          "name": "to",
          "type": "address"
        },
        {
          "internalType": "uint256",
          "name": "tokenId",
          "type": "uint256"
        }
      ],
      "name": "approve",
      "outputs": [],
      "payable": false,
      "stateMutability": "nonpayable",
      "type": "function"
    },
    {
      "constant": true,
      "inputs": [
        {
          "internalType": "address",
          "name": "owner",
          "type": "address"
        }
      ],
      "name": "balanceOf",
      "outputs": [
        {
          "internalType": "uint256",
          "name": "",
          "type": "uint256"
        }
      ],
      "payable": false,
      "stateMutability": "view",
      "type": "function"
    },
    {
      "constant": false,
      "inputs": [
        {
          "internalType": "uint256",
          "name": "_tokenId",
          "type": "uint256"
        }
      ],
      "name": "buyKitty",
      "outputs": [],
      "payable": true,
      "stateMutability": "payable",
      "type": "function"
    },
    {
      "constant": true,
      "inputs": [],
      "name": "gen0Counter",
      "outputs": [
        {
          "internalType": "uint256",
          "name": "",
          "type": "uint256"
        }
      ],
      "payable": false,
      "stateMutability": "view",
      "type": "function"
    },
    {
      "constant": true,
      "inputs": [],
      "name": "getAllTokenOnSale",
      "outputs": [
        {
          "internalType": "uint256[]",
          "name": "listOfToken",
          "type": "uint256[]"
        }
      ],
      "payable": false,
      "stateMutability": "view",
      "type": "function"
    },
    {
      "constant": true,
      "inputs": [
        {
          "internalType": "uint256",
          "name": "tokenId",
          "type": "uint256"
        }
      ],
      "name": "getApproved",
      "outputs": [
        {
          "internalType": "address",
          "name": "",
          "type": "address"
        }
      ],
      "payable": false,
      "stateMutability": "view",
      "type": "function"
    },
    {
      "constant": true,
      "inputs": [
        {
          "internalType": "uint256",
          "name": "_tokenId",
          "type": "uint256"
        }
      ],
      "name": "getOffer",
      "outputs": [
        {
          "internalType": "address",
          "name": "seller",
          "type": "address"
        },
        {
          "internalType": "uint256",
          "name": "price",
          "type": "uint256"
        },
        {
          "internalType": "uint256",
          "name": "tokenId",
          "type": "uint256"
        }
      ],
      "payable": false,
      "stateMutability": "view",
      "type": "function"
    },
    {
      "constant": true,
      "inputs": [
        {
          "internalType": "address",
          "name": "owner",
          "type": "address"
        },
        {
          "internalType": "address",
          "name": "operator",
          "type": "address"
        }
      ],
      "name": "isApprovedForAll",
      "outputs": [
        {
          "internalType": "bool",
          "name": "",
          "type": "bool"
        }
      ],
      "payable": false,
      "stateMutability": "view",
      "type": "function"
    },
    {
      "constant": true,
      "inputs": [
        {
          "internalType": "uint256",
          "name": "",
          "type": "uint256"
        }
      ],
      "name": "kittyIndexToApproved",
      "outputs": [
        {
          "internalType": "address",
          "name": "",
          "type": "address"
        }
      ],
      "payable": false,
      "stateMutability": "view",
      "type": "function"
    },
    {
      "constant": true,
      "inputs": [
        {
          "internalType": "uint256",
          "name": "",
          "type": "uint256"
        }
      ],
      "name": "kittyIndexToOwner",
      "outputs": [
        {
          "internalType": "address",
          "name": "",
          "type": "address"
        }
      ],
      "payable": false,
      "stateMutability": "view",
      "type": "function"
    },
    {
      "constant": true,
      "inputs": [],
      "name": "name",
      "outputs": [
        {
          "internalType": "string",
          "name": "",
          "type": "string"
        }
      ],
      "payable": false,
      "stateMutability": "view",
      "type": "function"
    },
    {
      "constant": true,
      "inputs": [
        {
          "internalType": "bytes32",
          "name": "",
          "type": "bytes32"
        }
      ],
      "name": "nonces",
      "outputs": [
        {
          "internalType": "uint256",
          "name": "",
          "type": "uint256"
        }
      ],
      "payable": false,
      "stateMutability": "view",
      "type": "function"
    },
    {
      "constant": true,
      "inputs": [],
      "name": "owner",
      "outputs": [
        {
          "internalType": "address",
          "name": "",
          "type": "address"
        }
      ],
      "payable": false,
      "stateMutability": "view",
      "type": "function"
    },
    {
      "constant": true,
      "inputs": [
        {
          "internalType": "uint256",
          "name": "tokenId",
          "type": "uint256"
        }
      ],
      "name": "ownerOf",
      "outputs": [
        {
          "internalType": "address",
          "name": "",
          "type": "address"
        }
      ],
      "payable": false,
      "stateMutability": "view",
      "type": "function"
    },
    {
      "constant": false,
      "inputs": [
        {
          "internalType": "uint256",
          "name": "_tokenId",
          "type": "uint256"
        }
      ],
      "name": "removeOffer",
      "outputs": [],
      "payable": false,
      "stateMutability": "nonpayable",
      "type": "function"
    },
    {
      "constant": false,
      "inputs": [
        {
          "internalType": "bytes32",
          "name": "_keyHash",
          "type": "bytes32"
        },
        {
          "internalType": "uint256",
          "name": "_fee",
          "type": "uint256"
        },
        {
          "internalType": "uint256",
          "name": "_seed",
          "type": "uint256"
        }
      ],
      "name": "requestRandomness",
      "outputs": [
        {
          "internalType": "bytes32",
          "name": "requestId",
          "type": "bytes32"
        }
      ],
      "payable": false,
      "stateMutability": "nonpayable",
      "type": "function"
    },
    {
      "constant": false,
      "inputs": [
        {
          "internalType": "address",
          "name": "from",
          "type": "address"
        },
        {
          "internalType": "address",
          "name": "to",
          "type": "address"
        },
        {
          "internalType": "uint256",
          "name": "tokenId",
          "type": "uint256"
        }
      ],
      "name": "safeTransferFrom",
      "outputs": [],
      "payable": false,
      "stateMutability": "nonpayable",
      "type": "function"
    },
    {
      "constant": false,
      "inputs": [
        {
          "internalType": "address",
          "name": "from",
          "type": "address"
        },
        {
          "internalType": "address",
          "name": "to",
          "type": "address"
        },
        {
          "internalType": "uint256",
          "name": "tokenId",
          "type": "uint256"
        },
        {
          "internalType": "bytes",
          "name": "_data",
          "type": "bytes"
        }
      ],
      "name": "safeTransferFrom",
      "outputs": [],
      "payable": false,
      "stateMutability": "nonpayable",
      "type": "function"
    },
    {
      "constant": false,
      "inputs": [
        {
          "internalType": "address",
          "name": "to",
          "type": "address"
        },
        {
          "internalType": "bool",
          "name": "approved",
          "type": "bool"
        }
      ],
      "name": "setApprovalForAll",
      "outputs": [],
      "payable": false,
      "stateMutability": "nonpayable",
      "type": "function"
    },
    {
      "constant": false,
      "inputs": [
        {
          "internalType": "uint256",
          "name": "_price",
          "type": "uint256"
        },
        {
          "internalType": "uint256",
          "name": "_tokenId",
          "type": "uint256"
        }
      ],
      "name": "setOffer",
      "outputs": [],
      "payable": false,
      "stateMutability": "nonpayable",
      "type": "function"
    },
    {
      "constant": true,
      "inputs": [
        {
          "internalType": "bytes4",
          "name": "interfaceId",
          "type": "bytes4"
        }
      ],
      "name": "supportsInterface",
      "outputs": [
        {
          "internalType": "bool",
          "name": "",
          "type": "bool"
        }
      ],
      "payable": false,
      "stateMutability": "view",
      "type": "function"
    },
    {
      "constant": true,
      "inputs": [],
      "name": "symbol",
      "outputs": [
        {
          "internalType": "string",
          "name": "",
          "type": "string"
        }
      ],
      "payable": false,
      "stateMutability": "view",
      "type": "function"
    },
    {
      "constant": true,
      "inputs": [
        {
          "internalType": "address",
          "name": "_owner",
          "type": "address"
        }
      ],
      "name": "tokensOfOwner",
      "outputs": [
        {
          "internalType": "uint256[]",
          "name": "ownerTokens",
          "type": "uint256[]"
        }
      ],
      "payable": false,
      "stateMutability": "view",
      "type": "function"
    },
    {
      "constant": true,
      "inputs": [],
      "name": "totalSupply",
      "outputs": [
        {
          "internalType": "uint256",
          "name": "",
          "type": "uint256"
        }
      ],
      "payable": false,
      "stateMutability": "view",
      "type": "function"
    },
    {
      "constant": false,
      "inputs": [
        {
          "internalType": "address",
          "name": "from",
          "type": "address"
        },
        {
          "internalType": "address",
          "name": "to",
          "type": "address"
        },
        {
          "internalType": "uint256",
          "name": "tokenId",
          "type": "uint256"
        }
      ],
      "name": "transferFrom",
      "outputs": [],
      "payable": false,
      "stateMutability": "nonpayable",
      "type": "function"
    },
    {
      "constant": false,
      "inputs": [
        {
          "internalType": "address",
          "name": "newOwner",
          "type": "address"
        }
      ],
      "name": "transferOwnership",
      "outputs": [],
      "payable": false,
      "stateMutability": "nonpayable",
      "type": "function"
    },
    {
      "constant": false,
      "inputs": [
        {
          "internalType": "bytes32",
          "name": "_requestId",
          "type": "bytes32"
        },
        {
          "internalType": "uint256",
          "name": "_randomness",
          "type": "uint256"
        }
      ],
      "name": "fulfillRandomness",
      "outputs": [],
      "payable": false,
      "stateMutability": "nonpayable",
      "type": "function"
    },
    {
      "constant": false,
      "inputs": [
        {
          "internalType": "uint256",
          "name": "_seed",
          "type": "uint256"
        },
        {
          "internalType": "uint256",
          "name": "_dadId",
          "type": "uint256"
        },
        {
          "internalType": "uint256",
          "name": "_mumId",
          "type": "uint256"
        }
      ],
      "name": "breed",
      "outputs": [],
      "payable": false,
      "stateMutability": "nonpayable",
      "type": "function"
    },
    {
      "constant": false,
      "inputs": [
        {
          "internalType": "uint256",
          "name": "_genes",
          "type": "uint256"
        }
      ],
      "name": "createKittyGen0",
      "outputs": [],
      "payable": false,
      "stateMutability": "nonpayable",
      "type": "function"
    },
    {
      "constant": true,
      "inputs": [
        {
          "internalType": "uint256",
          "name": "_id",
          "type": "uint256"
        }
      ],
      "name": "getKitty",
      "outputs": [
        {
          "internalType": "uint256",
          "name": "genes",
          "type": "uint256"
        },
        {
          "internalType": "uint256",
          "name": "birthTime",
          "type": "uint256"
        },
        {
          "internalType": "uint256",
          "name": "mumId",
          "type": "uint256"
        },
        {
          "internalType": "uint256",
          "name": "dadId",
          "type": "uint256"
        },
        {
          "internalType": "uint256",
          "name": "generation",
          "type": "uint256"
        }
      ],
      "payable": false,
      "stateMutability": "view",
      "type": "function"
    },
    {
      "constant": false,
      "inputs": [
        {
          "internalType": "address",
          "name": "_new",
          "type": "address"
        }
      ],
      "name": "set_vrfCoordinator",
      "outputs": [
        {
          "internalType": "bool",
          "name": "",
          "type": "bool"
        }
      ],
      "payable": false,
      "stateMutability": "nonpayable",
      "type": "function"
    },
    {
      "constant": false,
      "inputs": [
        {
          "internalType": "address",
          "name": "_new",
          "type": "address"
        }
      ],
      "name": "set_link",
      "outputs": [
        {
          "internalType": "bool",
          "name": "",
          "type": "bool"
        }
      ],
      "payable": false,
      "stateMutability": "nonpayable",
      "type": "function"
    }
  ],
  "bytecode": "0x60806040523480156200001157600080fd5b5060405162004a7e38038062004a7e833981810160405260408110156200003757600080fd5b8101908080519060200190929190805190602001909291905050508181336000806101000a81548173ffffffffffffffffffffffffffffffffffffffff021916908373ffffffffffffffffffffffffffffffffffffffff160217905550620000ac6301ffc9a760e01b6200024460201b60201c565b620000c46380ac58cd60e01b6200024460201b60201c565b81600e60006101000a81548173ffffffffffffffffffffffffffffffffffffffff021916908373ffffffffffffffffffffffffffffffffffffffff16021790555080600d60006101000a81548173ffffffffffffffffffffffffffffffffffffffff021916908373ffffffffffffffffffffffffffffffffffffffff160217905550505081600e60006101000a81548173ffffffffffffffffffffffffffffffffffffffff021916908373ffffffffffffffffffffffffffffffffffffffff16021790555080600d60006101000a81548173ffffffffffffffffffffffffffffffffffffffff021916908373ffffffffffffffffffffffffffffffffffffffff1602179055507fced103054e349b8dfb51352f0f8fa9b5d20dde3d06f9f43cb2b85bc64b23820560001b601181905550670de0b6b3a76400006012819055506200023b60008060007fffffffffffffffffffffffffffffffffffffffffffffffffffffffffffffffff6000620002e460201b60201c565b5050506200098e565b63ffffffff60e01b817bffffffffffffffffffffffffffffffffffffffffffffffffffffffff191614156200027857600080fd5b6001806000837bffffffffffffffffffffffffffffffffffffffffffffffffffffffff19167bffffffffffffffffffffffffffffffffffffffffffffffffffffffff1916815260200190815260200160002060006101000a81548160ff02191690831515021790555050565b6000620002f062000945565b6040518060a001604052808581526020014267ffffffffffffffff1681526020018863ffffffff1681526020018763ffffffff1681526020018661ffff16815250905060006001600683908060018154018082558091505090600182039060005260206000209060020201600090919290919091506000820151816000015560208201518160010160006101000a81548167ffffffffffffffff021916908367ffffffffffffffff16021790555060408201518160010160086101000a81548163ffffffff021916908363ffffffff160217905550606082015181600101600c6101000a81548163ffffffff021916908363ffffffff16021790555060808201518160010160106101000a81548161ffff021916908361ffff16021790555050500390508063ffffffff16811462000490576040517f08c379a00000000000000000000000000000000000000000000000000000000081526004018080602001828103825260158152602001807f54657374696e67206361746368206572726f722030000000000000000000000081525060200191505060405180910390fd5b7f0a5311bd2a6608f08a180df2ee7c5946819a649b204b554bb8e39825b2c50ad58482846040015163ffffffff16856060015163ffffffff168660000151604051808673ffffffffffffffffffffffffffffffffffffffff1673ffffffffffffffffffffffffffffffffffffffff1681526020018581526020018481526020018381526020018281526020019550505050505060405180910390a16200053d30826200055f60201b60201c565b6200055160008583620006bc60201b60201c565b809250505095945050505050565b600073ffffffffffffffffffffffffffffffffffffffff168273ffffffffffffffffffffffffffffffffffffffff1614156200059a57600080fd5b620005ab81620008bd60201b60201c565b15620005b657600080fd5b816002600083815260200190815260200160002060006101000a81548173ffffffffffffffffffffffffffffffffffffffff021916908373ffffffffffffffffffffffffffffffffffffffff1602179055506200065c600460008473ffffffffffffffffffffffffffffffffffffffff1673ffffffffffffffffffffffffffffffffffffffff1681526020019081526020016000206200092f60201b62003ae61760201c565b808273ffffffffffffffffffffffffffffffffffffffff16600073ffffffffffffffffffffffffffffffffffffffff167fddf252ad1be2c89b69c2b068fc378daa952ba7f163c4a11628f55a4df523b3ef60405160405180910390a45050565b600860008373ffffffffffffffffffffffffffffffffffffffff1673ffffffffffffffffffffffffffffffffffffffff16815260200190815260200160002060008154809291906001019190505550816007600083815260200190815260200160002060006101000a81548173ffffffffffffffffffffffffffffffffffffffff021916908373ffffffffffffffffffffffffffffffffffffffff160217905550600073ffffffffffffffffffffffffffffffffffffffff168373ffffffffffffffffffffffffffffffffffffffff16146200081957600860008473ffffffffffffffffffffffffffffffffffffffff1673ffffffffffffffffffffffffffffffffffffffff16815260200190815260200160002060008154809291906001900391905055506009600082815260200190815260200160002060006101000a81549073ffffffffffffffffffffffffffffffffffffffff02191690555b7fddf252ad1be2c89b69c2b068fc378daa952ba7f163c4a11628f55a4df523b3ef838383604051808473ffffffffffffffffffffffffffffffffffffffff1673ffffffffffffffffffffffffffffffffffffffff1681526020018373ffffffffffffffffffffffffffffffffffffffff1673ffffffffffffffffffffffffffffffffffffffff168152602001828152602001935050505060405180910390a1505050565b6000806002600084815260200190815260200160002060009054906101000a900473ffffffffffffffffffffffffffffffffffffffff169050600073ffffffffffffffffffffffffffffffffffffffff168173ffffffffffffffffffffffffffffffffffffffff161415915050919050565b6001816000016000828254019250508190555050565b6040518060a0016040528060008152602001600067ffffffffffffffff168152602001600063ffffffff168152602001600063ffffffff168152602001600061ffff1681525090565b6140e0806200099e6000396000f3fe6080604052600436106101ed5760003560e01c80638da5cb5b1161010d578063ae5310f6116100a0578063dc6cfe101161006f578063dc6cfe1014610d7b578063e985e9c514610dde578063e98b7f4d14610e67578063ef5e94aa14610ed2578063f2fde38b14610efd576101ed565b8063ae5310f614610bd5578063b483433014610c03578063b88d4fde14610c2e578063d5a776ca14610d40576101ed565b80639b5e1687116100dc5780639b5e168714610a5f5780639e317f1214610aae578063a22cb46514610afd578063a45f4bfc14610b5a576101ed565b80638da5cb5b146108f8578063941b055b1461094f57806395a0f9c71461099457806395d89b41146109cf576101ed565b806342842e0e116101855780636352211e116101545780636352211e1461070957806369d6a5531461078457806370a08231146107ed5780638462151c14610852576101ed565b806342842e0e1461051e5780634579268a14610599578063481af3d31461062257806349b3709f1461069d576101ed565b8063095ea7b3116101c1578063095ea7b3146103d857806318160ddd146104335780631f1f897f1461045e57806323b872dd146104a3576101ed565b806288b11a146101f257806301ffc9a71461025b57806306fdde03146102cd578063081812fc1461035d575b600080fd5b3480156101fe57600080fd5b506102416004803603602081101561021557600080fd5b81019080803573ffffffffffffffffffffffffffffffffffffffff169060200190929190505050610f4e565b604051808215151515815260200191505060405180910390f35b34801561026757600080fd5b506102b36004803603602081101561027e57600080fd5b8101908080357bffffffffffffffffffffffffffffffffffffffffffffffffffffffff19169060200190929190505050611096565b604051808215151515815260200191505060405180910390f35b3480156102d957600080fd5b506102e26110fe565b6040518080602001828103825283818151815260200191508051906020019080838360005b83811015610322578082015181840152602081019050610307565b50505050905090810190601f16801561034f5780820380516001836020036101000a031916815260200191505b509250505060405180910390f35b34801561036957600080fd5b506103966004803603602081101561038057600080fd5b8101908080359060200190929190505050611137565b604051808273ffffffffffffffffffffffffffffffffffffffff1673ffffffffffffffffffffffffffffffffffffffff16815260200191505060405180910390f35b3480156103e457600080fd5b50610431600480360360408110156103fb57600080fd5b81019080803573ffffffffffffffffffffffffffffffffffffffff16906020019092919080359060200190929190505050611186565b005b34801561043f57600080fd5b50610448611313565b6040518082815260200191505060405180910390f35b34801561046a57600080fd5b506104a16004803603604081101561048157600080fd5b810190808035906020019092919080359060200190929190505050611323565b005b3480156104af57600080fd5b5061051c600480360360608110156104c657600080fd5b81019080803573ffffffffffffffffffffffffffffffffffffffff169060200190929190803573ffffffffffffffffffffffffffffffffffffffff16906020019092919080359060200190929190505050611396565b005b34801561052a57600080fd5b506105976004803603606081101561054157600080fd5b81019080803573ffffffffffffffffffffffffffffffffffffffff169060200190929190803573ffffffffffffffffffffffffffffffffffffffff169060200190929190803590602001909291905050506113b9565b005b3480156105a557600080fd5b506105d2600480360360208110156105bc57600080fd5b81019080803590602001909291905050506113d9565b604051808473ffffffffffffffffffffffffffffffffffffffff1673ffffffffffffffffffffffffffffffffffffffff168152602001838152602001828152602001935050505060405180910390f35b34801561062e57600080fd5b5061065b6004803603602081101561064557600080fd5b8101908080359060200190929190505050611434565b604051808273ffffffffffffffffffffffffffffffffffffffff1673ffffffffffffffffffffffffffffffffffffffff16815260200191505060405180910390f35b3480156106a957600080fd5b506106b2611467565b6040518080602001828103825283818151815260200191508051906020019060200280838360005b838110156106f55780820151818401526020810190506106da565b505050509050019250505060405180910390f35b34801561071557600080fd5b506107426004803603602081101561072c57600080fd5b810190808035906020019092919050505061156c565b604051808273ffffffffffffffffffffffffffffffffffffffff1673ffffffffffffffffffffffffffffffffffffffff16815260200191505060405180910390f35b34801561079057600080fd5b506107d3600480360360208110156107a757600080fd5b81019080803573ffffffffffffffffffffffffffffffffffffffff1690602001909291905050506115e8565b604051808215151515815260200191505060405180910390f35b3480156107f957600080fd5b5061083c6004803603602081101561081057600080fd5b81019080803573ffffffffffffffffffffffffffffffffffffffff169060200190929190505050611730565b6040518082815260200191505060405180910390f35b34801561085e57600080fd5b506108a16004803603602081101561087557600080fd5b81019080803573ffffffffffffffffffffffffffffffffffffffff1690602001909291905050506117b9565b6040518080602001828103825283818151815260200191508051906020019060200280838360005b838110156108e45780820151818401526020810190506108c9565b505050509050019250505060405180910390f35b34801561090457600080fd5b5061090d611901565b604051808273ffffffffffffffffffffffffffffffffffffffff1673ffffffffffffffffffffffffffffffffffffffff16815260200191505060405180910390f35b34801561095b57600080fd5b506109926004803603604081101561097257600080fd5b810190808035906020019092919080359060200190929190505050611926565b005b3480156109a057600080fd5b506109cd600480360360208110156109b757600080fd5b8101908080359060200190929190505050611c00565b005b3480156109db57600080fd5b506109e4611efc565b6040518080602001828103825283818151815260200191508051906020019080838360005b83811015610a24578082015181840152602081019050610a09565b50505050905090810190601f168015610a515780820380516001836020036101000a031916815260200191505b509250505060405180910390f35b348015610a6b57600080fd5b50610aac60048036036060811015610a8257600080fd5b81019080803590602001909291908035906020019092919080359060200190929190505050611f35565b005b348015610aba57600080fd5b50610ae760048036036020811015610ad157600080fd5b8101908080359060200190929190505050612211565b6040518082815260200191505060405180910390f35b348015610b0957600080fd5b50610b5860048036036040811015610b2057600080fd5b81019080803573ffffffffffffffffffffffffffffffffffffffff169060200190929190803515159060200190929190505050612229565b005b348015610b6657600080fd5b50610b9360048036036020811015610b7d57600080fd5b8101908080359060200190929190505050612363565b604051808273ffffffffffffffffffffffffffffffffffffffff1673ffffffffffffffffffffffffffffffffffffffff16815260200191505060405180910390f35b610c0160048036036020811015610beb57600080fd5b8101908080359060200190929190505050612396565b005b348015610c0f57600080fd5b50610c18612662565b6040518082815260200191505060405180910390f35b348015610c3a57600080fd5b50610d3e60048036036080811015610c5157600080fd5b81019080803573ffffffffffffffffffffffffffffffffffffffff169060200190929190803573ffffffffffffffffffffffffffffffffffffffff1690602001909291908035906020019092919080359060200190640100000000811115610cb857600080fd5b820183602082011115610cca57600080fd5b80359060200191846001830284011164010000000083111715610cec57600080fd5b91908080601f016020809104026020016040519081016040528093929190818152602001838380828437600081840152601f19601f820116905080830192505050505050509192919290505050612667565b005b348015610d4c57600080fd5b50610d7960048036036020811015610d6357600080fd5b810190808035906020019092919050505061268d565b005b348015610d8757600080fd5b50610dc860048036036060811015610d9e57600080fd5b81019080803590602001909291908035906020019092919080359060200190929190505050612730565b6040518082815260200191505060405180910390f35b348015610dea57600080fd5b50610e4d60048036036040811015610e0157600080fd5b81019080803573ffffffffffffffffffffffffffffffffffffffff169060200190929190803573ffffffffffffffffffffffffffffffffffffffff169060200190929190505050612942565b604051808215151515815260200191505060405180910390f35b348015610e7357600080fd5b50610ea060048036036020811015610e8a57600080fd5b81019080803590602001909291905050506129d6565b604051808681526020018581526020018481526020018381526020018281526020019550505050505060405180910390f35b348015610ede57600080fd5b50610ee7612b1d565b6040518082815260200191505060405180910390f35b348015610f0957600080fd5b50610f4c60048036036020811015610f2057600080fd5b81019080803573ffffffffffffffffffffffffffffffffffffffff169060200190929190505050612b23565b005b60008060009054906101000a900473ffffffffffffffffffffffffffffffffffffffff1673ffffffffffffffffffffffffffffffffffffffff163373ffffffffffffffffffffffffffffffffffffffff1614610fa957600080fd5b600073ffffffffffffffffffffffffffffffffffffffff168273ffffffffffffffffffffffffffffffffffffffff16141561104c576040517f08c379a000000000000000000000000000000000000000000000000000000000815260040180806020018281038252600f8152602001807f496e76616c69642061646472657373000000000000000000000000000000000081525060200191505060405180910390fd5b81600d60006101000a81548173ffffffffffffffffffffffffffffffffffffffff021916908373ffffffffffffffffffffffffffffffffffffffff16021790555060019050919050565b600060016000837bffffffffffffffffffffffffffffffffffffffffffffffffffffffff19167bffffffffffffffffffffffffffffffffffffffffffffffffffffffff1916815260200190815260200160002060009054906101000a900460ff169050919050565b6040518060400160405280600b81526020017f4976616e4b69747469657300000000000000000000000000000000000000000081525081565b600061114282612bf4565b61114b57600080fd5b6003600083815260200190815260200160002060009054906101000a900473ffffffffffffffffffffffffffffffffffffffff169050919050565b60006111918261156c565b90508073ffffffffffffffffffffffffffffffffffffffff168373ffffffffffffffffffffffffffffffffffffffff161415611218576040517f08c379a000000000000000000000000000000000000000000000000000000000815260040180806020018281038252602b815260200180614081602b913960400191505060405180910390fd5b8073ffffffffffffffffffffffffffffffffffffffff163373ffffffffffffffffffffffffffffffffffffffff16148061125857506112578133612942565b5b61126157600080fd5b826003600084815260200190815260200160002060006101000a81548173ffffffffffffffffffffffffffffffffffffffff021916908373ffffffffffffffffffffffffffffffffffffffff160217905550818373ffffffffffffffffffffffffffffffffffffffff168273ffffffffffffffffffffffffffffffffffffffff167f8c5be1e5ebec7d5bd14f71427d1e84f3dd0314c0f7b2291e5b200ac8c7c3b92560405160405180910390a4505050565b6000600160068054905003905090565b61133760ff82612c6690919063ffffffff16565b6013600084815260200190815260200160002060030181905550817f258e8aab35e09293c36892d6c2e2ee63509c0ba72c3437d609e4f30109d3f16c826040518082815260200191505060405180910390a261139282612cb0565b5050565b6113a03382612f25565b6113a957600080fd5b6113b4838383612fba565b505050565b6113d483838360405180602001604052806000815250612667565b505050565b600080600080600b600086815260200190815260200160002090508060000160009054906101000a900473ffffffffffffffffffffffffffffffffffffffff1681600101548260020154829250935093509350509193909250565b60096020528060005260406000206000915054906101000a900473ffffffffffffffffffffffffffffffffffffffff1681565b60606000600a80549050905060008114156114b55760006040519080825280602002602001820160405280156114ac5781602001602082028038833980820191505090505b50915050611569565b6060816040519080825280602002602001820160405280156114e65781602001602082028038833980820191505090505b50905060008090505b82811015611562576000600a828154811061150657fe5b9060005260206000209060030201600101541461155557600a818154811061152a57fe5b90600052602060002090600302016002015482828151811061154857fe5b6020026020010181815250505b80806001019150506114ef565b8193505050505b90565b6000806002600084815260200190815260200160002060009054906101000a900473ffffffffffffffffffffffffffffffffffffffff169050600073ffffffffffffffffffffffffffffffffffffffff168173ffffffffffffffffffffffffffffffffffffffff1614156115df57600080fd5b80915050919050565b60008060009054906101000a900473ffffffffffffffffffffffffffffffffffffffff1673ffffffffffffffffffffffffffffffffffffffff163373ffffffffffffffffffffffffffffffffffffffff161461164357600080fd5b600073ffffffffffffffffffffffffffffffffffffffff168273ffffffffffffffffffffffffffffffffffffffff1614156116e6576040517f08c379a000000000000000000000000000000000000000000000000000000000815260040180806020018281038252600f8152602001807f496e76616c69642061646472657373000000000000000000000000000000000081525060200191505060405180910390fd5b81600e60006101000a81548173ffffffffffffffffffffffffffffffffffffffff021916908373ffffffffffffffffffffffffffffffffffffffff16021790555060019050919050565b60008073ffffffffffffffffffffffffffffffffffffffff168273ffffffffffffffffffffffffffffffffffffffff16141561176b57600080fd5b6117b2600460008473ffffffffffffffffffffffffffffffffffffffff1673ffffffffffffffffffffffffffffffffffffffff16815260200190815260200160002061317d565b9050919050565b606060006117c683611730565b9050600081141561180a5760006040519080825280602002602001820160405280156118015781602001602082028038833980820191505090505b509150506118fc565b60608160405190808252806020026020018201604052801561183b5781602001602082028038833980820191505090505b5090506000611848611313565b905060008090506000600190505b8281116118f3578673ffffffffffffffffffffffffffffffffffffffff166007600083815260200190815260200160002060009054906101000a900473ffffffffffffffffffffffffffffffffffffffff1673ffffffffffffffffffffffffffffffffffffffff1614156118e657808483815181106118d157fe5b60200260200101818152505081806001019250505b8080600101915050611856565b83955050505050505b919050565b6000809054906101000a900473ffffffffffffffffffffffffffffffffffffffff1681565b662386f26fc10000821015611986576040517f08c379a00000000000000000000000000000000000000000000000000000000081526004018080602001828103825260218152602001806140036021913960400191505060405180910390fd5b6000600b600083815260200190815260200160002060010154146119f5576040517f08c379a000000000000000000000000000000000000000000000000000000000815260040180806020018281038252602581526020018061405c6025913960400191505060405180910390fd5b6119ff3082611186565b611a07613f5f565b60405180606001604052803373ffffffffffffffffffffffffffffffffffffffff16815260200184815260200183815250905080600b600084815260200190815260200160002060008201518160000160006101000a81548173ffffffffffffffffffffffffffffffffffffffff021916908373ffffffffffffffffffffffffffffffffffffffff160217905550602082015181600101556040820151816002015590505060006001600a839080600181540180825580915050906001820390600052602060002090600302016000909192909190915060008201518160000160006101000a81548173ffffffffffffffffffffffffffffffffffffffff021916908373ffffffffffffffffffffffffffffffffffffffff1602179055506020820151816001015560408201518160020155505003905080600c6000858152602001908152602001600020819055507fd99e4fad9ad6313b1feb588fa8e605e3a9873172f2024330c35dd2b4041a4386338460405180806020018473ffffffffffffffffffffffffffffffffffffffff1673ffffffffffffffffffffffffffffffffffffffff1681526020018381526020018281038252600c8152602001807f437265617465206f666665720000000000000000000000000000000000000000815250602001935050505060405180910390a150505050565b611c0a338261318b565b611c7c576040517f08c379a000000000000000000000000000000000000000000000000000000000815260040180806020018281038252601e8152602001807f546865207573657220646f65736e2774206f776e2074686520746f6b656e000081525060200191505060405180910390fd5b611c84613f5f565b600b60008381526020019081526020016000206040518060600160405290816000820160009054906101000a900473ffffffffffffffffffffffffffffffffffffffff1673ffffffffffffffffffffffffffffffffffffffff1673ffffffffffffffffffffffffffffffffffffffff1681526020016001820154815260200160028201548152505090503373ffffffffffffffffffffffffffffffffffffffff16816000015173ffffffffffffffffffffffffffffffffffffffff1614611d96576040517f08c379a00000000000000000000000000000000000000000000000000000000081526004018080602001828103825260388152602001806140246038913960400191505060405180910390fd5b600a600c60008481526020019081526020016000205481548110611db657fe5b9060005260206000209060030201600080820160006101000a81549073ffffffffffffffffffffffffffffffffffffffff0219169055600182016000905560028201600090555050600b6000838152602001908152602001600020600080820160006101000a81549073ffffffffffffffffffffffffffffffffffffffff0219169055600182016000905560028201600090555050611e54826131f7565b7fd99e4fad9ad6313b1feb588fa8e605e3a9873172f2024330c35dd2b4041a4386338360405180806020018473ffffffffffffffffffffffffffffffffffffffff1673ffffffffffffffffffffffffffffffffffffffff1681526020018381526020018281038252600c8152602001807f52656d6f7665206f666665720000000000000000000000000000000000000000815250602001935050505060405180910390a15050565b6040518060400160405280600281526020017f434b00000000000000000000000000000000000000000000000000000000000081525081565b611f3f338361318b565b611fb1576040517f08c379a000000000000000000000000000000000000000000000000000000000815260040180806020018281038252601e8152602001807f546865207573657220646f65736e2774206f776e2074686520746f6b656e000081525060200191505060405180910390fd5b611fbb338261318b565b61202d576040517f08c379a000000000000000000000000000000000000000000000000000000000815260040180806020018281038252601e8152602001807f546865207573657220646f65736e2774206f776e2074686520746f6b656e000081525060200191505060405180910390fd5b818114156120a3576040517f08c379a000000000000000000000000000000000000000000000000000000000815260040180806020018281038252601f8152602001807f546865206361742063616e277420726570726f647563652068696d73656c660081525060200191505060405180910390fd5b6000600d60009054906101000a900473ffffffffffffffffffffffffffffffffffffffff1673ffffffffffffffffffffffffffffffffffffffff166370a08231306040518263ffffffff1660e01b8152600401808273ffffffffffffffffffffffffffffffffffffffff1673ffffffffffffffffffffffffffffffffffffffff16815260200191505060206040518083038186803b15801561214457600080fd5b505afa158015612158573d6000803e3d6000fd5b505050506040513d602081101561216e57600080fd5b81019080805190602001909291905050509050670de0b6b3a76400008110156121ff576040517f08c379a00000000000000000000000000000000000000000000000000000000081526004018080602001828103825260148152602001807f4465706f7369742031206c696e6b20746f6b656e00000000000000000000000081525060200191505060405180910390fd5b61220b33858585613243565b50505050565b600f6020528060005260406000206000915090505481565b3373ffffffffffffffffffffffffffffffffffffffff168273ffffffffffffffffffffffffffffffffffffffff16141561226257600080fd5b80600560003373ffffffffffffffffffffffffffffffffffffffff1673ffffffffffffffffffffffffffffffffffffffff16815260200190815260200160002060008473ffffffffffffffffffffffffffffffffffffffff1673ffffffffffffffffffffffffffffffffffffffff16815260200190815260200160002060006101000a81548160ff0219169083151502179055508173ffffffffffffffffffffffffffffffffffffffff163373ffffffffffffffffffffffffffffffffffffffff167f17307eab39ab6107e8899845ad3d59bd9653f200f220920489ca2b5937696c3183604051808215151515815260200191505060405180910390a35050565b60076020528060005260406000206000915054906101000a900473ffffffffffffffffffffffffffffffffffffffff1681565b61239e613f5f565b600b60008381526020019081526020016000206040518060600160405290816000820160009054906101000a900473ffffffffffffffffffffffffffffffffffffffff1673ffffffffffffffffffffffffffffffffffffffff1673ffffffffffffffffffffffffffffffffffffffff168152602001600182015481526020016002820154815250509050806020015134146124a1576040517f08c379a00000000000000000000000000000000000000000000000000000000081526004018080602001828103825260188152602001807f546865207072696365206973206e6f7420636f7272656374000000000000000081525060200191505060405180910390fd5b600a600c600084815260200190815260200160002054815481106124c157fe5b9060005260206000209060030201600080820160006101000a81549073ffffffffffffffffffffffffffffffffffffffff0219169055600182016000905560028201600090555050600b6000838152602001908152602001600020600080820160006101000a81549073ffffffffffffffffffffffffffffffffffffffff02191690556001820160009055600282016000905550506125608233613362565b61256f81600001513384611396565b806000015173ffffffffffffffffffffffffffffffffffffffff166108fc349081150290604051600060405180830381858888f193505050501580156125b9573d6000803e3d6000fd5b507fd99e4fad9ad6313b1feb588fa8e605e3a9873172f2024330c35dd2b4041a4386338360405180806020018473ffffffffffffffffffffffffffffffffffffffff1673ffffffffffffffffffffffffffffffffffffffff168152602001838152602001828103825260038152602001807f4275790000000000000000000000000000000000000000000000000000000000815250602001935050505060405180910390a15050565b600a81565b612672848484611396565b61267e848484846133b8565b61268757600080fd5b50505050565b6000809054906101000a900473ffffffffffffffffffffffffffffffffffffffff1673ffffffffffffffffffffffffffffffffffffffff163373ffffffffffffffffffffffffffffffffffffffff16146126e657600080fd5b600a601054106126f557600080fd5b6010600081548092919060010191905055506000612718600080600085336135a1565b905061272c6702c68af0bb14000082611926565b5050565b6000600d60009054906101000a900473ffffffffffffffffffffffffffffffffffffffff1673ffffffffffffffffffffffffffffffffffffffff16634000aea0600e60009054906101000a900473ffffffffffffffffffffffffffffffffffffffff1685878660405160200180838152602001828152602001925050506040516020818303038152906040526040518463ffffffff1660e01b8152600401808473ffffffffffffffffffffffffffffffffffffffff1673ffffffffffffffffffffffffffffffffffffffff16815260200183815260200180602001828103825283818151815260200191508051906020019080838360005b83811015612843578082015181840152602081019050612828565b50505050905090810190601f1680156128705780820380516001836020036101000a031916815260200191505b50945050505050602060405180830381600087803b15801561289157600080fd5b505af11580156128a5573d6000803e3d6000fd5b505050506040513d60208110156128bb57600080fd5b81019080805190602001909291905050505060006128ee858430600f60008a815260200190815260200160002054613809565b90506129176001600f60008881526020019081526020016000205461388390919063ffffffff16565b600f600087815260200190815260200160002081905550612938858261390b565b9150509392505050565b6000600560008473ffffffffffffffffffffffffffffffffffffffff1673ffffffffffffffffffffffffffffffffffffffff16815260200190815260200160002060008373ffffffffffffffffffffffffffffffffffffffff1673ffffffffffffffffffffffffffffffffffffffff16815260200190815260200160002060009054906101000a900460ff16905092915050565b600080600080600080600687815481106129ec57fe5b9060005260206000209060020201905060008160010160009054906101000a900467ffffffffffffffff1667ffffffffffffffff1611612a94576040517f08c379a00000000000000000000000000000000000000000000000000000000081526004018080602001828103825260178152602001807f746865206b6974747920646f65736e277420657869737400000000000000000081525060200191505060405180910390fd5b8060010160009054906101000a900467ffffffffffffffff1667ffffffffffffffff1694508060010160089054906101000a900463ffffffff1663ffffffff16935080600101600c9054906101000a900463ffffffff1663ffffffff1692508060010160109054906101000a900461ffff1661ffff169150806000015495505091939590929450565b60105481565b6000809054906101000a900473ffffffffffffffffffffffffffffffffffffffff1673ffffffffffffffffffffffffffffffffffffffff163373ffffffffffffffffffffffffffffffffffffffff1614612b7c57600080fd5b600073ffffffffffffffffffffffffffffffffffffffff168173ffffffffffffffffffffffffffffffffffffffff1614612bf157806000806101000a81548173ffffffffffffffffffffffffffffffffffffffff021916908373ffffffffffffffffffffffffffffffffffffffff1602179055505b50565b6000806002600084815260200190815260200160002060009054906101000a900473ffffffffffffffffffffffffffffffffffffffff169050600073ffffffffffffffffffffffffffffffffffffffff168173ffffffffffffffffffffffffffffffffffffffff161415915050919050565b6000612ca883836040518060400160405280601881526020017f536166654d6174683a206d6f64756c6f206279207a65726f0000000000000000815250613944565b905092915050565b600080612cd260136000858152602001908152602001600020600101546129d6565b94505050509150600080612cfb60136000878152602001908152602001600020600201546129d6565b945050505091506000612d0c613f96565b6000600790506000809050600190505b60808111612dbb57600081601360008c8152602001908152602001600020600301541614612d6c5760648681612d4e57fe5b0660ff16838360088110612d5e57fe5b602002018181525050612d90565b60648881612d7657fe5b0660ff16838360088110612d8657fe5b6020020181815250505b60648681612d9a57fe5b04955060648881612da757fe5b049750600182039150600281029050612d1c565b60006007601360008c81526020019081526020016000206003015481612ddd57fe5b0690506063601360008c81526020019081526020016000206003015481612e0057fe5b06848260088110612e0d57fe5b602002018181525050600091505b6008821015612e5557838260088110612e3057fe5b60200201518501945060078214612e48576064850294505b8180600101925050612e1b565b600080905086891015612e7a5760018701905060028181612e7257fe5b049050612ea2565b86891115612e9a5760018901905060028181612e9257fe5b049050612ea1565b6001870190505b5b6000601360008d815260200190815260200160002060000160009054906101000a900473ffffffffffffffffffffffffffffffffffffffff169050612f16601360008e815260200190815260200160002060020154601360008f815260200190815260200160002060010154848a856135a1565b50505050505050505050505050565b600080612f318361156c565b90508073ffffffffffffffffffffffffffffffffffffffff168473ffffffffffffffffffffffffffffffffffffffff161480612fa057508373ffffffffffffffffffffffffffffffffffffffff16612f8884611137565b73ffffffffffffffffffffffffffffffffffffffff16145b80612fb15750612fb08185612942565b5b91505092915050565b8273ffffffffffffffffffffffffffffffffffffffff16612fda8261156c565b73ffffffffffffffffffffffffffffffffffffffff1614612ffa57600080fd5b600073ffffffffffffffffffffffffffffffffffffffff168273ffffffffffffffffffffffffffffffffffffffff16141561303457600080fd5b61303d81613a05565b613084600460008573ffffffffffffffffffffffffffffffffffffffff1673ffffffffffffffffffffffffffffffffffffffff168152602001908152602001600020613ac3565b6130cb600460008473ffffffffffffffffffffffffffffffffffffffff1673ffffffffffffffffffffffffffffffffffffffff168152602001908152602001600020613ae6565b816002600083815260200190815260200160002060006101000a81548173ffffffffffffffffffffffffffffffffffffffff021916908373ffffffffffffffffffffffffffffffffffffffff160217905550808273ffffffffffffffffffffffffffffffffffffffff168473ffffffffffffffffffffffffffffffffffffffff167fddf252ad1be2c89b69c2b068fc378daa952ba7f163c4a11628f55a4df523b3ef60405160405180910390a4505050565b600081600001549050919050565b60008273ffffffffffffffffffffffffffffffffffffffff166007600084815260200190815260200160002060009054906101000a900473ffffffffffffffffffffffffffffffffffffffff1673ffffffffffffffffffffffffffffffffffffffff1614905092915050565b613201338261318b565b61320a57600080fd5b6009600082815260200190815260200160002060006101000a81549073ffffffffffffffffffffffffffffffffffffffff021916905550565b600083434060405160200180838152602001828152602001925050506040516020818303038152906040528051906020012060001c9050600061328b60115460125484612730565b9050856013600083815260200190815260200160002060000160006101000a81548173ffffffffffffffffffffffffffffffffffffffff021916908373ffffffffffffffffffffffffffffffffffffffff160217905550836013600083815260200190815260200160002060010181905550826013600083815260200190815260200160002060020181905550807ffcbc2bbea91e7ab227222eccd49e7ddabe282be9501710f827fdb0b4b1f5a1a060115484604051808381526020018281526020019250505060405180910390a2505050505050565b806009600084815260200190815260200160002060006101000a81548173ffffffffffffffffffffffffffffffffffffffff021916908373ffffffffffffffffffffffffffffffffffffffff1602179055505050565b60006133d98473ffffffffffffffffffffffffffffffffffffffff16613afc565b6133e65760019050613599565b60008473ffffffffffffffffffffffffffffffffffffffff1663150b7a02338887876040518563ffffffff1660e01b8152600401808573ffffffffffffffffffffffffffffffffffffffff1673ffffffffffffffffffffffffffffffffffffffff1681526020018473ffffffffffffffffffffffffffffffffffffffff1673ffffffffffffffffffffffffffffffffffffffff16815260200183815260200180602001828103825283818151815260200191508051906020019080838360005b838110156134c15780820151818401526020810190506134a6565b50505050905090810190601f1680156134ee5780820380516001836020036101000a031916815260200191505b5095505050505050602060405180830381600087803b15801561351057600080fd5b505af1158015613524573d6000803e3d6000fd5b505050506040513d602081101561353a57600080fd5b8101908080519060200190929190505050905063150b7a0260e01b7bffffffffffffffffffffffffffffffffffffffffffffffffffffffff1916817bffffffffffffffffffffffffffffffffffffffffffffffffffffffff1916149150505b949350505050565b60006135ab613fb9565b6040518060a001604052808581526020014267ffffffffffffffff1681526020018863ffffffff1681526020018763ffffffff1681526020018661ffff16815250905060006001600683908060018154018082558091505090600182039060005260206000209060020201600090919290919091506000820151816000015560208201518160010160006101000a81548167ffffffffffffffff021916908367ffffffffffffffff16021790555060408201518160010160086101000a81548163ffffffff021916908363ffffffff160217905550606082015181600101600c6101000a81548163ffffffff021916908363ffffffff16021790555060808201518160010160106101000a81548161ffff021916908361ffff16021790555050500390508063ffffffff16811461374a576040517f08c379a00000000000000000000000000000000000000000000000000000000081526004018080602001828103825260158152602001807f54657374696e67206361746368206572726f722030000000000000000000000081525060200191505060405180910390fd5b7f0a5311bd2a6608f08a180df2ee7c5946819a649b204b554bb8e39825b2c50ad58482846040015163ffffffff16856060015163ffffffff168660000151604051808673ffffffffffffffffffffffffffffffffffffffff1673ffffffffffffffffffffffffffffffffffffffff1681526020018581526020018481526020018381526020018281526020019550505050505060405180910390a16137ef3082613b0f565b6137fb60008583613c55565b809250505095945050505050565b600084848484604051602001808581526020018481526020018373ffffffffffffffffffffffffffffffffffffffff1673ffffffffffffffffffffffffffffffffffffffff1681526020018281526020019450505050506040516020818303038152906040528051906020012060001c9050949350505050565b600080828401905083811015613901576040517f08c379a000000000000000000000000000000000000000000000000000000000815260040180806020018281038252601b8152602001807f536166654d6174683a206164646974696f6e206f766572666c6f77000000000081525060200191505060405180910390fd5b8091505092915050565b60008282604051602001808381526020018281526020019250505060405160208183030381529060405280519060200120905092915050565b60008083141582906139f1576040517f08c379a00000000000000000000000000000000000000000000000000000000081526004018080602001828103825283818151815260200191508051906020019080838360005b838110156139b657808201518184015260208101905061399b565b50505050905090810190601f1680156139e35780820380516001836020036101000a031916815260200191505b509250505060405180910390fd5b508284816139fb57fe5b0690509392505050565b600073ffffffffffffffffffffffffffffffffffffffff166003600083815260200190815260200160002060009054906101000a900473ffffffffffffffffffffffffffffffffffffffff1673ffffffffffffffffffffffffffffffffffffffff1614613ac05760006003600083815260200190815260200160002060006101000a81548173ffffffffffffffffffffffffffffffffffffffff021916908373ffffffffffffffffffffffffffffffffffffffff1602179055505b50565b613adb60018260000154613e5590919063ffffffff16565b816000018190555050565b6001816000016000828254019250508190555050565b600080823b905060008111915050919050565b600073ffffffffffffffffffffffffffffffffffffffff168273ffffffffffffffffffffffffffffffffffffffff161415613b4957600080fd5b613b5281612bf4565b15613b5c57600080fd5b816002600083815260200190815260200160002060006101000a81548173ffffffffffffffffffffffffffffffffffffffff021916908373ffffffffffffffffffffffffffffffffffffffff160217905550613bf5600460008473ffffffffffffffffffffffffffffffffffffffff1673ffffffffffffffffffffffffffffffffffffffff168152602001908152602001600020613ae6565b808273ffffffffffffffffffffffffffffffffffffffff16600073ffffffffffffffffffffffffffffffffffffffff167fddf252ad1be2c89b69c2b068fc378daa952ba7f163c4a11628f55a4df523b3ef60405160405180910390a45050565b600860008373ffffffffffffffffffffffffffffffffffffffff1673ffffffffffffffffffffffffffffffffffffffff16815260200190815260200160002060008154809291906001019190505550816007600083815260200190815260200160002060006101000a81548173ffffffffffffffffffffffffffffffffffffffff021916908373ffffffffffffffffffffffffffffffffffffffff160217905550600073ffffffffffffffffffffffffffffffffffffffff168373ffffffffffffffffffffffffffffffffffffffff1614613db157600860008473ffffffffffffffffffffffffffffffffffffffff1673ffffffffffffffffffffffffffffffffffffffff16815260200190815260200160002060008154809291906001900391905055506009600082815260200190815260200160002060006101000a81549073ffffffffffffffffffffffffffffffffffffffff02191690555b7fddf252ad1be2c89b69c2b068fc378daa952ba7f163c4a11628f55a4df523b3ef838383604051808473ffffffffffffffffffffffffffffffffffffffff1673ffffffffffffffffffffffffffffffffffffffff1681526020018373ffffffffffffffffffffffffffffffffffffffff1673ffffffffffffffffffffffffffffffffffffffff168152602001828152602001935050505060405180910390a1505050565b6000613e9783836040518060400160405280601e81526020017f536166654d6174683a207375627472616374696f6e206f766572666c6f770000815250613e9f565b905092915050565b6000838311158290613f4c576040517f08c379a00000000000000000000000000000000000000000000000000000000081526004018080602001828103825283818151815260200191508051906020019080838360005b83811015613f11578082015181840152602081019050613ef6565b50505050905090810190601f168015613f3e5780820380516001836020036101000a031916815260200191505b509250505060405180910390fd5b5060008385039050809150509392505050565b6040518060600160405280600073ffffffffffffffffffffffffffffffffffffffff16815260200160008152602001600081525090565b604051806101000160405280600890602082028038833980820191505090505090565b6040518060a0016040528060008152602001600067ffffffffffffffff168152602001600063ffffffff168152602001600063ffffffff168152602001600061ffff168152509056fe4361742070726963652073686f756c64206265206174206c6561737420302e3031596f752073686f756c64206f776e20746865206b6974747920746f2062652061626c6520746f2072656d6f76652074686973206f66666572596f752063616e27742073656c6c207477696365207468652073616d65206f666665727320417070726f7665206661696c6564202d206164647265737320746f206d7573742062652021206f776e6572a265627a7a72315820773cffd8a5af2e4088a1a72b93995c6af9e457a2444e89fdd238e8f2ebb113b464736f6c634300050c0032",
  "source": "import \"./utils/Ownable.sol\";\nimport \"./KittyMarketPlace.sol\";\n\n/*\n* VRFConsumerBase required to call the oracle\n*/\nimport \"./utils/link/VRFConsumerBase.sol\"; /* https://docs.chain.link/docs/chainlink-vrf */\n\n\n\npragma solidity ^0.5.0;\n\ncontract KittyCore is Ownable, KittyMarketPlace, VRFConsumerBase {\n\n  using SafeMath for uint256;\n\n  uint256 public constant CREATION_LIMIT_GEN0 = 10;\n\n\n  // Counts the number of cats the contract owner has created.\n  uint256 public gen0Counter;\n\n\n  /* Provided by the oracle (it's the public key against which randomness is generated) */\n  bytes32 internal keyHash;\n\n  /* The oracle's fee is set to 1 link  */\n  uint256 internal fee;\n\n\n  /*\n  * In struct 'requests' we save the data we need to call Breeding ()\n  * once the random number is returned by the oracle.\n  *\n  * In order to access request we use the bytes32 _requestId provided from getRandomNumber ()\n  */\n\n\n  struct Requests {\n\n    address requestor;\n    uint256 dadId;\n    uint256 mumId;\n    uint256 randomNumber;\n  }\n\n  mapping (bytes32 => Requests) internal request;\n\n  /* RequestRandomness is emitted after calling the oracle from KittyCore  */\n  event RequestRandomness(bytes32 indexed requestId,bytes32 keyHash,uint256 seed);\n\n\n  /* RequestRandomnessFulfilled is emitted once the random number is returned  */\n  event RequestRandomnessFulfilled(bytes32 indexed requestId,uint256 randomness);\n\n\n\n  /*\n    _vrfCoordinator: 0xf720CF1B963e0e7bE9F58fd471EFa67e7bF00cfb\n    _link:           0x20fE562d797A42Dcb3399062AE9546cd06f63280\n  */\n\n  constructor(address _vrfCoordinator, address _link)\n  VRFConsumerBase(_vrfCoordinator, _link) public { // Refer to VRFConsumerBase for more info\n\n    vrfCoordinator = _vrfCoordinator;\n    LINK = LinkTokenInterface(_link);\n    keyHash = 0xced103054e349b8dfb51352f0f8fa9b5d20dde3d06f9f43cb2b85bc64b238205; // hard-coded for Ropsten\n    fee = 10 ** 18;\n\n    // We are creating the first kitty at index 0\n    _createKitty(0, 0, 0, uint256(-1), address(0));\n  }\n\n\n  function getRandomNumber (\n    address _requestor,\n    uint256 _userProvidedSeed,\n    uint256 _dadId,\n    uint256 _mumId\n\n  ) internal {\n\n    uint256 seed = uint256(keccak256(abi.encode(_userProvidedSeed, blockhash(block.number)))); // Hash user seed and blockhash\n\n    bytes32 requestId = requestRandomness(keyHash, fee, seed);\n\n    request[requestId].requestor = _requestor;\n    request[requestId].dadId = _dadId;\n    request[requestId].mumId = _mumId;\n\n    emit RequestRandomness(requestId, keyHash, seed);\n  }\n\n\n  function fulfillRandomness(bytes32 _requestId, uint256 _randomness) external {\n\n    request[_requestId].randomNumber = _randomness.mod(255);\n\n    emit RequestRandomnessFulfilled(_requestId, _randomness);\n\n    Breeding(_requestId);\n  }\n\n\n  /*\n  * breed must be used to trigger the oracle\n  * getRandomNumber () is called\n  * fulfillRandomness () calls Breeding() once the random number is created\n  */\n\n  function breed (uint256 _seed, uint256 _dadId, uint256 _mumId) public {\n\n    require(_owns(msg.sender, _dadId), \"The user doesn't own the token\");\n\n    require(_owns(msg.sender, _mumId), \"The user doesn't own the token\");\n\n    require(_mumId != _dadId, \"The cat can't reproduce himself\");\n\n    uint256 linkBalance = LINK.balanceOf(address(this));\n\n    require (linkBalance >= 10 ** 18, \"Deposit 1 link token\");\n\n    getRandomNumber(msg.sender, _seed,  _dadId,  _mumId);\n\n  }\n\n\n  /*\n  *       we get a\n  *\n  *       Basic binary operation\n  *\n  *       >>> '{0:08b}'.format(255 & 1)\n  *       '00000001'\n  *       >>> '{0:08b}'.format(255 & 2)\n  *       '00000010'\n  *       >>> '{0:08b}'.format(255 & 4)\n  *       '00000100'\n  *       >>> '{0:08b}'.format(255 & 8)\n  *       '00001000'\n  *       >>> '{0:08b}'.format(255 & 16)\n  *       '00010000'\n  *       >>> '{0:08b}'.format(255 & 32)\n  *       '00100000'\n  *       >>> '{0:08b}'.format(255 & 64)\n  *       '01000000'\n  *       >>> '{0:08b}'.format(255 & 128)\n  *       '10000000'\n  *\n  *       So we use a mask on our random number to check if we will use the mumID or the dadId\n  *\n  *       For example 205 is 11001101 in binary So\n  *       mum - mum - dad -dad -mum - mum - dad - mum\n  *\n  */\n\n  function Breeding (bytes32 _requestId) private {\n\n    ( uint256 Dadgenes,,,,uint256 DadGeneration ) = getKitty(request[_requestId].dadId);\n\n    ( uint256 Mumgenes,,,,uint256 MumGeneration ) = getKitty(request[_requestId].mumId);\n\n    uint256 geneKid;\n    uint256 [8] memory geneArray;\n    uint256 index = 7;\n    uint256 i = 0;\n\n    for(i = 1; i <= 128; i=i*2){\n\n        /* We are */\n        if(request[_requestId].randomNumber & i != 0){\n            geneArray[index] = uint8(Mumgenes % 100);\n        } else {\n            geneArray[index] = uint8(Dadgenes % 100);\n        }\n        Mumgenes /= 100;\n        Dadgenes /= 100;\n      index -= 1;\n    }\n\n    /* Add a random parameter in a random place */\n    uint256 newGeneIndex =  request[_requestId].randomNumber % 7;\n    geneArray[newGeneIndex] = request[_requestId].randomNumber % 99;\n\n    /* We reverse the DNa in the right order */\n    for (i = 0 ; i < 8; i++ ){\n      geneKid += geneArray[i];\n      if(i != 7){\n          geneKid *= 100;\n      }\n    }\n\n    uint256 kidGen = 0;\n    if (DadGeneration < MumGeneration){\n      kidGen = MumGeneration + 1;\n      kidGen /= 2;\n    } else if (DadGeneration > MumGeneration){\n      kidGen = DadGeneration + 1;\n      kidGen /= 2;\n    } else{\n      kidGen = MumGeneration + 1;\n    }\n\n    /* Below declaration 'requestor'\n    * needed to avoid **too many nested var ** error\n    * when calling _createKitty\n    */\n    address requestor = request[_requestId].requestor;\n\n    _createKitty(\n      request[_requestId].mumId,\n      request[_requestId].dadId,\n      kidGen,\n      geneKid,\n      requestor\n    );\n  }\n\n\n  function createKittyGen0(uint256 _genes) public onlyOwner {\n    require(gen0Counter < CREATION_LIMIT_GEN0);\n\n    gen0Counter++;\n\n    // Gen0 have no owners they are own by the contract\n    uint256 tokenId = _createKitty(0, 0, 0, _genes, msg.sender);\n    setOffer(0.2 ether, tokenId);\n  }\n\n  function getKitty(uint256 _id)\n    public\n    view\n    returns (\n    uint256 genes,\n    uint256 birthTime,\n    uint256 mumId,\n    uint256 dadId,\n    uint256 generation\n  ) {\n    Kitty storage kitty = kitties[_id];\n\n    require(kitty.birthTime > 0, \"the kitty doesn't exist\");\n\n    birthTime = uint256(kitty.birthTime);\n    mumId = uint256(kitty.mumId);\n    dadId = uint256(kitty.dadId);\n    generation = uint256(kitty.generation);\n    genes = kitty.genes;\n  }\n\n\n  /*\n  * Set the address of the deployed VRFCoordinator you wish to interact with\n  */\n\n  function set_vrfCoordinator (address _new) public onlyOwner returns (bool) {\n\n    require (_new != address(0),\"Invalid address\");\n\n    vrfCoordinator = _new;\n\n    return true;\n  }\n\n  /*\n  * Set the address of the LINK token used for payment\n  */\n\n  function set_link (address _new) public onlyOwner returns (bool) {\n\n    require (_new != address(0),\"Invalid address\");\n\n    LINK = LinkTokenInterface(_new);\n\n    return true;\n  }\n}\n",
  "sourcePath": "/Users/dan/Documents/Coding/Solidity/New_Projects/Contracts/academy-cryptokitties/contracts/KittyCore.sol",
  "compiler": {
    "name": "solc",
    "version": "0.5.12+commit.7709ece9.Emscripten.clang"
  },
  "schemaVersion": "3.0.23",
  "updatedAt": "2020-07-19T13:46:48.733Z",
  "networkType": "ethereum",
  "devdoc": {
    "methods": {
      "approve(address,uint256)": {
        "details": "Approves another address to transfer the given token ID The zero address indicates there is no approved address. There can only be one approved address per token at a given time. Can only be called by the token owner or an approved operator.",
        "params": {
          "to": "address to be approved for the given token ID",
          "tokenId": "uint256 ID of the token to be approved"
        }
      },
      "balanceOf(address)": {
        "details": "Gets the balance of the specified address",
        "params": {
          "owner": "address to query the balance of"
        },
        "return": "uint256 representing the amount owned by the passed address"
      },
      "getApproved(uint256)": {
        "details": "Gets the approved address for a token ID, or zero if no address set Reverts if the token ID does not exist.",
        "params": {
          "tokenId": "uint256 ID of the token to query the approval of"
        },
        "return": "address currently approved for the given token ID"
      },
      "isApprovedForAll(address,address)": {
        "details": "Tells whether an operator is approved by a given owner",
        "params": {
          "operator": "operator address which you want to query the approval of",
          "owner": "owner address which you want to query the approval of"
        },
        "return": "bool whether the given operator is approved by the given owner"
      },
      "ownerOf(uint256)": {
        "details": "Gets the owner of the specified token ID",
        "params": {
          "tokenId": "uint256 ID of the token to query the owner of"
        },
        "return": "owner address currently marked as the owner of the given token ID"
      },
      "requestRandomness(bytes32,uint256,uint256)": {
        "details": "The source of the seed data must be something which the oraclecannot anticipate. See \"SECURITY CONSIDERATIONS\" above.The fulfillRandomness method receives the output, once it's providedby the Oracle, and verified by the vrfCoordinator.The _keyHash must already be registered with the VRFCoordinator, andthe _fee must exceed the fee specified during registration of the_keyHash.The returned requestId can be used to distinguish responses to *concurrent requests. It is passed as the first argument tofulfillRandomness.",
        "params": {
          "_fee": "The amount of LINK to send with the request",
          "_keyHash": "ID of public key against which randomness is generated",
          "_seed": "Random seed from which output randomness is determined"
        },
        "return": "requestId which will be returned with the response to this request"
      },
      "safeTransferFrom(address,address,uint256)": {
        "details": "Safely transfers the ownership of a given token ID to another address If the target address is a contract, it must implement `onERC721Received`, which is called upon a safe transfer, and return the magic value `bytes4(keccak256(\"onERC721Received(address,address,uint256,bytes)\"))`; otherwise, the transfer is reverted.     * Requires the msg sender to be the owner, approved, or operator",
        "params": {
          "from": "current owner of the token",
          "to": "address to receive the ownership of the given token ID",
          "tokenId": "uint256 ID of the token to be transferred"
        }
      },
      "safeTransferFrom(address,address,uint256,bytes)": {
        "details": "Safely transfers the ownership of a given token ID to another address If the target address is a contract, it must implement `onERC721Received`, which is called upon a safe transfer, and return the magic value `bytes4(keccak256(\"onERC721Received(address,address,uint256,bytes)\"))`; otherwise, the transfer is reverted. Requires the msg sender to be the owner, approved, or operator",
        "params": {
          "_data": "bytes data to send along with a safe transfer check",
          "from": "current owner of the token",
          "to": "address to receive the ownership of the given token ID",
          "tokenId": "uint256 ID of the token to be transferred"
        }
      },
      "setApprovalForAll(address,bool)": {
        "details": "Sets or unsets the approval of a given operator An operator is allowed to transfer all tokens of the sender on their behalf",
        "params": {
          "approved": "representing the status of the approval to be set",
          "to": "operator address to set the approval"
        }
      },
      "supportsInterface(bytes4)": {
        "details": "implement supportsInterface(bytes4) using a lookup table"
      },
      "transferFrom(address,address,uint256)": {
        "details": "Transfers the ownership of a given token ID to another address Usage of this method is discouraged, use `safeTransferFrom` whenever possible Requires the msg sender to be the owner, approved, or operator",
        "params": {
          "from": "current owner of the token",
          "to": "address to receive the ownership of the given token ID",
          "tokenId": "uint256 ID of the token to be transferred"
        }
      },
      "transferOwnership(address)": {
        "details": "Allows the current owner to transfer control of the contract to a newOwner.",
        "params": {
          "newOwner": "The address to transfer ownership to."
        }
      }
    }
  },
  "userdoc": {
    "methods": {
      "requestRandomness(bytes32,uint256,uint256)": {
        "notice": "requestRandomness initiates a request for VRF output given _seed"
      }
    }
  }
}