{
  "contractName": "KittyMarketPlace",
  "abi": [
    {
      "anonymous": false,
      "inputs": [
        {
          "indexed": false,
          "internalType": "address",
          "name": "owner",
          "type": "address"
        },
        {
          "indexed": false,
          "internalType": "address",
          "name": "approved",
          "type": "address"
        },
        {
          "indexed": false,
          "internalType": "uint256",
          "name": "tokenId",
          "type": "uint256"
        }
      ],
      "name": "Approval",
      "type": "event"
    },
    {
      "anonymous": false,
      "inputs": [
        {
          "indexed": false,
          "internalType": "address",
          "name": "owner",
          "type": "address"
        },
        {
          "indexed": false,
          "internalType": "uint256",
          "name": "kittyId",
          "type": "uint256"
        },
        {
          "indexed": false,
          "internalType": "uint256",
          "name": "mumId",
          "type": "uint256"
        },
        {
          "indexed": false,
          "internalType": "uint256",
          "name": "dadId",
          "type": "uint256"
        },
        {
          "indexed": false,
          "internalType": "uint256",
          "name": "genes",
          "type": "uint256"
        }
      ],
      "name": "Birth",
      "type": "event"
    },
    {
      "anonymous": false,
      "inputs": [
        {
          "indexed": false,
          "internalType": "string",
          "name": "TxType",
          "type": "string"
        },
        {
          "indexed": false,
          "internalType": "address",
          "name": "owner",
          "type": "address"
        },
        {
          "indexed": false,
          "internalType": "uint256",
          "name": "tokenId",
          "type": "uint256"
        }
      ],
      "name": "MarketTransaction",
      "type": "event"
    },
    {
      "anonymous": false,
      "inputs": [
        {
          "indexed": false,
          "internalType": "address",
          "name": "from",
          "type": "address"
        },
        {
          "indexed": false,
          "internalType": "address",
          "name": "to",
          "type": "address"
        },
        {
          "indexed": false,
          "internalType": "uint256",
          "name": "tokenId",
          "type": "uint256"
        }
      ],
      "name": "Transfer",
      "type": "event"
    },
    {
      "constant": false,
      "inputs": [
        {
          "internalType": "address",
          "name": "_to",
          "type": "address"
        },
        {
          "internalType": "uint256",
          "name": "_tokenId",
          "type": "uint256"
        }
      ],
      "name": "approve",
      "outputs": [],
      "payable": false,
      "stateMutability": "nonpayable",
      "type": "function"
    },
    {
      "constant": true,
      "inputs": [
        {
          "internalType": "address",
          "name": "_owner",
          "type": "address"
        }
      ],
      "name": "balanceOf",
      "outputs": [
        {
          "internalType": "uint256",
          "name": "count",
          "type": "uint256"
        }
      ],
      "payable": false,
      "stateMutability": "view",
      "type": "function"
    },
    {
      "constant": true,
      "inputs": [
        {
          "internalType": "uint256",
          "name": "",
          "type": "uint256"
        }
      ],
      "name": "kittyIndexToApproved",
      "outputs": [
        {
          "internalType": "address",
          "name": "",
          "type": "address"
        }
      ],
      "payable": false,
      "stateMutability": "view",
      "type": "function"
    },
    {
      "constant": true,
      "inputs": [
        {
          "internalType": "uint256",
          "name": "",
          "type": "uint256"
        }
      ],
      "name": "kittyIndexToOwner",
      "outputs": [
        {
          "internalType": "address",
          "name": "",
          "type": "address"
        }
      ],
      "payable": false,
      "stateMutability": "view",
      "type": "function"
    },
    {
      "constant": true,
      "inputs": [],
      "name": "name",
      "outputs": [
        {
          "internalType": "string",
          "name": "",
          "type": "string"
        }
      ],
      "payable": false,
      "stateMutability": "view",
      "type": "function"
    },
    {
      "constant": true,
      "inputs": [
        {
          "internalType": "uint256",
          "name": "_tokenId",
          "type": "uint256"
        }
      ],
      "name": "ownerOf",
      "outputs": [
        {
          "internalType": "address",
          "name": "owner",
          "type": "address"
        }
      ],
      "payable": false,
      "stateMutability": "view",
      "type": "function"
    },
    {
      "constant": true,
      "inputs": [
        {
          "internalType": "bytes4",
          "name": "_interfaceID",
          "type": "bytes4"
        }
      ],
      "name": "supportsInterface",
      "outputs": [
        {
          "internalType": "bool",
          "name": "",
          "type": "bool"
        }
      ],
      "payable": false,
      "stateMutability": "pure",
      "type": "function"
    },
    {
      "constant": true,
      "inputs": [],
      "name": "symbol",
      "outputs": [
        {
          "internalType": "string",
          "name": "",
          "type": "string"
        }
      ],
      "payable": false,
      "stateMutability": "view",
      "type": "function"
    },
    {
      "constant": true,
      "inputs": [
        {
          "internalType": "address",
          "name": "_owner",
          "type": "address"
        }
      ],
      "name": "tokensOfOwner",
      "outputs": [
        {
          "internalType": "uint256[]",
          "name": "ownerTokens",
          "type": "uint256[]"
        }
      ],
      "payable": false,
      "stateMutability": "view",
      "type": "function"
    },
    {
      "constant": true,
      "inputs": [],
      "name": "totalSupply",
      "outputs": [
        {
          "internalType": "uint256",
          "name": "",
          "type": "uint256"
        }
      ],
      "payable": false,
      "stateMutability": "view",
      "type": "function"
    },
    {
      "constant": false,
      "inputs": [
        {
          "internalType": "address",
          "name": "_to",
          "type": "address"
        },
        {
          "internalType": "uint256",
          "name": "_tokenId",
          "type": "uint256"
        }
      ],
      "name": "transfer",
      "outputs": [],
      "payable": false,
      "stateMutability": "nonpayable",
      "type": "function"
    },
    {
      "constant": false,
      "inputs": [
        {
          "internalType": "address",
          "name": "_from",
          "type": "address"
        },
        {
          "internalType": "address",
          "name": "_to",
          "type": "address"
        },
        {
          "internalType": "uint256",
          "name": "_tokenId",
          "type": "uint256"
        }
      ],
      "name": "transferFrom",
      "outputs": [],
      "payable": false,
      "stateMutability": "nonpayable",
      "type": "function"
    },
    {
      "constant": true,
      "inputs": [
        {
          "internalType": "uint256",
          "name": "_tokenId",
          "type": "uint256"
        }
      ],
      "name": "getOffer",
      "outputs": [
        {
          "internalType": "address",
          "name": "seller",
          "type": "address"
        },
        {
          "internalType": "uint256",
          "name": "price",
          "type": "uint256"
        },
        {
          "internalType": "uint256",
          "name": "tokenId",
          "type": "uint256"
        }
      ],
      "payable": false,
      "stateMutability": "view",
      "type": "function"
    },
    {
      "constant": false,
      "inputs": [],
      "name": "getAllTokenOnSale",
      "outputs": [
        {
          "internalType": "uint256[]",
          "name": "listOfToken",
          "type": "uint256[]"
        }
      ],
      "payable": false,
      "stateMutability": "nonpayable",
      "type": "function"
    },
    {
      "constant": false,
      "inputs": [
        {
          "internalType": "uint256",
          "name": "_price",
          "type": "uint256"
        },
        {
          "internalType": "uint256",
          "name": "_tokenId",
          "type": "uint256"
        }
      ],
      "name": "setOffer",
      "outputs": [],
      "payable": false,
      "stateMutability": "nonpayable",
      "type": "function"
    },
    {
      "constant": false,
      "inputs": [
        {
          "internalType": "uint256",
          "name": "_tokenId",
          "type": "uint256"
        }
      ],
      "name": "removeOffer",
      "outputs": [],
      "payable": false,
      "stateMutability": "nonpayable",
      "type": "function"
    },
    {
      "constant": false,
      "inputs": [
        {
          "internalType": "uint256",
          "name": "_tokenId",
          "type": "uint256"
        }
      ],
      "name": "buyKitty",
      "outputs": [],
      "payable": true,
      "stateMutability": "payable",
      "type": "function"
    }
  ],
  "bytecode": "0x608060405234801561001057600080fd5b50611de8806100206000396000f3fe6080604052600436106100fe5760003560e01c80636352211e1161009557806395a0f9c71161006457806395a0f9c71461064157806395d89b411461067c578063a45f4bfc1461070c578063a9059cbb14610787578063ae5310f6146107e2576100fe565b80636352211e1461047657806370a08231146104f15780638462151c14610556578063941b055b146105fc576100fe565b806323b872dd116100d157806323b872dd1461028b5780634579268a14610306578063481af3d31461038f57806349b3709f1461040a576100fe565b806301ffc9a71461010357806306fdde0314610175578063095ea7b31461020557806318160ddd14610260575b600080fd5b34801561010f57600080fd5b5061015b6004803603602081101561012657600080fd5b8101908080357bffffffffffffffffffffffffffffffffffffffffffffffffffffffff19169060200190929190505050610810565b604051808215151515815260200191505060405180910390f35b34801561018157600080fd5b5061018a610ade565b6040518080602001828103825283818151815260200191508051906020019080838360005b838110156101ca5780820151818401526020810190506101af565b50505050905090810190601f1680156101f75780820380516001836020036101000a031916815260200191505b509250505060405180910390f35b34801561021157600080fd5b5061025e6004803603604081101561022857600080fd5b81019080803573ffffffffffffffffffffffffffffffffffffffff16906020019092919080359060200190929190505050610b17565b005b34801561026c57600080fd5b50610275610bd7565b6040518082815260200191505060405180910390f35b34801561029757600080fd5b50610304600480360360608110156102ae57600080fd5b81019080803573ffffffffffffffffffffffffffffffffffffffff169060200190929190803573ffffffffffffffffffffffffffffffffffffffff16906020019092919080359060200190929190505050610be7565b005b34801561031257600080fd5b5061033f6004803603602081101561032957600080fd5b8101908080359060200190929190505050610c57565b604051808473ffffffffffffffffffffffffffffffffffffffff1673ffffffffffffffffffffffffffffffffffffffff168152602001838152602001828152602001935050505060405180910390f35b34801561039b57600080fd5b506103c8600480360360208110156103b257600080fd5b8101908080359060200190929190505050610cb2565b604051808273ffffffffffffffffffffffffffffffffffffffff1673ffffffffffffffffffffffffffffffffffffffff16815260200191505060405180910390f35b34801561041657600080fd5b5061041f610ce5565b6040518080602001828103825283818151815260200191508051906020019060200280838360005b83811015610462578082015181840152602081019050610447565b505050509050019250505060405180910390f35b34801561048257600080fd5b506104af6004803603602081101561049957600080fd5b8101908080359060200190929190505050610dea565b604051808273ffffffffffffffffffffffffffffffffffffffff1673ffffffffffffffffffffffffffffffffffffffff16815260200191505060405180910390f35b3480156104fd57600080fd5b506105406004803603602081101561051457600080fd5b81019080803573ffffffffffffffffffffffffffffffffffffffff169060200190929190505050610e61565b6040518082815260200191505060405180910390f35b34801561056257600080fd5b506105a56004803603602081101561057957600080fd5b81019080803573ffffffffffffffffffffffffffffffffffffffff169060200190929190505050610eaa565b6040518080602001828103825283818151815260200191508051906020019060200280838360005b838110156105e85780820151818401526020810190506105cd565b505050509050019250505060405180910390f35b34801561060857600080fd5b5061063f6004803603604081101561061f57600080fd5b810190808035906020019092919080359060200190929190505050610ff2565b005b34801561064d57600080fd5b5061067a6004803603602081101561066457600080fd5b81019080803590602001909291905050506112cb565b005b34801561068857600080fd5b506106916115c7565b6040518080602001828103825283818151815260200191508051906020019080838360005b838110156106d15780820151818401526020810190506106b6565b50505050905090810190601f1680156106fe5780820380516001836020036101000a031916815260200191505b509250505060405180910390f35b34801561071857600080fd5b506107456004803603602081101561072f57600080fd5b8101908080359060200190929190505050611600565b604051808273ffffffffffffffffffffffffffffffffffffffff1673ffffffffffffffffffffffffffffffffffffffff16815260200191505060405180910390f35b34801561079357600080fd5b506107e0600480360360408110156107aa57600080fd5b81019080803573ffffffffffffffffffffffffffffffffffffffff16906020019092919080359060200190929190505050611633565b005b61080e600480360360208110156107f857600080fd5b810190808035906020019092919050505061168f565b005b600060405180807f737570706f727473496e74657266616365286279746573342900000000000000815250601901905060405180910390207bffffffffffffffffffffffffffffffffffffffffffffffffffffffff1916827bffffffffffffffffffffffffffffffffffffffffffffffffffffffff19161480610ad7575060405180807f746f6b656e4d657461646174612875696e743235362c737472696e6729000000815250601d019050604051809103902060405180807f746f6b656e734f664f776e657228616464726573732900000000000000000000815250601601905060405180910390206040518080611d0d602591396025019050604051809103902060405180807f7472616e7366657228616464726573732c75696e7432353629000000000000008152506019019050604051809103902060405180807f617070726f766528616464726573732c75696e743235362900000000000000008152506018019050604051809103902060405180807f6f776e65724f662875696e7432353629000000000000000000000000000000008152506010019050604051809103902060405180807f62616c616e63654f6628616464726573732900000000000000000000000000008152506012019050604051809103902060405180807f746f74616c537570706c79282900000000000000000000000000000000000000815250600d019050604051809103902060405180807f73796d626f6c28290000000000000000000000000000000000000000000000008152506008019050604051809103902060405180807f6e616d6528290000000000000000000000000000000000000000000000000000815250600601905060405180910390201818181818181818187bffffffffffffffffffffffffffffffffffffffffffffffffffffffff1916827bffffffffffffffffffffffffffffffffffffffffffffffffffffffff1916145b9050919050565b6040518060400160405280600b81526020017f4976616e4b69747469657300000000000000000000000000000000000000000081525081565b610b21338261195b565b610b2a57600080fd5b610b3481836119c7565b7f8c5be1e5ebec7d5bd14f71427d1e84f3dd0314c0f7b2291e5b200ac8c7c3b925338383604051808473ffffffffffffffffffffffffffffffffffffffff1673ffffffffffffffffffffffffffffffffffffffff1681526020018373ffffffffffffffffffffffffffffffffffffffff1673ffffffffffffffffffffffffffffffffffffffff168152602001828152602001935050505060405180910390a15050565b6000600160008054905003905090565b600073ffffffffffffffffffffffffffffffffffffffff168273ffffffffffffffffffffffffffffffffffffffff161415610c2157600080fd5b610c2b3382611a1d565b610c3457600080fd5b610c3e838261195b565b610c4757600080fd5b610c52838383611a89565b505050565b6000806000806005600086815260200190815260200160002090508060000160009054906101000a900473ffffffffffffffffffffffffffffffffffffffff1681600101548260020154829250935093509350509193909250565b60036020528060005260406000206000915054906101000a900473ffffffffffffffffffffffffffffffffffffffff1681565b6060600060048054905090506000811415610d33576000604051908082528060200260200182016040528015610d2a5781602001602082028038833980820191505090505b50915050610de7565b606081604051908082528060200260200182016040528015610d645781602001602082028038833980820191505090505b50905060008090505b82811015610de057600060048281548110610d8457fe5b90600052602060002090600302016001015414610dd35760048181548110610da857fe5b906000526020600020906003020160020154828281518110610dc657fe5b6020026020010181815250505b8080600101915050610d6d565b8193505050505b90565b60006001600083815260200190815260200160002060009054906101000a900473ffffffffffffffffffffffffffffffffffffffff169050600073ffffffffffffffffffffffffffffffffffffffff168173ffffffffffffffffffffffffffffffffffffffff161415610e5c57600080fd5b919050565b6000600260008373ffffffffffffffffffffffffffffffffffffffff1673ffffffffffffffffffffffffffffffffffffffff168152602001908152602001600020549050919050565b60606000610eb783610e61565b90506000811415610efb576000604051908082528060200260200182016040528015610ef25781602001602082028038833980820191505090505b50915050610fed565b606081604051908082528060200260200182016040528015610f2c5781602001602082028038833980820191505090505b5090506000610f39610bd7565b905060008090506000600190505b828111610fe4578673ffffffffffffffffffffffffffffffffffffffff166001600083815260200190815260200160002060009054906101000a900473ffffffffffffffffffffffffffffffffffffffff1673ffffffffffffffffffffffffffffffffffffffff161415610fd75780848381518110610fc257fe5b60200260200101818152505081806001019250505b8080600101915050610f47565b83955050505050505b919050565b661ff973cafa80008211611051576040517f08c379a0000000000000000000000000000000000000000000000000000000008152600401808060200182810382526025815260200180611d6a6025913960400191505060405180910390fd5b60006005600083815260200190815260200160002060010154146110c0576040517f08c379a0000000000000000000000000000000000000000000000000000000008152600401808060200182810382526025815260200180611d8f6025913960400191505060405180910390fd5b6110ca3082610b17565b6110d2611cd5565b60405180606001604052803373ffffffffffffffffffffffffffffffffffffffff168152602001848152602001838152509050806005600084815260200190815260200160002060008201518160000160006101000a81548173ffffffffffffffffffffffffffffffffffffffff021916908373ffffffffffffffffffffffffffffffffffffffff1602179055506020820151816001015560408201518160020155905050600060016004839080600181540180825580915050906001820390600052602060002090600302016000909192909190915060008201518160000160006101000a81548173ffffffffffffffffffffffffffffffffffffffff021916908373ffffffffffffffffffffffffffffffffffffffff160217905550602082015181600101556040820151816002015550500390508060066000858152602001908152602001600020819055507fd99e4fad9ad6313b1feb588fa8e605e3a9873172f2024330c35dd2b4041a4386338460405180806020018473ffffffffffffffffffffffffffffffffffffffff1673ffffffffffffffffffffffffffffffffffffffff1681526020018381526020018281038252600c8152602001807f437265617465206f666665720000000000000000000000000000000000000000815250602001935050505060405180910390a150505050565b6112d5338261195b565b611347576040517f08c379a000000000000000000000000000000000000000000000000000000000815260040180806020018281038252601e8152602001807f546865207573657220646f65736e2774206f776e2074686520746f6b656e000081525060200191505060405180910390fd5b61134f611cd5565b600560008381526020019081526020016000206040518060600160405290816000820160009054906101000a900473ffffffffffffffffffffffffffffffffffffffff1673ffffffffffffffffffffffffffffffffffffffff1673ffffffffffffffffffffffffffffffffffffffff1681526020016001820154815260200160028201548152505090503373ffffffffffffffffffffffffffffffffffffffff16816000015173ffffffffffffffffffffffffffffffffffffffff1614611461576040517f08c379a0000000000000000000000000000000000000000000000000000000008152600401808060200182810382526038815260200180611d326038913960400191505060405180910390fd5b600460066000848152602001908152602001600020548154811061148157fe5b9060005260206000209060030201600080820160006101000a81549073ffffffffffffffffffffffffffffffffffffffff021916905560018201600090556002820160009055505060056000838152602001908152602001600020600080820160006101000a81549073ffffffffffffffffffffffffffffffffffffffff021916905560018201600090556002820160009055505061151f82611c89565b7fd99e4fad9ad6313b1feb588fa8e605e3a9873172f2024330c35dd2b4041a4386338360405180806020018473ffffffffffffffffffffffffffffffffffffffff1673ffffffffffffffffffffffffffffffffffffffff1681526020018381526020018281038252600c8152602001807f52656d6f7665206f666665720000000000000000000000000000000000000000815250602001935050505060405180910390a15050565b6040518060400160405280600281526020017f434b00000000000000000000000000000000000000000000000000000000000081525081565b60016020528060005260406000206000915054906101000a900473ffffffffffffffffffffffffffffffffffffffff1681565b600073ffffffffffffffffffffffffffffffffffffffff168273ffffffffffffffffffffffffffffffffffffffff16141561166d57600080fd5b611677338261195b565b61168057600080fd5b61168b338383611a89565b5050565b611697611cd5565b600560008381526020019081526020016000206040518060600160405290816000820160009054906101000a900473ffffffffffffffffffffffffffffffffffffffff1673ffffffffffffffffffffffffffffffffffffffff1673ffffffffffffffffffffffffffffffffffffffff1681526020016001820154815260200160028201548152505090508060200151341461179a576040517f08c379a00000000000000000000000000000000000000000000000000000000081526004018080602001828103825260188152602001807f546865207072696365206973206e6f7420636f7272656374000000000000000081525060200191505060405180910390fd5b60046006600084815260200190815260200160002054815481106117ba57fe5b9060005260206000209060030201600080820160006101000a81549073ffffffffffffffffffffffffffffffffffffffff021916905560018201600090556002820160009055505060056000838152602001908152602001600020600080820160006101000a81549073ffffffffffffffffffffffffffffffffffffffff021916905560018201600090556002820160009055505061185982336119c7565b61186881600001513384610be7565b806000015173ffffffffffffffffffffffffffffffffffffffff166108fc349081150290604051600060405180830381858888f193505050501580156118b2573d6000803e3d6000fd5b507fd99e4fad9ad6313b1feb588fa8e605e3a9873172f2024330c35dd2b4041a4386338360405180806020018473ffffffffffffffffffffffffffffffffffffffff1673ffffffffffffffffffffffffffffffffffffffff168152602001838152602001828103825260038152602001807f4275790000000000000000000000000000000000000000000000000000000000815250602001935050505060405180910390a15050565b60008273ffffffffffffffffffffffffffffffffffffffff166001600084815260200190815260200160002060009054906101000a900473ffffffffffffffffffffffffffffffffffffffff1673ffffffffffffffffffffffffffffffffffffffff1614905092915050565b806003600084815260200190815260200160002060006101000a81548173ffffffffffffffffffffffffffffffffffffffff021916908373ffffffffffffffffffffffffffffffffffffffff1602179055505050565b60008273ffffffffffffffffffffffffffffffffffffffff166003600084815260200190815260200160002060009054906101000a900473ffffffffffffffffffffffffffffffffffffffff1673ffffffffffffffffffffffffffffffffffffffff1614905092915050565b600260008373ffffffffffffffffffffffffffffffffffffffff1673ffffffffffffffffffffffffffffffffffffffff16815260200190815260200160002060008154809291906001019190505550816001600083815260200190815260200160002060006101000a81548173ffffffffffffffffffffffffffffffffffffffff021916908373ffffffffffffffffffffffffffffffffffffffff160217905550600073ffffffffffffffffffffffffffffffffffffffff168373ffffffffffffffffffffffffffffffffffffffff1614611be557600260008473ffffffffffffffffffffffffffffffffffffffff1673ffffffffffffffffffffffffffffffffffffffff16815260200190815260200160002060008154809291906001900391905055506003600082815260200190815260200160002060006101000a81549073ffffffffffffffffffffffffffffffffffffffff02191690555b7fddf252ad1be2c89b69c2b068fc378daa952ba7f163c4a11628f55a4df523b3ef838383604051808473ffffffffffffffffffffffffffffffffffffffff1673ffffffffffffffffffffffffffffffffffffffff1681526020018373ffffffffffffffffffffffffffffffffffffffff1673ffffffffffffffffffffffffffffffffffffffff168152602001828152602001935050505060405180910390a1505050565b611c93338261195b565b611c9c57600080fd5b6003600082815260200190815260200160002060006101000a81549073ffffffffffffffffffffffffffffffffffffffff021916905550565b6040518060600160405280600073ffffffffffffffffffffffffffffffffffffffff1681526020016000815260200160008152509056fe7472616e7366657246726f6d28616464726573732c616464726573732c75696e7432353629596f752073686f756c64206f776e20746865206b6974747920746f2062652061626c6520746f2072656d6f76652074686973206f666665724361742070726963652073686f756c642062652067726561746572207468616e20302e3031596f752063616e27742073656c6c207477696365207468652073616d65206f666665727320a265627a7a723158204f3f58adf6369d365d50cbaf8de290d7cbf5031384e7325c4c5a563c20d3f16d64736f6c634300050c0032",
  "source": "import \"./KittyOwnership.sol\";\r\n\r\npragma solidity ^0.5.0;\r\n\r\ncontract KittyMarketPlace is KittyOwnership {\r\n\r\n  struct Offer {\r\n    address payable seller;\r\n    uint256 price;\r\n    uint256 tokenId;\r\n  }\r\n\r\n  Offer[] offers;\r\n\r\n  mapping (uint256 => Offer) tokenIdToOffer;\r\n  mapping (uint256 => uint256) tokenIdToOfferId;\r\n\r\n\r\n  event MarketTransaction(string TxType, address owner, uint256 tokenId);\r\n\r\n  function getOffer(uint256 _tokenId)\r\n      public\r\n      view\r\n      returns\r\n  (\r\n      address seller,\r\n      uint256 price,\r\n      uint256 tokenId\r\n\r\n  ) {\r\n      Offer storage offer = tokenIdToOffer[_tokenId];\r\n      return (\r\n          offer.seller,\r\n          offer.price,\r\n          offer.tokenId\r\n      );\r\n  }\r\n\r\n\r\n  function getAllTokenOnSale() public  returns(uint256[] memory listOfToken){\r\n    uint256 totalOffers = offers.length;\r\n    \r\n    if (totalOffers == 0) {\r\n        return new uint256[](0);\r\n    } else {\r\n  \r\n      uint256[] memory resultOfToken = new uint256[](totalOffers);\r\n\r\n      uint256 offerId;\r\n  \r\n      for (offerId = 0; offerId < totalOffers; offerId++) {\r\n        if(offers[offerId].price != 0){\r\n          resultOfToken[offerId] = offers[offerId].tokenId;\r\n        }\r\n      }\r\n      return resultOfToken;\r\n    }\r\n  }\r\n\r\n  function setOffer(uint256 _price, uint256 _tokenId)\r\n    public\r\n  {\r\n    /*\r\n    *   We give the contract the ability to transfer kitties\r\n    *   As the kitties will be in the market place we need to be able to transfert them\r\n    *   We are checking if the user is owning the kitty inside the approve function\r\n    */\r\n    require(_price > 0.009 ether, \"Cat price should be greater than 0.01\");\r\n    require(tokenIdToOffer[_tokenId].price == 0, \"You can't sell twice the same offers \");\r\n\r\n    approve(address(this), _tokenId);\r\n\r\n    Offer memory _offer = Offer({\r\n      seller: msg.sender,\r\n      price: _price,\r\n      tokenId: _tokenId\r\n    });\r\n\r\n    tokenIdToOffer[_tokenId] = _offer;\r\n\r\n    uint256 index = offers.push(_offer) - 1;\r\n\r\n    tokenIdToOfferId[_tokenId] = index;\r\n\r\n    emit MarketTransaction(\"Create offer\", msg.sender, _tokenId);\r\n  }\r\n\r\n  function removeOffer(uint256 _tokenId)\r\n    public\r\n  {\r\n    require(_owns(msg.sender, _tokenId), \"The user doesn't own the token\");\r\n\r\n    Offer memory offer = tokenIdToOffer[_tokenId];\r\n\r\n    require(offer.seller == msg.sender, \"You should own the kitty to be able to remove this offer\");\r\n\r\n    /* we delete the offer info */\r\n    delete offers[tokenIdToOfferId[_tokenId]];\r\n\r\n    /* Remove the offer in the mapping*/\r\n    delete tokenIdToOffer[_tokenId];\r\n\r\n\r\n    _deleteApproval(_tokenId);\r\n\r\n    emit MarketTransaction(\"Remove offer\", msg.sender, _tokenId);\r\n  }\r\n\r\n  function buyKitty(uint256 _tokenId)\r\n    public\r\n    payable\r\n  {\r\n    Offer memory offer = tokenIdToOffer[_tokenId];\r\n    require(msg.value == offer.price, \"The price is not correct\");\r\n\r\n    /* we delete the offer info */\r\n    delete offers[tokenIdToOfferId[_tokenId]];\r\n\r\n    /* Remove the offer in the mapping*/\r\n    delete tokenIdToOffer[_tokenId];\r\n\r\n    /* TMP REMOVE THIS*/\r\n    _approve(_tokenId, msg.sender);\r\n\r\n\r\n    transferFrom(offer.seller, msg.sender, _tokenId);\r\n\r\n    offer.seller.transfer(msg.value);\r\n    emit MarketTransaction(\"Buy\", msg.sender, _tokenId);\r\n  }\r\n}\r\n",
  "sourcePath": "D:\\Documents\\GitHub\\academy-cryptokitties\\contracts\\KittyMarketPlace.sol",
  "compiler": {
    "name": "solc",
    "version": "0.5.12+commit.7709ece9.Emscripten.clang"
  },
  "schemaVersion": "3.4.10",
  "updatedAt": "2022-09-24T21:21:47.876Z",
  "devdoc": {
    "methods": {}
  },
  "userdoc": {
    "methods": {}
  }
}