{
  "contractName": "KittyFactory",
  "abi": [
    {
      "constant": true,
      "inputs": [
        {
          "name": "",
          "type": "uint256"
        }
      ],
      "name": "kittyIndexToApproved",
      "outputs": [
        {
          "name": "",
          "type": "address"
        }
      ],
      "payable": false,
      "stateMutability": "view",
      "type": "function"
    },
    {
      "constant": true,
      "inputs": [
        {
          "name": "",
          "type": "uint256"
        }
      ],
      "name": "kittyIndexToOwner",
      "outputs": [
        {
          "name": "",
          "type": "address"
        }
      ],
      "payable": false,
      "stateMutability": "view",
      "type": "function"
    },
    {
      "anonymous": false,
      "inputs": [
        {
          "indexed": false,
          "name": "owner",
          "type": "address"
        },
        {
          "indexed": false,
          "name": "kittyId",
          "type": "uint256"
        },
        {
          "indexed": false,
          "name": "mumId",
          "type": "uint256"
        },
        {
          "indexed": false,
          "name": "dadId",
          "type": "uint256"
        },
        {
          "indexed": false,
          "name": "genes",
          "type": "uint256"
        }
      ],
      "name": "Birth",
      "type": "event"
    },
    {
      "anonymous": false,
      "inputs": [
        {
          "indexed": false,
          "name": "from",
          "type": "address"
        },
        {
          "indexed": false,
          "name": "to",
          "type": "address"
        },
        {
          "indexed": false,
          "name": "tokenId",
          "type": "uint256"
        }
      ],
      "name": "Transfer",
      "type": "event"
    }
  ],
  "bytecode": "0x608060405234801561001057600080fd5b506101d9806100206000396000f3fe60806040526004361061004c576000357c0100000000000000000000000000000000000000000000000000000000900463ffffffff168063481af3d314610051578063a45f4bfc146100cc575b600080fd5b34801561005d57600080fd5b5061008a6004803603602081101561007457600080fd5b8101908080359060200190929190505050610147565b604051808273ffffffffffffffffffffffffffffffffffffffff1673ffffffffffffffffffffffffffffffffffffffff16815260200191505060405180910390f35b3480156100d857600080fd5b50610105600480360360208110156100ef57600080fd5b810190808035906020019092919050505061017a565b604051808273ffffffffffffffffffffffffffffffffffffffff1673ffffffffffffffffffffffffffffffffffffffff16815260200191505060405180910390f35b60036020528060005260406000206000915054906101000a900473ffffffffffffffffffffffffffffffffffffffff1681565b60016020528060005260406000206000915054906101000a900473ffffffffffffffffffffffffffffffffffffffff168156fea165627a7a72305820235eb28576e14a5e85b598851fe7789409406f1e762919845b1c322d28646bc20029",
  "source": "pragma solidity ^0.5.0;\n\ncontract KittyFactory {\n\n  /*\n  *   A new cat is born\n  */\n  event Birth(address owner, uint256 kittyId, uint256 mumId, uint256 dadId, uint256 genes);\n\n  /*\n  *   A cat has been transfer\n  */\n  event Transfer(address from, address to, uint256 tokenId);\n\n  /*\n  *   Here we will use the same structure as the original crypto kitties game\n  *   As it fit exactly into two bit words\n  */\n  struct Kitty {\n\n      uint256 genes;\n      uint64 birthTime;\n      uint32 mumId;\n      uint32 dadId;\n      uint16 generation;\n  }\n\n  Kitty[] kitties;\n\n  mapping (uint256 => address) public kittyIndexToOwner;\n  mapping (address => uint256) ownershipTokenCount;\n\n  // Add a list of approved kitties, that are allowed to be transfered\n  mapping (uint256 => address) public kittyIndexToApproved;\n\n  function _createKitty(\n      uint256 _mumId,\n      uint256 _dadId,\n      uint256 _generation,\n      uint256 _genes,\n      address _owner\n  )\n      internal\n      returns (uint)\n  {\n\n    Kitty memory _kitty = Kitty({\n        genes: _genes,\n        birthTime: uint64(now),\n        mumId: uint32(_mumId),\n        dadId: uint32(_dadId),\n        generation: uint16(_generation)\n    });\n\n    uint256 newKittenId = kitties.push(_kitty) - 1;\n\n    // It's probably never going to happen, 4 billion cats is A LOT, but\n    // let's just be 100% sure we never let this happen.\n    require(newKittenId == uint256(uint32(newKittenId)));\n\n    // emit the birth event\n    emit Birth(\n        _owner,\n        newKittenId,\n        uint256(_kitty.mumId),\n        uint256(_kitty.dadId),\n        _kitty.genes\n    );\n\n    // This will assign ownership, and also emit the Transfer event as\n    // per ERC721 draft\n    _transfer(address(0), _owner, newKittenId);\n    return newKittenId;\n  }\n\n  function _transfer(address _from, address _to, uint256 _tokenId) internal {\n\n    // Since the number of kittens is capped to 2^32 we can't overflow this\n    ownershipTokenCount[_to]++;\n    // transfer ownership\n    kittyIndexToOwner[_tokenId] = _to;\n\n    if (_from != address(0)) {\n        ownershipTokenCount[_from]--;\n\n        delete kittyIndexToApproved[_tokenId];\n    }\n\n    // Emit the transfer event.\n    emit Transfer(_from, _to, _tokenId);\n  }\n}\n",
  "sourcePath": "/Users/dan/Documents/Coding/Solidity/New_Projects/academy-cryptokitties/contracts/KittyFactory.sol",
  "compiler": {
    "name": "solc",
    "version": "0.5.0+commit.1d4f565a.Emscripten.clang"
  },
  "schemaVersion": "3.0.23",
  "updatedAt": "2020-07-05T13:15:57.822Z",
  "devdoc": {
    "methods": {}
  },
  "userdoc": {
    "methods": {}
  }
}