{
  "contractName": "KittyOwnership",
  "abi": [
    {
      "anonymous": false,
      "inputs": [
        {
          "indexed": false,
          "internalType": "address",
          "name": "owner",
          "type": "address"
        },
        {
          "indexed": false,
          "internalType": "address",
          "name": "approved",
          "type": "address"
        },
        {
          "indexed": false,
          "internalType": "uint256",
          "name": "tokenId",
          "type": "uint256"
        }
      ],
      "name": "Approval",
      "type": "event"
    },
    {
      "anonymous": false,
      "inputs": [
        {
          "indexed": false,
          "internalType": "address",
          "name": "owner",
          "type": "address"
        },
        {
          "indexed": false,
          "internalType": "uint256",
          "name": "kittyId",
          "type": "uint256"
        },
        {
          "indexed": false,
          "internalType": "uint256",
          "name": "mumId",
          "type": "uint256"
        },
        {
          "indexed": false,
          "internalType": "uint256",
          "name": "dadId",
          "type": "uint256"
        },
        {
          "indexed": false,
          "internalType": "uint256",
          "name": "genes",
          "type": "uint256"
        }
      ],
      "name": "Birth",
      "type": "event"
    },
    {
      "anonymous": false,
      "inputs": [
        {
          "indexed": false,
          "internalType": "address",
          "name": "from",
          "type": "address"
        },
        {
          "indexed": false,
          "internalType": "address",
          "name": "to",
          "type": "address"
        },
        {
          "indexed": false,
          "internalType": "uint256",
          "name": "tokenId",
          "type": "uint256"
        }
      ],
      "name": "Transfer",
      "type": "event"
    },
    {
      "constant": true,
      "inputs": [
        {
          "internalType": "uint256",
          "name": "",
          "type": "uint256"
        }
      ],
      "name": "kittyIndexToApproved",
      "outputs": [
        {
          "internalType": "address",
          "name": "",
          "type": "address"
        }
      ],
      "payable": false,
      "stateMutability": "view",
      "type": "function"
    },
    {
      "constant": true,
      "inputs": [
        {
          "internalType": "uint256",
          "name": "",
          "type": "uint256"
        }
      ],
      "name": "kittyIndexToOwner",
      "outputs": [
        {
          "internalType": "address",
          "name": "",
          "type": "address"
        }
      ],
      "payable": false,
      "stateMutability": "view",
      "type": "function"
    },
    {
      "constant": true,
      "inputs": [],
      "name": "name",
      "outputs": [
        {
          "internalType": "string",
          "name": "",
          "type": "string"
        }
      ],
      "payable": false,
      "stateMutability": "view",
      "type": "function"
    },
    {
      "constant": true,
      "inputs": [],
      "name": "symbol",
      "outputs": [
        {
          "internalType": "string",
          "name": "",
          "type": "string"
        }
      ],
      "payable": false,
      "stateMutability": "view",
      "type": "function"
    },
    {
      "constant": true,
      "inputs": [
        {
          "internalType": "bytes4",
          "name": "_interfaceID",
          "type": "bytes4"
        }
      ],
      "name": "supportsInterface",
      "outputs": [
        {
          "internalType": "bool",
          "name": "",
          "type": "bool"
        }
      ],
      "payable": false,
      "stateMutability": "pure",
      "type": "function"
    },
    {
      "constant": true,
      "inputs": [],
      "name": "totalSupply",
      "outputs": [
        {
          "internalType": "uint256",
          "name": "",
          "type": "uint256"
        }
      ],
      "payable": false,
      "stateMutability": "view",
      "type": "function"
    },
    {
      "constant": true,
      "inputs": [
        {
          "internalType": "address",
          "name": "_owner",
          "type": "address"
        }
      ],
      "name": "balanceOf",
      "outputs": [
        {
          "internalType": "uint256",
          "name": "count",
          "type": "uint256"
        }
      ],
      "payable": false,
      "stateMutability": "view",
      "type": "function"
    },
    {
      "constant": true,
      "inputs": [
        {
          "internalType": "uint256",
          "name": "_tokenId",
          "type": "uint256"
        }
      ],
      "name": "ownerOf",
      "outputs": [
        {
          "internalType": "address",
          "name": "owner",
          "type": "address"
        }
      ],
      "payable": false,
      "stateMutability": "view",
      "type": "function"
    },
    {
      "constant": false,
      "inputs": [
        {
          "internalType": "address",
          "name": "_to",
          "type": "address"
        },
        {
          "internalType": "uint256",
          "name": "_tokenId",
          "type": "uint256"
        }
      ],
      "name": "approve",
      "outputs": [],
      "payable": false,
      "stateMutability": "nonpayable",
      "type": "function"
    },
    {
      "constant": false,
      "inputs": [
        {
          "internalType": "address",
          "name": "_to",
          "type": "address"
        },
        {
          "internalType": "uint256",
          "name": "_tokenId",
          "type": "uint256"
        }
      ],
      "name": "transfer",
      "outputs": [],
      "payable": false,
      "stateMutability": "nonpayable",
      "type": "function"
    },
    {
      "constant": false,
      "inputs": [
        {
          "internalType": "address",
          "name": "_from",
          "type": "address"
        },
        {
          "internalType": "address",
          "name": "_to",
          "type": "address"
        },
        {
          "internalType": "uint256",
          "name": "_tokenId",
          "type": "uint256"
        }
      ],
      "name": "transferFrom",
      "outputs": [],
      "payable": false,
      "stateMutability": "nonpayable",
      "type": "function"
    },
    {
      "constant": true,
      "inputs": [
        {
          "internalType": "address",
          "name": "_owner",
          "type": "address"
        }
      ],
      "name": "tokensOfOwner",
      "outputs": [
        {
          "internalType": "uint256[]",
          "name": "ownerTokens",
          "type": "uint256[]"
        }
      ],
      "payable": false,
      "stateMutability": "view",
      "type": "function"
    }
  ],
  "bytecode": "0x608060405234801561001057600080fd5b50611059806100206000396000f3fe608060405234801561001057600080fd5b50600436106100b45760003560e01c80636352211e116100715780636352211e146102e957806370a08231146103575780638462151c146103af57806395d89b4114610448578063a45f4bfc146104cb578063a9059cbb14610539576100b4565b806301ffc9a7146100b957806306fdde031461011e578063095ea7b3146101a157806318160ddd146101ef57806323b872dd1461020d578063481af3d31461027b575b600080fd5b610104600480360360208110156100cf57600080fd5b8101908080357bffffffffffffffffffffffffffffffffffffffffffffffffffffffff19169060200190929190505050610587565b604051808215151515815260200191505060405180910390f35b610126610855565b6040518080602001828103825283818151815260200191508051906020019080838360005b8381101561016657808201518184015260208101905061014b565b50505050905090810190601f1680156101935780820380516001836020036101000a031916815260200191505b509250505060405180910390f35b6101ed600480360360408110156101b757600080fd5b81019080803573ffffffffffffffffffffffffffffffffffffffff1690602001909291908035906020019092919050505061088e565b005b6101f761094e565b6040518082815260200191505060405180910390f35b6102796004803603606081101561022357600080fd5b81019080803573ffffffffffffffffffffffffffffffffffffffff169060200190929190803573ffffffffffffffffffffffffffffffffffffffff1690602001909291908035906020019092919050505061095e565b005b6102a76004803603602081101561029157600080fd5b81019080803590602001909291905050506109ce565b604051808273ffffffffffffffffffffffffffffffffffffffff1673ffffffffffffffffffffffffffffffffffffffff16815260200191505060405180910390f35b610315600480360360208110156102ff57600080fd5b8101908080359060200190929190505050610a01565b604051808273ffffffffffffffffffffffffffffffffffffffff1673ffffffffffffffffffffffffffffffffffffffff16815260200191505060405180910390f35b6103996004803603602081101561036d57600080fd5b81019080803573ffffffffffffffffffffffffffffffffffffffff169060200190929190505050610a78565b6040518082815260200191505060405180910390f35b6103f1600480360360208110156103c557600080fd5b81019080803573ffffffffffffffffffffffffffffffffffffffff169060200190929190505050610ac1565b6040518080602001828103825283818151815260200191508051906020019060200280838360005b83811015610434578082015181840152602081019050610419565b505050509050019250505060405180910390f35b610450610c09565b6040518080602001828103825283818151815260200191508051906020019080838360005b83811015610490578082015181840152602081019050610475565b50505050905090810190601f1680156104bd5780820380516001836020036101000a031916815260200191505b509250505060405180910390f35b6104f7600480360360208110156104e157600080fd5b8101908080359060200190929190505050610c42565b604051808273ffffffffffffffffffffffffffffffffffffffff1673ffffffffffffffffffffffffffffffffffffffff16815260200191505060405180910390f35b6105856004803603604081101561054f57600080fd5b81019080803573ffffffffffffffffffffffffffffffffffffffff16906020019092919080359060200190929190505050610c75565b005b600060405180807f737570706f727473496e74657266616365286279746573342900000000000000815250601901905060405180910390207bffffffffffffffffffffffffffffffffffffffffffffffffffffffff1916827bffffffffffffffffffffffffffffffffffffffffffffffffffffffff1916148061084e575060405180807f746f6b656e4d657461646174612875696e743235362c737472696e6729000000815250601d019050604051809103902060405180807f746f6b656e734f664f776e657228616464726573732900000000000000000000815250601601905060405180910390206040518080611000602591396025019050604051809103902060405180807f7472616e7366657228616464726573732c75696e7432353629000000000000008152506019019050604051809103902060405180807f617070726f766528616464726573732c75696e743235362900000000000000008152506018019050604051809103902060405180807f6f776e65724f662875696e7432353629000000000000000000000000000000008152506010019050604051809103902060405180807f62616c616e63654f6628616464726573732900000000000000000000000000008152506012019050604051809103902060405180807f746f74616c537570706c79282900000000000000000000000000000000000000815250600d019050604051809103902060405180807f73796d626f6c28290000000000000000000000000000000000000000000000008152506008019050604051809103902060405180807f6e616d6528290000000000000000000000000000000000000000000000000000815250600601905060405180910390201818181818181818187bffffffffffffffffffffffffffffffffffffffffffffffffffffffff1916827bffffffffffffffffffffffffffffffffffffffffffffffffffffffff1916145b9050919050565b6040518060400160405280600b81526020017f4976616e4b69747469657300000000000000000000000000000000000000000081525081565b6108983382610cd1565b6108a157600080fd5b6108ab8183610d3d565b7f8c5be1e5ebec7d5bd14f71427d1e84f3dd0314c0f7b2291e5b200ac8c7c3b925338383604051808473ffffffffffffffffffffffffffffffffffffffff1673ffffffffffffffffffffffffffffffffffffffff1681526020018373ffffffffffffffffffffffffffffffffffffffff1673ffffffffffffffffffffffffffffffffffffffff168152602001828152602001935050505060405180910390a15050565b6000600160008054905003905090565b600073ffffffffffffffffffffffffffffffffffffffff168273ffffffffffffffffffffffffffffffffffffffff16141561099857600080fd5b6109a23382610d93565b6109ab57600080fd5b6109b58382610cd1565b6109be57600080fd5b6109c9838383610dff565b505050565b60036020528060005260406000206000915054906101000a900473ffffffffffffffffffffffffffffffffffffffff1681565b60006001600083815260200190815260200160002060009054906101000a900473ffffffffffffffffffffffffffffffffffffffff169050600073ffffffffffffffffffffffffffffffffffffffff168173ffffffffffffffffffffffffffffffffffffffff161415610a7357600080fd5b919050565b6000600260008373ffffffffffffffffffffffffffffffffffffffff1673ffffffffffffffffffffffffffffffffffffffff168152602001908152602001600020549050919050565b60606000610ace83610a78565b90506000811415610b12576000604051908082528060200260200182016040528015610b095781602001602082028038833980820191505090505b50915050610c04565b606081604051908082528060200260200182016040528015610b435781602001602082028038833980820191505090505b5090506000610b5061094e565b905060008090506000600190505b828111610bfb578673ffffffffffffffffffffffffffffffffffffffff166001600083815260200190815260200160002060009054906101000a900473ffffffffffffffffffffffffffffffffffffffff1673ffffffffffffffffffffffffffffffffffffffff161415610bee5780848381518110610bd957fe5b60200260200101818152505081806001019250505b8080600101915050610b5e565b83955050505050505b919050565b6040518060400160405280600281526020017f434b00000000000000000000000000000000000000000000000000000000000081525081565b60016020528060005260406000206000915054906101000a900473ffffffffffffffffffffffffffffffffffffffff1681565b600073ffffffffffffffffffffffffffffffffffffffff168273ffffffffffffffffffffffffffffffffffffffff161415610caf57600080fd5b610cb93382610cd1565b610cc257600080fd5b610ccd338383610dff565b5050565b60008273ffffffffffffffffffffffffffffffffffffffff166001600084815260200190815260200160002060009054906101000a900473ffffffffffffffffffffffffffffffffffffffff1673ffffffffffffffffffffffffffffffffffffffff1614905092915050565b806003600084815260200190815260200160002060006101000a81548173ffffffffffffffffffffffffffffffffffffffff021916908373ffffffffffffffffffffffffffffffffffffffff1602179055505050565b60008273ffffffffffffffffffffffffffffffffffffffff166003600084815260200190815260200160002060009054906101000a900473ffffffffffffffffffffffffffffffffffffffff1673ffffffffffffffffffffffffffffffffffffffff1614905092915050565b600260008373ffffffffffffffffffffffffffffffffffffffff1673ffffffffffffffffffffffffffffffffffffffff16815260200190815260200160002060008154809291906001019190505550816001600083815260200190815260200160002060006101000a81548173ffffffffffffffffffffffffffffffffffffffff021916908373ffffffffffffffffffffffffffffffffffffffff160217905550600073ffffffffffffffffffffffffffffffffffffffff168373ffffffffffffffffffffffffffffffffffffffff1614610f5b57600260008473ffffffffffffffffffffffffffffffffffffffff1673ffffffffffffffffffffffffffffffffffffffff16815260200190815260200160002060008154809291906001900391905055506003600082815260200190815260200160002060006101000a81549073ffffffffffffffffffffffffffffffffffffffff02191690555b7fddf252ad1be2c89b69c2b068fc378daa952ba7f163c4a11628f55a4df523b3ef838383604051808473ffffffffffffffffffffffffffffffffffffffff1673ffffffffffffffffffffffffffffffffffffffff1681526020018373ffffffffffffffffffffffffffffffffffffffff1673ffffffffffffffffffffffffffffffffffffffff168152602001828152602001935050505060405180910390a150505056fe7472616e7366657246726f6d28616464726573732c616464726573732c75696e7432353629a265627a7a723158205719ea189b5e9f1a15ca1b7102216ebc36f55da269602c3550516f841264912a64736f6c634300050c0032",
  "source": "pragma solidity ^0.5.0;\r\n\r\nimport \"./KittyFactory.sol\";\r\n\r\ncontract KittyOwnership is KittyFactory{\r\n\r\n  string public constant name = \"IvanKitties\";\r\n  string public constant symbol = \"CK\";\r\n\r\n  event Transfer(address from, address to, uint256 tokenId);\r\n  event Approval(address owner, address approved, uint256 tokenId);\r\n\r\n  /*\r\n  *    We use the modulo of each function to set the interfaceId\r\n  */\r\n  bytes4 constant InterfaceSignature_ERC165 =\r\n      bytes4(keccak256('supportsInterface(bytes4)'));\r\n\r\n  bytes4 constant InterfaceSignature_ERC721 =\r\n      bytes4(keccak256('name()')) ^\r\n      bytes4(keccak256('symbol()')) ^\r\n      bytes4(keccak256('totalSupply()')) ^\r\n      bytes4(keccak256('balanceOf(address)')) ^\r\n      bytes4(keccak256('ownerOf(uint256)')) ^\r\n      bytes4(keccak256('approve(address,uint256)')) ^\r\n      bytes4(keccak256('transfer(address,uint256)')) ^\r\n      bytes4(keccak256('transferFrom(address,address,uint256)')) ^\r\n      bytes4(keccak256('tokensOfOwner(address)')) ^\r\n      bytes4(keccak256('tokenMetadata(uint256,string)'));\r\n\r\n  function supportsInterface(bytes4 _interfaceID) external pure returns (bool)\r\n  {\r\n      return ((_interfaceID == InterfaceSignature_ERC165) || (_interfaceID == InterfaceSignature_ERC721));\r\n  }\r\n\r\n  function _owns(address _claimant, uint256 _tokenId) internal view returns (bool) {\r\n      return kittyIndexToOwner[_tokenId] == _claimant;\r\n  }\r\n\r\n  function _approvedFor(address _claimant, uint256 _tokenId) internal view returns (bool) {\r\n      return kittyIndexToApproved[_tokenId] == _claimant;\r\n  }\r\n\r\n  function _approve(uint256 _tokenId, address _approved) internal {\r\n      kittyIndexToApproved[_tokenId] = _approved;\r\n  }\r\n\r\n  function _deleteApproval(uint256 _tokenId) internal {\r\n      require(_owns(msg.sender, _tokenId));\r\n      delete kittyIndexToApproved[_tokenId];\r\n  }\r\n\r\n\r\n  /*\r\n  *   Function required by the erc 721 interface\r\n  */\r\n\r\n  function totalSupply() public view returns (uint) {\r\n      return kitties.length - 1;\r\n  }\r\n\r\n  function balanceOf(address _owner) public view returns (uint256 count) {\r\n      return ownershipTokenCount[_owner];\r\n  }\r\n\r\n  function ownerOf(uint256 _tokenId)\r\n      external\r\n      view\r\n      returns (address owner)\r\n  {\r\n      owner = kittyIndexToOwner[_tokenId];\r\n\r\n      require(owner != address(0));\r\n  }\r\n\r\n  function approve(\r\n      address _to,\r\n      uint256 _tokenId\r\n  )\r\n      public\r\n  {\r\n      require(_owns(msg.sender, _tokenId));\r\n\r\n      _approve(_tokenId, _to);\r\n      emit Approval(msg.sender, _to, _tokenId);\r\n  }\r\n\r\n  function transfer(\r\n      address _to,\r\n      uint256 _tokenId\r\n  )\r\n      public\r\n  {\r\n      require(_to != address(0));\r\n      require(_owns(msg.sender, _tokenId));\r\n\r\n      _transfer(msg.sender, _to, _tokenId);\r\n  }\r\n\r\n  function transferFrom(\r\n      address _from,\r\n      address _to,\r\n      uint256 _tokenId\r\n  )\r\n      public\r\n  {\r\n      require(_to != address(0));\r\n      require(_approvedFor(msg.sender, _tokenId));\r\n      require(_owns(_from, _tokenId));\r\n\r\n      _transfer(_from, _to, _tokenId);\r\n  }\r\n\r\n  function tokensOfOwner(address _owner) public view returns(uint256[] memory ownerTokens) {\r\n    uint256 tokenCount = balanceOf(_owner);\r\n\r\n    if (tokenCount == 0) {\r\n        return new uint256[](0);\r\n    } else {\r\n        uint256[] memory result = new uint256[](tokenCount);\r\n        uint256 totalCats = totalSupply();\r\n        uint256 resultIndex = 0;\r\n\r\n        uint256 catId;\r\n\r\n        for (catId = 1; catId <= totalCats; catId++) {\r\n            if (kittyIndexToOwner[catId] == _owner) {\r\n                result[resultIndex] = catId;\r\n                resultIndex++;\r\n            }\r\n        }\r\n\r\n        return result;\r\n    }\r\n  }\r\n}",
  "sourcePath": "D:\\Documents\\GitHub\\academy-cryptokitties\\contracts\\KittyOwnership.sol",
  "compiler": {
    "name": "solc",
    "version": "0.5.12+commit.7709ece9.Emscripten.clang"
  },
  "schemaVersion": "3.4.10",
  "updatedAt": "2022-09-24T21:21:47.880Z",
  "devdoc": {
    "methods": {}
  },
  "userdoc": {
    "methods": {}
  }
}