{
  "contractName": "KittyCore",
  "abi": [
    {
      "inputs": [
        {
          "internalType": "address",
          "name": "_vrfCoordinator",
          "type": "address"
        },
        {
          "internalType": "address",
          "name": "_link",
          "type": "address"
        }
      ],
      "payable": false,
      "stateMutability": "nonpayable",
      "type": "constructor"
    },
    {
      "anonymous": false,
      "inputs": [
        {
          "indexed": false,
          "internalType": "address",
          "name": "owner",
          "type": "address"
        },
        {
          "indexed": false,
          "internalType": "address",
          "name": "approved",
          "type": "address"
        },
        {
          "indexed": false,
          "internalType": "uint256",
          "name": "tokenId",
          "type": "uint256"
        }
      ],
      "name": "Approval",
      "type": "event"
    },
    {
      "anonymous": false,
      "inputs": [
        {
          "indexed": false,
          "internalType": "address",
          "name": "owner",
          "type": "address"
        },
        {
          "indexed": false,
          "internalType": "uint256",
          "name": "kittyId",
          "type": "uint256"
        },
        {
          "indexed": false,
          "internalType": "uint256",
          "name": "mumId",
          "type": "uint256"
        },
        {
          "indexed": false,
          "internalType": "uint256",
          "name": "dadId",
          "type": "uint256"
        },
        {
          "indexed": false,
          "internalType": "uint256",
          "name": "genes",
          "type": "uint256"
        }
      ],
      "name": "Birth",
      "type": "event"
    },
    {
      "anonymous": false,
      "inputs": [
        {
          "indexed": false,
          "internalType": "string",
          "name": "TxType",
          "type": "string"
        },
        {
          "indexed": false,
          "internalType": "address",
          "name": "owner",
          "type": "address"
        },
        {
          "indexed": false,
          "internalType": "uint256",
          "name": "tokenId",
          "type": "uint256"
        }
      ],
      "name": "MarketTransaction",
      "type": "event"
    },
    {
      "anonymous": false,
      "inputs": [
        {
          "indexed": true,
          "internalType": "bytes32",
          "name": "requestId",
          "type": "bytes32"
        },
        {
          "indexed": false,
          "internalType": "bytes32",
          "name": "keyHash",
          "type": "bytes32"
        },
        {
          "indexed": false,
          "internalType": "uint256",
          "name": "seed",
          "type": "uint256"
        }
      ],
      "name": "RequestRandomness",
      "type": "event"
    },
    {
      "anonymous": false,
      "inputs": [
        {
          "indexed": true,
          "internalType": "bytes32",
          "name": "requestId",
          "type": "bytes32"
        },
        {
          "indexed": false,
          "internalType": "uint256",
          "name": "randomness",
          "type": "uint256"
        }
      ],
      "name": "RequestRandomnessFulfilled",
      "type": "event"
    },
    {
      "anonymous": false,
      "inputs": [
        {
          "indexed": false,
          "internalType": "address",
          "name": "from",
          "type": "address"
        },
        {
          "indexed": false,
          "internalType": "address",
          "name": "to",
          "type": "address"
        },
        {
          "indexed": false,
          "internalType": "uint256",
          "name": "tokenId",
          "type": "uint256"
        }
      ],
      "name": "Transfer",
      "type": "event"
    },
    {
      "constant": true,
      "inputs": [],
      "name": "CREATION_LIMIT_GEN0",
      "outputs": [
        {
          "internalType": "uint256",
          "name": "",
          "type": "uint256"
        }
      ],
      "payable": false,
      "stateMutability": "view",
      "type": "function"
    },
    {
      "constant": false,
      "inputs": [
        {
          "internalType": "address",
          "name": "_to",
          "type": "address"
        },
        {
          "internalType": "uint256",
          "name": "_tokenId",
          "type": "uint256"
        }
      ],
      "name": "approve",
      "outputs": [],
      "payable": false,
      "stateMutability": "nonpayable",
      "type": "function"
    },
    {
      "constant": true,
      "inputs": [
        {
          "internalType": "address",
          "name": "_owner",
          "type": "address"
        }
      ],
      "name": "balanceOf",
      "outputs": [
        {
          "internalType": "uint256",
          "name": "count",
          "type": "uint256"
        }
      ],
      "payable": false,
      "stateMutability": "view",
      "type": "function"
    },
    {
      "constant": false,
      "inputs": [
        {
          "internalType": "uint256",
          "name": "_tokenId",
          "type": "uint256"
        }
      ],
      "name": "buyKitty",
      "outputs": [],
      "payable": true,
      "stateMutability": "payable",
      "type": "function"
    },
    {
      "constant": true,
      "inputs": [],
      "name": "gen0Counter",
      "outputs": [
        {
          "internalType": "uint256",
          "name": "",
          "type": "uint256"
        }
      ],
      "payable": false,
      "stateMutability": "view",
      "type": "function"
    },
    {
      "constant": true,
      "inputs": [],
      "name": "getAllTokenOnSale",
      "outputs": [
        {
          "internalType": "uint256[]",
          "name": "listOfToken",
          "type": "uint256[]"
        }
      ],
      "payable": false,
      "stateMutability": "view",
      "type": "function"
    },
    {
      "constant": true,
      "inputs": [
        {
          "internalType": "uint256",
          "name": "_tokenId",
          "type": "uint256"
        }
      ],
      "name": "getOffer",
      "outputs": [
        {
          "internalType": "address",
          "name": "seller",
          "type": "address"
        },
        {
          "internalType": "uint256",
          "name": "price",
          "type": "uint256"
        },
        {
          "internalType": "uint256",
          "name": "tokenId",
          "type": "uint256"
        }
      ],
      "payable": false,
      "stateMutability": "view",
      "type": "function"
    },
    {
      "constant": true,
      "inputs": [
        {
          "internalType": "uint256",
          "name": "",
          "type": "uint256"
        }
      ],
      "name": "kittyIndexToApproved",
      "outputs": [
        {
          "internalType": "address",
          "name": "",
          "type": "address"
        }
      ],
      "payable": false,
      "stateMutability": "view",
      "type": "function"
    },
    {
      "constant": true,
      "inputs": [
        {
          "internalType": "uint256",
          "name": "",
          "type": "uint256"
        }
      ],
      "name": "kittyIndexToOwner",
      "outputs": [
        {
          "internalType": "address",
          "name": "",
          "type": "address"
        }
      ],
      "payable": false,
      "stateMutability": "view",
      "type": "function"
    },
    {
      "constant": true,
      "inputs": [],
      "name": "name",
      "outputs": [
        {
          "internalType": "string",
          "name": "",
          "type": "string"
        }
      ],
      "payable": false,
      "stateMutability": "view",
      "type": "function"
    },
    {
      "constant": true,
      "inputs": [
        {
          "internalType": "bytes32",
          "name": "",
          "type": "bytes32"
        }
      ],
      "name": "nonces",
      "outputs": [
        {
          "internalType": "uint256",
          "name": "",
          "type": "uint256"
        }
      ],
      "payable": false,
      "stateMutability": "view",
      "type": "function"
    },
    {
      "constant": true,
      "inputs": [],
      "name": "owner",
      "outputs": [
        {
          "internalType": "address",
          "name": "",
          "type": "address"
        }
      ],
      "payable": false,
      "stateMutability": "view",
      "type": "function"
    },
    {
      "constant": true,
      "inputs": [
        {
          "internalType": "uint256",
          "name": "_tokenId",
          "type": "uint256"
        }
      ],
      "name": "ownerOf",
      "outputs": [
        {
          "internalType": "address",
          "name": "owner",
          "type": "address"
        }
      ],
      "payable": false,
      "stateMutability": "view",
      "type": "function"
    },
    {
      "constant": false,
      "inputs": [
        {
          "internalType": "uint256",
          "name": "_tokenId",
          "type": "uint256"
        }
      ],
      "name": "removeOffer",
      "outputs": [],
      "payable": false,
      "stateMutability": "nonpayable",
      "type": "function"
    },
    {
      "constant": false,
      "inputs": [
        {
          "internalType": "bytes32",
          "name": "_keyHash",
          "type": "bytes32"
        },
        {
          "internalType": "uint256",
          "name": "_fee",
          "type": "uint256"
        },
        {
          "internalType": "uint256",
          "name": "_seed",
          "type": "uint256"
        }
      ],
      "name": "requestRandomness",
      "outputs": [
        {
          "internalType": "bytes32",
          "name": "requestId",
          "type": "bytes32"
        }
      ],
      "payable": false,
      "stateMutability": "nonpayable",
      "type": "function"
    },
    {
      "constant": false,
      "inputs": [
        {
          "internalType": "uint256",
          "name": "_price",
          "type": "uint256"
        },
        {
          "internalType": "uint256",
          "name": "_tokenId",
          "type": "uint256"
        }
      ],
      "name": "setOffer",
      "outputs": [],
      "payable": false,
      "stateMutability": "nonpayable",
      "type": "function"
    },
    {
      "constant": true,
      "inputs": [
        {
          "internalType": "bytes4",
          "name": "_interfaceID",
          "type": "bytes4"
        }
      ],
      "name": "supportsInterface",
      "outputs": [
        {
          "internalType": "bool",
          "name": "",
          "type": "bool"
        }
      ],
      "payable": false,
      "stateMutability": "pure",
      "type": "function"
    },
    {
      "constant": true,
      "inputs": [],
      "name": "symbol",
      "outputs": [
        {
          "internalType": "string",
          "name": "",
          "type": "string"
        }
      ],
      "payable": false,
      "stateMutability": "view",
      "type": "function"
    },
    {
      "constant": true,
      "inputs": [
        {
          "internalType": "address",
          "name": "_owner",
          "type": "address"
        }
      ],
      "name": "tokensOfOwner",
      "outputs": [
        {
          "internalType": "uint256[]",
          "name": "ownerTokens",
          "type": "uint256[]"
        }
      ],
      "payable": false,
      "stateMutability": "view",
      "type": "function"
    },
    {
      "constant": true,
      "inputs": [],
      "name": "totalSupply",
      "outputs": [
        {
          "internalType": "uint256",
          "name": "",
          "type": "uint256"
        }
      ],
      "payable": false,
      "stateMutability": "view",
      "type": "function"
    },
    {
      "constant": false,
      "inputs": [
        {
          "internalType": "address",
          "name": "_to",
          "type": "address"
        },
        {
          "internalType": "uint256",
          "name": "_tokenId",
          "type": "uint256"
        }
      ],
      "name": "transfer",
      "outputs": [],
      "payable": false,
      "stateMutability": "nonpayable",
      "type": "function"
    },
    {
      "constant": false,
      "inputs": [
        {
          "internalType": "address",
          "name": "_from",
          "type": "address"
        },
        {
          "internalType": "address",
          "name": "_to",
          "type": "address"
        },
        {
          "internalType": "uint256",
          "name": "_tokenId",
          "type": "uint256"
        }
      ],
      "name": "transferFrom",
      "outputs": [],
      "payable": false,
      "stateMutability": "nonpayable",
      "type": "function"
    },
    {
      "constant": false,
      "inputs": [
        {
          "internalType": "address",
          "name": "newOwner",
          "type": "address"
        }
      ],
      "name": "transferOwnership",
      "outputs": [],
      "payable": false,
      "stateMutability": "nonpayable",
      "type": "function"
    },
    {
      "constant": false,
      "inputs": [
        {
          "internalType": "bytes32",
          "name": "_requestId",
          "type": "bytes32"
        },
        {
          "internalType": "uint256",
          "name": "_randomness",
          "type": "uint256"
        }
      ],
      "name": "fulfillRandomness",
      "outputs": [],
      "payable": false,
      "stateMutability": "nonpayable",
      "type": "function"
    },
    {
      "constant": false,
      "inputs": [
        {
          "internalType": "uint256",
          "name": "_seed",
          "type": "uint256"
        },
        {
          "internalType": "uint256",
          "name": "_dadId",
          "type": "uint256"
        },
        {
          "internalType": "uint256",
          "name": "_mumId",
          "type": "uint256"
        }
      ],
      "name": "breed",
      "outputs": [],
      "payable": false,
      "stateMutability": "nonpayable",
      "type": "function"
    },
    {
      "constant": false,
      "inputs": [
        {
          "internalType": "bytes32",
          "name": "_requestId",
          "type": "bytes32"
        }
      ],
      "name": "Breeding",
      "outputs": [],
      "payable": false,
      "stateMutability": "nonpayable",
      "type": "function"
    },
    {
      "constant": false,
      "inputs": [
        {
          "internalType": "uint256",
          "name": "_genes",
          "type": "uint256"
        }
      ],
      "name": "createKittyGen0",
      "outputs": [],
      "payable": false,
      "stateMutability": "nonpayable",
      "type": "function"
    },
    {
      "constant": true,
      "inputs": [
        {
          "internalType": "uint256",
          "name": "_id",
          "type": "uint256"
        }
      ],
      "name": "getKitty",
      "outputs": [
        {
          "internalType": "uint256",
          "name": "genes",
          "type": "uint256"
        },
        {
          "internalType": "uint256",
          "name": "birthTime",
          "type": "uint256"
        },
        {
          "internalType": "uint256",
          "name": "mumId",
          "type": "uint256"
        },
        {
          "internalType": "uint256",
          "name": "dadId",
          "type": "uint256"
        },
        {
          "internalType": "uint256",
          "name": "generation",
          "type": "uint256"
        }
      ],
      "payable": false,
      "stateMutability": "view",
      "type": "function"
    },
    {
      "constant": false,
      "inputs": [
        {
          "internalType": "address",
          "name": "_new",
          "type": "address"
        }
      ],
      "name": "set_vrfCoordinator",
      "outputs": [
        {
          "internalType": "bool",
          "name": "",
          "type": "bool"
        }
      ],
      "payable": false,
      "stateMutability": "nonpayable",
      "type": "function"
    },
    {
      "constant": false,
      "inputs": [
        {
          "internalType": "address",
          "name": "_new",
          "type": "address"
        }
      ],
      "name": "set_link",
      "outputs": [
        {
          "internalType": "bool",
          "name": "",
          "type": "bool"
        }
      ],
      "payable": false,
      "stateMutability": "nonpayable",
      "type": "function"
    }
  ],
  "bytecode": "0x60806040523480156200001157600080fd5b5060405162003c4738038062003c47833981810160405260408110156200003757600080fd5b8101908080519060200190929190805190602001909291905050508181336000806101000a81548173ffffffffffffffffffffffffffffffffffffffff021916908373ffffffffffffffffffffffffffffffffffffffff16021790555081600960006101000a81548173ffffffffffffffffffffffffffffffffffffffff021916908373ffffffffffffffffffffffffffffffffffffffff16021790555080600860006101000a81548173ffffffffffffffffffffffffffffffffffffffff021916908373ffffffffffffffffffffffffffffffffffffffff160217905550505081600960006101000a81548173ffffffffffffffffffffffffffffffffffffffff021916908373ffffffffffffffffffffffffffffffffffffffff16021790555080600860006101000a81548173ffffffffffffffffffffffffffffffffffffffff021916908373ffffffffffffffffffffffffffffffffffffffff1602179055507fced103054e349b8dfb51352f0f8fa9b5d20dde3d06f9f43cb2b85bc64b23820560001b600c81905550670de0b6b3a7640000600d819055506200020b60008060007fffffffffffffffffffffffffffffffffffffffffffffffffffffffffffffffff60006200021460201b60201c565b5050506200065d565b60006200022062000614565b6040518060a001604052808581526020014267ffffffffffffffff1681526020018863ffffffff1681526020018763ffffffff1681526020018661ffff168152509050600060018083908060018154018082558091505090600182039060005260206000209060020201600090919290919091506000820151816000015560208201518160010160006101000a81548167ffffffffffffffff021916908367ffffffffffffffff16021790555060408201518160010160086101000a81548163ffffffff021916908363ffffffff160217905550606082015181600101600c6101000a81548163ffffffff021916908363ffffffff16021790555060808201518160010160106101000a81548161ffff021916908361ffff16021790555050500390508063ffffffff1681146200035657600080fd5b7f0a5311bd2a6608f08a180df2ee7c5946819a649b204b554bb8e39825b2c50ad58482846040015163ffffffff16856060015163ffffffff168660000151604051808673ffffffffffffffffffffffffffffffffffffffff1673ffffffffffffffffffffffffffffffffffffffff1681526020018581526020018481526020018381526020018281526020019550505050505060405180910390a162000405600085836200041360201b60201c565b809250505095945050505050565b600360008373ffffffffffffffffffffffffffffffffffffffff1673ffffffffffffffffffffffffffffffffffffffff16815260200190815260200160002060008154809291906001019190505550816002600083815260200190815260200160002060006101000a81548173ffffffffffffffffffffffffffffffffffffffff021916908373ffffffffffffffffffffffffffffffffffffffff160217905550600073ffffffffffffffffffffffffffffffffffffffff168373ffffffffffffffffffffffffffffffffffffffff16146200057057600360008473ffffffffffffffffffffffffffffffffffffffff1673ffffffffffffffffffffffffffffffffffffffff16815260200190815260200160002060008154809291906001900391905055506004600082815260200190815260200160002060006101000a81549073ffffffffffffffffffffffffffffffffffffffff02191690555b7fddf252ad1be2c89b69c2b068fc378daa952ba7f163c4a11628f55a4df523b3ef838383604051808473ffffffffffffffffffffffffffffffffffffffff1673ffffffffffffffffffffffffffffffffffffffff1681526020018373ffffffffffffffffffffffffffffffffffffffff1673ffffffffffffffffffffffffffffffffffffffff168152602001828152602001935050505060405180910390a1505050565b6040518060a0016040528060008152602001600067ffffffffffffffff168152602001600063ffffffff168152602001600063ffffffff168152602001600061ffff1681525090565b6135da806200066d6000396000f3fe6080604052600436106101cc5760003560e01c80638da5cb5b116100f7578063a9059cbb11610095578063dc6cfe1011610064578063dc6cfe1014610b8b578063e98b7f4d14610bee578063ef5e94aa14610c59578063f2fde38b14610c84576101cc565b8063a9059cbb14610a9c578063ae5310f614610af7578063b483433014610b25578063d5a776ca14610b50576101cc565b806395d89b41116100d157806395d89b41146108f35780639b5e1687146109835780639e317f12146109d2578063a45f4bfc14610a21576101cc565b80638da5cb5b1461081c578063941b055b1461087357806395a0f9c7146108b8576101cc565b80632dab50651161016f5780636352211e1161013e5780636352211e1461062d57806369d6a553146106a857806370a08231146107115780638462151c14610776576101cc565b80632dab5065146104825780634579268a146104bd578063481af3d31461054657806349b3709f146105c1576101cc565b8063095ea7b3116101ab578063095ea7b31461033c57806318160ddd146103975780631f1f897f146103c257806323b872dd14610407576101cc565b806288b11a146101d157806301ffc9a71461023a57806306fdde03146102ac575b600080fd5b3480156101dd57600080fd5b50610220600480360360208110156101f457600080fd5b81019080803573ffffffffffffffffffffffffffffffffffffffff169060200190929190505050610cd5565b604051808215151515815260200191505060405180910390f35b34801561024657600080fd5b506102926004803603602081101561025d57600080fd5b8101908080357bffffffffffffffffffffffffffffffffffffffffffffffffffffffff19169060200190929190505050610e1d565b604051808215151515815260200191505060405180910390f35b3480156102b857600080fd5b506102c16110eb565b6040518080602001828103825283818151815260200191508051906020019080838360005b838110156103015780820151818401526020810190506102e6565b50505050905090810190601f16801561032e5780820380516001836020036101000a031916815260200191505b509250505060405180910390f35b34801561034857600080fd5b506103956004803603604081101561035f57600080fd5b81019080803573ffffffffffffffffffffffffffffffffffffffff16906020019092919080359060200190929190505050611124565b005b3480156103a357600080fd5b506103ac6111e4565b6040518082815260200191505060405180910390f35b3480156103ce57600080fd5b50610405600480360360408110156103e557600080fd5b8101908080359060200190929190803590602001909291905050506111f3565b005b34801561041357600080fd5b506104806004803603606081101561042a57600080fd5b81019080803573ffffffffffffffffffffffffffffffffffffffff169060200190929190803573ffffffffffffffffffffffffffffffffffffffff16906020019092919080359060200190929190505050611266565b005b34801561048e57600080fd5b506104bb600480360360208110156104a557600080fd5b81019080803590602001909291905050506112d6565b005b3480156104c957600080fd5b506104f6600480360360208110156104e057600080fd5b810190808035906020019092919050505061154b565b604051808473ffffffffffffffffffffffffffffffffffffffff1673ffffffffffffffffffffffffffffffffffffffff168152602001838152602001828152602001935050505060405180910390f35b34801561055257600080fd5b5061057f6004803603602081101561056957600080fd5b81019080803590602001909291905050506115a6565b604051808273ffffffffffffffffffffffffffffffffffffffff1673ffffffffffffffffffffffffffffffffffffffff16815260200191505060405180910390f35b3480156105cd57600080fd5b506105d66115d9565b6040518080602001828103825283818151815260200191508051906020019060200280838360005b838110156106195780820151818401526020810190506105fe565b505050509050019250505060405180910390f35b34801561063957600080fd5b506106666004803603602081101561065057600080fd5b81019080803590602001909291905050506116de565b604051808273ffffffffffffffffffffffffffffffffffffffff1673ffffffffffffffffffffffffffffffffffffffff16815260200191505060405180910390f35b3480156106b457600080fd5b506106f7600480360360208110156106cb57600080fd5b81019080803573ffffffffffffffffffffffffffffffffffffffff169060200190929190505050611755565b604051808215151515815260200191505060405180910390f35b34801561071d57600080fd5b506107606004803603602081101561073457600080fd5b81019080803573ffffffffffffffffffffffffffffffffffffffff16906020019092919050505061189d565b6040518082815260200191505060405180910390f35b34801561078257600080fd5b506107c56004803603602081101561079957600080fd5b81019080803573ffffffffffffffffffffffffffffffffffffffff1690602001909291905050506118e6565b6040518080602001828103825283818151815260200191508051906020019060200280838360005b838110156108085780820151818401526020810190506107ed565b505050509050019250505060405180910390f35b34801561082857600080fd5b50610831611a2e565b604051808273ffffffffffffffffffffffffffffffffffffffff1673ffffffffffffffffffffffffffffffffffffffff16815260200191505060405180910390f35b34801561087f57600080fd5b506108b66004803603604081101561089657600080fd5b810190808035906020019092919080359060200190929190505050611a53565b005b3480156108c457600080fd5b506108f1600480360360208110156108db57600080fd5b8101908080359060200190929190505050611d2c565b005b3480156108ff57600080fd5b50610908612028565b6040518080602001828103825283818151815260200191508051906020019080838360005b8381101561094857808201518184015260208101905061092d565b50505050905090810190601f1680156109755780820380516001836020036101000a031916815260200191505b509250505060405180910390f35b34801561098f57600080fd5b506109d0600480360360608110156109a657600080fd5b81019080803590602001909291908035906020019092919080359060200190929190505050612061565b005b3480156109de57600080fd5b50610a0b600480360360208110156109f557600080fd5b810190808035906020019092919050505061233d565b6040518082815260200191505060405180910390f35b348015610a2d57600080fd5b50610a5a60048036036020811015610a4457600080fd5b8101908080359060200190929190505050612355565b604051808273ffffffffffffffffffffffffffffffffffffffff1673ffffffffffffffffffffffffffffffffffffffff16815260200191505060405180910390f35b348015610aa857600080fd5b50610af560048036036040811015610abf57600080fd5b81019080803573ffffffffffffffffffffffffffffffffffffffff16906020019092919080359060200190929190505050612388565b005b610b2360048036036020811015610b0d57600080fd5b81019080803590602001909291905050506123e4565b005b348015610b3157600080fd5b50610b3a6126b0565b6040518082815260200191505060405180910390f35b348015610b5c57600080fd5b50610b8960048036036020811015610b7357600080fd5b81019080803590602001909291905050506126b5565b005b348015610b9757600080fd5b50610bd860048036036060811015610bae57600080fd5b81019080803590602001909291908035906020019092919080359060200190929190505050612758565b6040518082815260200191505060405180910390f35b348015610bfa57600080fd5b50610c2760048036036020811015610c1157600080fd5b810190808035906020019092919050505061296a565b604051808681526020018581526020018481526020018381526020018281526020019550505050505060405180910390f35b348015610c6557600080fd5b50610c6e612ab1565b6040518082815260200191505060405180910390f35b348015610c9057600080fd5b50610cd360048036036020811015610ca757600080fd5b81019080803573ffffffffffffffffffffffffffffffffffffffff169060200190929190505050612ab7565b005b60008060009054906101000a900473ffffffffffffffffffffffffffffffffffffffff1673ffffffffffffffffffffffffffffffffffffffff163373ffffffffffffffffffffffffffffffffffffffff1614610d3057600080fd5b600073ffffffffffffffffffffffffffffffffffffffff168273ffffffffffffffffffffffffffffffffffffffff161415610dd3576040517f08c379a000000000000000000000000000000000000000000000000000000000815260040180806020018281038252600f8152602001807f496e76616c69642061646472657373000000000000000000000000000000000081525060200191505060405180910390fd5b81600860006101000a81548173ffffffffffffffffffffffffffffffffffffffff021916908373ffffffffffffffffffffffffffffffffffffffff16021790555060019050919050565b600060405180807f737570706f727473496e74657266616365286279746573342900000000000000815250601901905060405180910390207bffffffffffffffffffffffffffffffffffffffffffffffffffffffff1916827bffffffffffffffffffffffffffffffffffffffffffffffffffffffff191614806110e4575060405180807f746f6b656e4d657461646174612875696e743235362c737472696e6729000000815250601d019050604051809103902060405180807f746f6b656e734f664f776e6572286164647265737329000000000000000000008152506016019050604051809103902060405180806134ff602591396025019050604051809103902060405180807f7472616e7366657228616464726573732c75696e7432353629000000000000008152506019019050604051809103902060405180807f617070726f766528616464726573732c75696e743235362900000000000000008152506018019050604051809103902060405180807f6f776e65724f662875696e7432353629000000000000000000000000000000008152506010019050604051809103902060405180807f62616c616e63654f6628616464726573732900000000000000000000000000008152506012019050604051809103902060405180807f746f74616c537570706c79282900000000000000000000000000000000000000815250600d019050604051809103902060405180807f73796d626f6c28290000000000000000000000000000000000000000000000008152506008019050604051809103902060405180807f6e616d6528290000000000000000000000000000000000000000000000000000815250600601905060405180910390201818181818181818187bffffffffffffffffffffffffffffffffffffffffffffffffffffffff1916827bffffffffffffffffffffffffffffffffffffffffffffffffffffffff1916145b9050919050565b6040518060400160405280600b81526020017f4976616e4b69747469657300000000000000000000000000000000000000000081525081565b61112e3382612b88565b61113757600080fd5b6111418183612bf4565b7f8c5be1e5ebec7d5bd14f71427d1e84f3dd0314c0f7b2291e5b200ac8c7c3b925338383604051808473ffffffffffffffffffffffffffffffffffffffff1673ffffffffffffffffffffffffffffffffffffffff1681526020018373ffffffffffffffffffffffffffffffffffffffff1673ffffffffffffffffffffffffffffffffffffffff168152602001828152602001935050505060405180910390a15050565b60006001808054905003905090565b61120760ff82612c4a90919063ffffffff16565b600e600084815260200190815260200160002060030181905550817f258e8aab35e09293c36892d6c2e2ee63509c0ba72c3437d609e4f30109d3f16c826040518082815260200191505060405180910390a2611262826112d6565b5050565b600073ffffffffffffffffffffffffffffffffffffffff168273ffffffffffffffffffffffffffffffffffffffff1614156112a057600080fd5b6112aa3382612c94565b6112b357600080fd5b6112bd8382612b88565b6112c657600080fd5b6112d1838383612d00565b505050565b6000806112f8600e60008581526020019081526020016000206001015461296a565b94505050509150600080611321600e60008781526020019081526020016000206002015461296a565b94505050509150600061133261345b565b6000600790506000809050600190505b608081116113e157600081600e60008c8152602001908152602001600020600301541614611392576064868161137457fe5b0660ff1683836008811061138457fe5b6020020181815250506113b6565b6064888161139c57fe5b0660ff168383600881106113ac57fe5b6020020181815250505b606486816113c057fe5b049550606488816113cd57fe5b049750600182039150600281029050611342565b60006007600e60008c8152602001908152602001600020600301548161140357fe5b0690506063600e60008c8152602001908152602001600020600301548161142657fe5b0684826008811061143357fe5b602002018181525050600091505b600882101561147b5783826008811061145657fe5b6020020151850194506007821461146e576064850294505b8180600101925050611441565b6000809050868910156114a0576001870190506002818161149857fe5b0490506114c8565b868911156114c057600189019050600281816114b857fe5b0490506114c7565b6001870190505b5b6000600e60008d815260200190815260200160002060000160009054906101000a900473ffffffffffffffffffffffffffffffffffffffff16905061153c600e60008e815260200190815260200160002060020154600e60008f815260200190815260200160002060010154848a85612f00565b50505050505050505050505050565b6000806000806006600086815260200190815260200160002090508060000160009054906101000a900473ffffffffffffffffffffffffffffffffffffffff1681600101548260020154829250935093509350509193909250565b60046020528060005260406000206000915054906101000a900473ffffffffffffffffffffffffffffffffffffffff1681565b606060006005805490509050600081141561162757600060405190808252806020026020018201604052801561161e5781602001602082028038833980820191505090505b509150506116db565b6060816040519080825280602002602001820160405280156116585781602001602082028038833980820191505090505b50905060008090505b828110156116d45760006005828154811061167857fe5b906000526020600020906003020160010154146116c7576005818154811061169c57fe5b9060005260206000209060030201600201548282815181106116ba57fe5b6020026020010181815250505b8080600101915050611661565b8193505050505b90565b60006002600083815260200190815260200160002060009054906101000a900473ffffffffffffffffffffffffffffffffffffffff169050600073ffffffffffffffffffffffffffffffffffffffff168173ffffffffffffffffffffffffffffffffffffffff16141561175057600080fd5b919050565b60008060009054906101000a900473ffffffffffffffffffffffffffffffffffffffff1673ffffffffffffffffffffffffffffffffffffffff163373ffffffffffffffffffffffffffffffffffffffff16146117b057600080fd5b600073ffffffffffffffffffffffffffffffffffffffff168273ffffffffffffffffffffffffffffffffffffffff161415611853576040517f08c379a000000000000000000000000000000000000000000000000000000000815260040180806020018281038252600f8152602001807f496e76616c69642061646472657373000000000000000000000000000000000081525060200191505060405180910390fd5b81600960006101000a81548173ffffffffffffffffffffffffffffffffffffffff021916908373ffffffffffffffffffffffffffffffffffffffff16021790555060019050919050565b6000600360008373ffffffffffffffffffffffffffffffffffffffff1673ffffffffffffffffffffffffffffffffffffffff168152602001908152602001600020549050919050565b606060006118f38361189d565b9050600081141561193757600060405190808252806020026020018201604052801561192e5781602001602082028038833980820191505090505b50915050611a29565b6060816040519080825280602002602001820160405280156119685781602001602082028038833980820191505090505b50905060006119756111e4565b905060008090506000600190505b828111611a20578673ffffffffffffffffffffffffffffffffffffffff166002600083815260200190815260200160002060009054906101000a900473ffffffffffffffffffffffffffffffffffffffff1673ffffffffffffffffffffffffffffffffffffffff161415611a1357808483815181106119fe57fe5b60200260200101818152505081806001019250505b8080600101915050611983565b83955050505050505b919050565b6000809054906101000a900473ffffffffffffffffffffffffffffffffffffffff1681565b661ff973cafa80008211611ab2576040517f08c379a000000000000000000000000000000000000000000000000000000000815260040180806020018281038252602581526020018061355c6025913960400191505060405180910390fd5b6000600660008381526020019081526020016000206001015414611b21576040517f08c379a00000000000000000000000000000000000000000000000000000000081526004018080602001828103825260258152602001806135816025913960400191505060405180910390fd5b611b2b3082611124565b611b3361347e565b60405180606001604052803373ffffffffffffffffffffffffffffffffffffffff168152602001848152602001838152509050806006600084815260200190815260200160002060008201518160000160006101000a81548173ffffffffffffffffffffffffffffffffffffffff021916908373ffffffffffffffffffffffffffffffffffffffff1602179055506020820151816001015560408201518160020155905050600060016005839080600181540180825580915050906001820390600052602060002090600302016000909192909190915060008201518160000160006101000a81548173ffffffffffffffffffffffffffffffffffffffff021916908373ffffffffffffffffffffffffffffffffffffffff160217905550602082015181600101556040820151816002015550500390508060076000858152602001908152602001600020819055507fd99e4fad9ad6313b1feb588fa8e605e3a9873172f2024330c35dd2b4041a4386338460405180806020018473ffffffffffffffffffffffffffffffffffffffff1673ffffffffffffffffffffffffffffffffffffffff1681526020018381526020018281038252600c8152602001807f437265617465206f666665720000000000000000000000000000000000000000815250602001935050505060405180910390a150505050565b611d363382612b88565b611da8576040517f08c379a000000000000000000000000000000000000000000000000000000000815260040180806020018281038252601e8152602001807f546865207573657220646f65736e2774206f776e2074686520746f6b656e000081525060200191505060405180910390fd5b611db061347e565b600660008381526020019081526020016000206040518060600160405290816000820160009054906101000a900473ffffffffffffffffffffffffffffffffffffffff1673ffffffffffffffffffffffffffffffffffffffff1673ffffffffffffffffffffffffffffffffffffffff1681526020016001820154815260200160028201548152505090503373ffffffffffffffffffffffffffffffffffffffff16816000015173ffffffffffffffffffffffffffffffffffffffff1614611ec2576040517f08c379a00000000000000000000000000000000000000000000000000000000081526004018080602001828103825260388152602001806135246038913960400191505060405180910390fd5b6005600760008481526020019081526020016000205481548110611ee257fe5b9060005260206000209060030201600080820160006101000a81549073ffffffffffffffffffffffffffffffffffffffff021916905560018201600090556002820160009055505060066000838152602001908152602001600020600080820160006101000a81549073ffffffffffffffffffffffffffffffffffffffff0219169055600182016000905560028201600090555050611f80826130f4565b7fd99e4fad9ad6313b1feb588fa8e605e3a9873172f2024330c35dd2b4041a4386338360405180806020018473ffffffffffffffffffffffffffffffffffffffff1673ffffffffffffffffffffffffffffffffffffffff1681526020018381526020018281038252600c8152602001807f52656d6f7665206f666665720000000000000000000000000000000000000000815250602001935050505060405180910390a15050565b6040518060400160405280600281526020017f434b00000000000000000000000000000000000000000000000000000000000081525081565b61206b3383612b88565b6120dd576040517f08c379a000000000000000000000000000000000000000000000000000000000815260040180806020018281038252601e8152602001807f546865207573657220646f65736e2774206f776e2074686520746f6b656e000081525060200191505060405180910390fd5b6120e73382612b88565b612159576040517f08c379a000000000000000000000000000000000000000000000000000000000815260040180806020018281038252601e8152602001807f546865207573657220646f65736e2774206f776e2074686520746f6b656e000081525060200191505060405180910390fd5b818114156121cf576040517f08c379a000000000000000000000000000000000000000000000000000000000815260040180806020018281038252601f8152602001807f546865206361742063616e277420726570726f647563652068696d73656c660081525060200191505060405180910390fd5b6000600860009054906101000a900473ffffffffffffffffffffffffffffffffffffffff1673ffffffffffffffffffffffffffffffffffffffff166370a08231306040518263ffffffff1660e01b8152600401808273ffffffffffffffffffffffffffffffffffffffff1673ffffffffffffffffffffffffffffffffffffffff16815260200191505060206040518083038186803b15801561227057600080fd5b505afa158015612284573d6000803e3d6000fd5b505050506040513d602081101561229a57600080fd5b81019080805190602001909291905050509050670de0b6b3a764000081101561232b576040517f08c379a00000000000000000000000000000000000000000000000000000000081526004018080602001828103825260148152602001807f4465706f7369742031206c696e6b20746f6b656e00000000000000000000000081525060200191505060405180910390fd5b61233733858585613140565b50505050565b600a6020528060005260406000206000915090505481565b60026020528060005260406000206000915054906101000a900473ffffffffffffffffffffffffffffffffffffffff1681565b600073ffffffffffffffffffffffffffffffffffffffff168273ffffffffffffffffffffffffffffffffffffffff1614156123c257600080fd5b6123cc3382612b88565b6123d557600080fd5b6123e0338383612d00565b5050565b6123ec61347e565b600660008381526020019081526020016000206040518060600160405290816000820160009054906101000a900473ffffffffffffffffffffffffffffffffffffffff1673ffffffffffffffffffffffffffffffffffffffff1673ffffffffffffffffffffffffffffffffffffffff168152602001600182015481526020016002820154815250509050806020015134146124ef576040517f08c379a00000000000000000000000000000000000000000000000000000000081526004018080602001828103825260188152602001807f546865207072696365206973206e6f7420636f7272656374000000000000000081525060200191505060405180910390fd5b600560076000848152602001908152602001600020548154811061250f57fe5b9060005260206000209060030201600080820160006101000a81549073ffffffffffffffffffffffffffffffffffffffff021916905560018201600090556002820160009055505060066000838152602001908152602001600020600080820160006101000a81549073ffffffffffffffffffffffffffffffffffffffff02191690556001820160009055600282016000905550506125ae8233612bf4565b6125bd81600001513384611266565b806000015173ffffffffffffffffffffffffffffffffffffffff166108fc349081150290604051600060405180830381858888f19350505050158015612607573d6000803e3d6000fd5b507fd99e4fad9ad6313b1feb588fa8e605e3a9873172f2024330c35dd2b4041a4386338360405180806020018473ffffffffffffffffffffffffffffffffffffffff1673ffffffffffffffffffffffffffffffffffffffff168152602001838152602001828103825260038152602001807f4275790000000000000000000000000000000000000000000000000000000000815250602001935050505060405180910390a15050565b600a81565b6000809054906101000a900473ffffffffffffffffffffffffffffffffffffffff1673ffffffffffffffffffffffffffffffffffffffff163373ffffffffffffffffffffffffffffffffffffffff161461270e57600080fd5b600a600b541061271d57600080fd5b600b60008154809291906001019190505550600061274060008060008533612f00565b90506127546702c68af0bb14000082611a53565b5050565b6000600860009054906101000a900473ffffffffffffffffffffffffffffffffffffffff1673ffffffffffffffffffffffffffffffffffffffff16634000aea0600960009054906101000a900473ffffffffffffffffffffffffffffffffffffffff1685878660405160200180838152602001828152602001925050506040516020818303038152906040526040518463ffffffff1660e01b8152600401808473ffffffffffffffffffffffffffffffffffffffff1673ffffffffffffffffffffffffffffffffffffffff16815260200183815260200180602001828103825283818151815260200191508051906020019080838360005b8381101561286b578082015181840152602081019050612850565b50505050905090810190601f1680156128985780820380516001836020036101000a031916815260200191505b50945050505050602060405180830381600087803b1580156128b957600080fd5b505af11580156128cd573d6000803e3d6000fd5b505050506040513d60208110156128e357600080fd5b8101908080519060200190929190505050506000612916858430600a60008a81526020019081526020016000205461325f565b905061293f6001600a6000888152602001908152602001600020546132d990919063ffffffff16565b600a6000878152602001908152602001600020819055506129608582613361565b9150509392505050565b6000806000806000806001878154811061298057fe5b9060005260206000209060020201905060008160010160009054906101000a900467ffffffffffffffff1667ffffffffffffffff1611612a28576040517f08c379a00000000000000000000000000000000000000000000000000000000081526004018080602001828103825260178152602001807f746865206b6974747920646f65736e277420657869737400000000000000000081525060200191505060405180910390fd5b8060010160009054906101000a900467ffffffffffffffff1667ffffffffffffffff1694508060010160089054906101000a900463ffffffff1663ffffffff16935080600101600c9054906101000a900463ffffffff1663ffffffff1692508060010160109054906101000a900461ffff1661ffff169150806000015495505091939590929450565b600b5481565b6000809054906101000a900473ffffffffffffffffffffffffffffffffffffffff1673ffffffffffffffffffffffffffffffffffffffff163373ffffffffffffffffffffffffffffffffffffffff1614612b1057600080fd5b600073ffffffffffffffffffffffffffffffffffffffff168173ffffffffffffffffffffffffffffffffffffffff1614612b8557806000806101000a81548173ffffffffffffffffffffffffffffffffffffffff021916908373ffffffffffffffffffffffffffffffffffffffff1602179055505b50565b60008273ffffffffffffffffffffffffffffffffffffffff166002600084815260200190815260200160002060009054906101000a900473ffffffffffffffffffffffffffffffffffffffff1673ffffffffffffffffffffffffffffffffffffffff1614905092915050565b806004600084815260200190815260200160002060006101000a81548173ffffffffffffffffffffffffffffffffffffffff021916908373ffffffffffffffffffffffffffffffffffffffff1602179055505050565b6000612c8c83836040518060400160405280601881526020017f536166654d6174683a206d6f64756c6f206279207a65726f000000000000000081525061339a565b905092915050565b60008273ffffffffffffffffffffffffffffffffffffffff166004600084815260200190815260200160002060009054906101000a900473ffffffffffffffffffffffffffffffffffffffff1673ffffffffffffffffffffffffffffffffffffffff1614905092915050565b600360008373ffffffffffffffffffffffffffffffffffffffff1673ffffffffffffffffffffffffffffffffffffffff16815260200190815260200160002060008154809291906001019190505550816002600083815260200190815260200160002060006101000a81548173ffffffffffffffffffffffffffffffffffffffff021916908373ffffffffffffffffffffffffffffffffffffffff160217905550600073ffffffffffffffffffffffffffffffffffffffff168373ffffffffffffffffffffffffffffffffffffffff1614612e5c57600360008473ffffffffffffffffffffffffffffffffffffffff1673ffffffffffffffffffffffffffffffffffffffff16815260200190815260200160002060008154809291906001900391905055506004600082815260200190815260200160002060006101000a81549073ffffffffffffffffffffffffffffffffffffffff02191690555b7fddf252ad1be2c89b69c2b068fc378daa952ba7f163c4a11628f55a4df523b3ef838383604051808473ffffffffffffffffffffffffffffffffffffffff1673ffffffffffffffffffffffffffffffffffffffff1681526020018373ffffffffffffffffffffffffffffffffffffffff1673ffffffffffffffffffffffffffffffffffffffff168152602001828152602001935050505060405180910390a1505050565b6000612f0a6134b5565b6040518060a001604052808581526020014267ffffffffffffffff1681526020018863ffffffff1681526020018763ffffffff1681526020018661ffff168152509050600060018083908060018154018082558091505090600182039060005260206000209060020201600090919290919091506000820151816000015560208201518160010160006101000a81548167ffffffffffffffff021916908367ffffffffffffffff16021790555060408201518160010160086101000a81548163ffffffff021916908363ffffffff160217905550606082015181600101600c6101000a81548163ffffffff021916908363ffffffff16021790555060808201518160010160106101000a81548161ffff021916908361ffff16021790555050500390508063ffffffff16811461303f57600080fd5b7f0a5311bd2a6608f08a180df2ee7c5946819a649b204b554bb8e39825b2c50ad58482846040015163ffffffff16856060015163ffffffff168660000151604051808673ffffffffffffffffffffffffffffffffffffffff1673ffffffffffffffffffffffffffffffffffffffff1681526020018581526020018481526020018381526020018281526020019550505050505060405180910390a16130e660008583612d00565b809250505095945050505050565b6130fe3382612b88565b61310757600080fd5b6004600082815260200190815260200160002060006101000a81549073ffffffffffffffffffffffffffffffffffffffff021916905550565b600083434060405160200180838152602001828152602001925050506040516020818303038152906040528051906020012060001c90506000613188600c54600d5484612758565b905085600e600083815260200190815260200160002060000160006101000a81548173ffffffffffffffffffffffffffffffffffffffff021916908373ffffffffffffffffffffffffffffffffffffffff16021790555083600e60008381526020019081526020016000206001018190555082600e600083815260200190815260200160002060020181905550807ffcbc2bbea91e7ab227222eccd49e7ddabe282be9501710f827fdb0b4b1f5a1a0600c5484604051808381526020018281526020019250505060405180910390a2505050505050565b600084848484604051602001808581526020018481526020018373ffffffffffffffffffffffffffffffffffffffff1673ffffffffffffffffffffffffffffffffffffffff1681526020018281526020019450505050506040516020818303038152906040528051906020012060001c9050949350505050565b600080828401905083811015613357576040517f08c379a000000000000000000000000000000000000000000000000000000000815260040180806020018281038252601b8152602001807f536166654d6174683a206164646974696f6e206f766572666c6f77000000000081525060200191505060405180910390fd5b8091505092915050565b60008282604051602001808381526020018281526020019250505060405160208183030381529060405280519060200120905092915050565b6000808314158290613447576040517f08c379a00000000000000000000000000000000000000000000000000000000081526004018080602001828103825283818151815260200191508051906020019080838360005b8381101561340c5780820151818401526020810190506133f1565b50505050905090810190601f1680156134395780820380516001836020036101000a031916815260200191505b509250505060405180910390fd5b5082848161345157fe5b0690509392505050565b604051806101000160405280600890602082028038833980820191505090505090565b6040518060600160405280600073ffffffffffffffffffffffffffffffffffffffff16815260200160008152602001600081525090565b6040518060a0016040528060008152602001600067ffffffffffffffff168152602001600063ffffffff168152602001600063ffffffff168152602001600061ffff168152509056fe7472616e7366657246726f6d28616464726573732c616464726573732c75696e7432353629596f752073686f756c64206f776e20746865206b6974747920746f2062652061626c6520746f2072656d6f76652074686973206f666665724361742070726963652073686f756c642062652067726561746572207468616e20302e3031596f752063616e27742073656c6c207477696365207468652073616d65206f666665727320a265627a7a72315820f8bd1696036ad8a7077645e474796d27569ba7d397d11239ed29c47e5120cc0964736f6c634300050c0032",
  "source": "import \"./utils/Ownable.sol\";\nimport \"./KittyMarketPlace.sol\";\n\n/*\n* VRFConsumerBase required to call the oracle\n*/\nimport \"./utils/link/VRFConsumerBase.sol\"; /* https://docs.chain.link/docs/chainlink-vrf */\n\n\n\npragma solidity ^0.5.0;\n\ncontract KittyCore is Ownable, KittyMarketPlace, VRFConsumerBase {\n\n  using SafeMath for uint256;\n\n  uint256 public constant CREATION_LIMIT_GEN0 = 10;\n\n\n  // Counts the number of cats the contract owner has created.\n  uint256 public gen0Counter;\n\n\n  /* Provided by the oracle (it's the public key against which randomness is generated) */\n  bytes32 internal keyHash;\n\n  /* The oracle's fee is set to 1 link  */\n  uint256 internal fee;\n\n\n  /*\n  * In struct 'requests' we save the data we need to call Breeding ()\n  * once the random number is returned by the oracle.\n  *\n  * In order to access request we use the bytes32 _requestId provided from getRandomNumber ()\n  */\n\n\n  struct Requests {\n\n    address requestor;\n    uint256 dadId;\n    uint256 mumId;\n    uint256 randomNumber;\n  }\n\n  mapping (bytes32 => Requests) internal request;\n\n  /* RequestRandomness is emitted after calling the oracle from KittyCore  */\n  event RequestRandomness(bytes32 indexed requestId,bytes32 keyHash,uint256 seed);\n\n\n  /* RequestRandomnessFulfilled is emitted once the random number is returned  */\n  event RequestRandomnessFulfilled(bytes32 indexed requestId,uint256 randomness);\n\n\n\n  /*\n    _vrfCoordinator: 0xf720CF1B963e0e7bE9F58fd471EFa67e7bF00cfb\n    _link:           0x20fE562d797A42Dcb3399062AE9546cd06f63280\n  */\n\n  constructor(address _vrfCoordinator, address _link)\n  VRFConsumerBase(_vrfCoordinator, _link) public { // Refer to VRFConsumerBase for more info\n\n    vrfCoordinator = _vrfCoordinator;\n    LINK = LinkTokenInterface(_link);\n    keyHash = 0xced103054e349b8dfb51352f0f8fa9b5d20dde3d06f9f43cb2b85bc64b238205; // hard-coded for Ropsten\n    fee = 10 ** 18;\n\n\n    // We are creating the first kitty at index 0\n    _createKitty(0, 0, 0, uint256(-1), address(0));\n  }\n\n\n  function getRandomNumber (\n    address _requestor,\n    uint256 _userProvidedSeed,\n    uint256 _dadId,\n    uint256 _mumId\n\n  ) internal {\n\n    uint256 seed = uint256(keccak256(abi.encode(_userProvidedSeed, blockhash(block.number)))); // Hash user seed and blockhash\n\n    bytes32 requestId = requestRandomness(keyHash, fee, seed);\n\n    request[requestId].requestor = _requestor;\n    request[requestId].dadId = _dadId;\n    request[requestId].mumId = _mumId;\n\n    emit RequestRandomness(requestId, keyHash, seed);\n  }\n\n\n  function fulfillRandomness(bytes32 _requestId, uint256 _randomness) external {\n\n    request[_requestId].randomNumber = _randomness.mod(255);\n\n    emit RequestRandomnessFulfilled(_requestId, _randomness);\n\n    Breeding(_requestId);\n  }\n\n\n  /*\n  * breed must be used to trigger the oracle\n  * getRandomNumber () is called\n  * fulfillRandomness () calls Breeding() once the random number is created\n  */\n\n  function breed (uint256 _seed, uint256 _dadId, uint256 _mumId) public {\n\n    require(_owns(msg.sender, _dadId), \"The user doesn't own the token\");\n\n    require(_owns(msg.sender, _mumId), \"The user doesn't own the token\");\n\n    require(_mumId != _dadId, \"The cat can't reproduce himself\");\n\n    uint256 linkBalance = LINK.balanceOf(address(this));\n\n    require (linkBalance >= 10 ** 18, \"Deposit 1 link token\");\n\n    getRandomNumber(msg.sender, _seed,  _dadId,  _mumId);\n\n  }\n\n\n  /*\n  *       we get a\n  *\n  *       Basic binary operation\n  *\n  *       >>> '{0:08b}'.format(255 & 1)\n  *       '00000001'\n  *       >>> '{0:08b}'.format(255 & 2)\n  *       '00000010'\n  *       >>> '{0:08b}'.format(255 & 4)\n  *       '00000100'\n  *       >>> '{0:08b}'.format(255 & 8)\n  *       '00001000'\n  *       >>> '{0:08b}'.format(255 & 16)\n  *       '00010000'\n  *       >>> '{0:08b}'.format(255 & 32)\n  *       '00100000'\n  *       >>> '{0:08b}'.format(255 & 64)\n  *       '01000000'\n  *       >>> '{0:08b}'.format(255 & 128)\n  *       '10000000'\n  *\n  *       So we use a mask on our random number to check if we will use the mumID or the dadId\n  *\n  *       For example 205 is 11001101 in binary So\n  *       mum - mum - dad -dad -mum - mum - dad - mum\n  *\n  */\n\n  function Breeding(bytes32 _requestId) public {\n\n    ( uint256 Dadgenes,,,,uint256 DadGeneration ) = getKitty(request[_requestId].dadId);\n\n    ( uint256 Mumgenes,,,,uint256 MumGeneration ) = getKitty(request[_requestId].mumId);\n\n    uint256 geneKid;\n    uint256 [8] memory geneArray;\n    uint256 index = 7;\n    uint256 i = 0;\n\n    for(i = 1; i <= 128; i=i*2){\n\n        /* We are */\n        if(request[_requestId].randomNumber & i != 0){\n            geneArray[index] = uint8(Mumgenes % 100);\n        } else {\n            geneArray[index] = uint8(Dadgenes % 100);\n        }\n        Mumgenes /= 100;\n        Dadgenes /= 100;\n      index -= 1;\n    }\n\n    /* Add a random parameter in a random place */\n    uint256 newGeneIndex =  request[_requestId].randomNumber % 7;\n    geneArray[newGeneIndex] = request[_requestId].randomNumber % 99;\n\n    /* We reverse the DNa in the right order */\n    for (i = 0 ; i < 8; i++ ){\n      geneKid += geneArray[i];\n      if(i != 7){\n          geneKid *= 100;\n      }\n    }\n\n    uint256 kidGen = 0;\n    if (DadGeneration < MumGeneration){\n      kidGen = MumGeneration + 1;\n      kidGen /= 2;\n    } else if (DadGeneration > MumGeneration){\n      kidGen = DadGeneration + 1;\n      kidGen /= 2;\n    } else{\n      kidGen = MumGeneration + 1;\n    }\n\n    /* Below declaration 'requestor'\n    * needed to avoid **too many nested var ** error\n    * when calling _createKitty\n    */\n    address requestor = request[_requestId].requestor;\n\n    _createKitty(\n      request[_requestId].mumId,\n      request[_requestId].dadId,\n      kidGen,\n      geneKid,\n      requestor\n    );\n  }\n\n\n  function createKittyGen0(uint256 _genes) public onlyOwner {\n    require(gen0Counter < CREATION_LIMIT_GEN0);\n\n    gen0Counter++;\n\n    // Gen0 have no owners they are own by the contract\n    uint256 tokenId = _createKitty(0, 0, 0, _genes, msg.sender);\n    setOffer(0.2 ether, tokenId);\n  }\n\n  function getKitty(uint256 _id)\n    public\n    view\n    returns (\n    uint256 genes,\n    uint256 birthTime,\n    uint256 mumId,\n    uint256 dadId,\n    uint256 generation\n  ) {\n    Kitty storage kitty = kitties[_id];\n\n    require(kitty.birthTime > 0, \"the kitty doesn't exist\");\n\n    birthTime = uint256(kitty.birthTime);\n    mumId = uint256(kitty.mumId);\n    dadId = uint256(kitty.dadId);\n    generation = uint256(kitty.generation);\n    genes = kitty.genes;\n  }\n\n\n  /*\n  * Set the address of the deployed VRFCoordinator you wish to interact with\n  */\n\n  function set_vrfCoordinator (address _new) public onlyOwner returns (bool) {\n\n    require (_new != address(0),\"Invalid address\");\n\n    vrfCoordinator = _new;\n\n    return true;\n  }\n\n  /*\n  * Set the address of the LINK token used for payment\n  */\n\n  function set_link (address _new) public onlyOwner returns (bool) {\n\n    require (_new != address(0),\"Invalid address\");\n\n    LINK = LinkTokenInterface(_new);\n\n    return true;\n  }\n}\n",
  "sourcePath": "/Users/dan/Documents/Coding/Solidity/New_Projects/academy-cryptokitties/contracts/KittyCore.sol",
  "compiler": {
    "name": "solc",
    "version": "0.5.12+commit.7709ece9.Emscripten.clang"
  },
  "schemaVersion": "3.0.23",
  "updatedAt": "2020-07-05T13:21:30.130Z",
  "networkType": "ethereum",
  "devdoc": {
    "methods": {
      "requestRandomness(bytes32,uint256,uint256)": {
        "details": "The source of the seed data must be something which the oraclecannot anticipate. See \"SECURITY CONSIDERATIONS\" above.The fulfillRandomness method receives the output, once it's providedby the Oracle, and verified by the vrfCoordinator.The _keyHash must already be registered with the VRFCoordinator, andthe _fee must exceed the fee specified during registration of the_keyHash.The returned requestId can be used to distinguish responses to *concurrent requests. It is passed as the first argument tofulfillRandomness.",
        "params": {
          "_fee": "The amount of LINK to send with the request",
          "_keyHash": "ID of public key against which randomness is generated",
          "_seed": "Random seed from which output randomness is determined"
        },
        "return": "requestId which will be returned with the response to this request"
      },
      "transferOwnership(address)": {
        "details": "Allows the current owner to transfer control of the contract to a newOwner.",
        "params": {
          "newOwner": "The address to transfer ownership to."
        }
      }
    }
  },
  "userdoc": {
    "methods": {
      "requestRandomness(bytes32,uint256,uint256)": {
        "notice": "requestRandomness initiates a request for VRF output given _seed"
      }
    }
  }
}