{
  "contractName": "KittyCore",
  "abi": [
    {
      "constant": true,
      "inputs": [
        {
          "name": "_interfaceID",
          "type": "bytes4"
        }
      ],
      "name": "supportsInterface",
      "outputs": [
        {
          "name": "",
          "type": "bool"
        }
      ],
      "payable": false,
      "stateMutability": "pure",
      "type": "function"
    },
    {
      "constant": true,
      "inputs": [],
      "name": "name",
      "outputs": [
        {
          "name": "",
          "type": "string"
        }
      ],
      "payable": false,
      "stateMutability": "view",
      "type": "function"
    },
    {
      "constant": false,
      "inputs": [
        {
          "name": "_to",
          "type": "address"
        },
        {
          "name": "_tokenId",
          "type": "uint256"
        }
      ],
      "name": "approve",
      "outputs": [],
      "payable": false,
      "stateMutability": "nonpayable",
      "type": "function"
    },
    {
      "constant": true,
      "inputs": [],
      "name": "totalSupply",
      "outputs": [
        {
          "name": "",
          "type": "uint256"
        }
      ],
      "payable": false,
      "stateMutability": "view",
      "type": "function"
    },
    {
      "constant": false,
      "inputs": [
        {
          "name": "_from",
          "type": "address"
        },
        {
          "name": "_to",
          "type": "address"
        },
        {
          "name": "_tokenId",
          "type": "uint256"
        }
      ],
      "name": "transferFrom",
      "outputs": [],
      "payable": false,
      "stateMutability": "nonpayable",
      "type": "function"
    },
    {
      "constant": true,
      "inputs": [
        {
          "name": "_tokenId",
          "type": "uint256"
        }
      ],
      "name": "getOffer",
      "outputs": [
        {
          "name": "seller",
          "type": "address"
        },
        {
          "name": "price",
          "type": "uint256"
        }
      ],
      "payable": false,
      "stateMutability": "view",
      "type": "function"
    },
    {
      "constant": true,
      "inputs": [
        {
          "name": "",
          "type": "uint256"
        }
      ],
      "name": "kittyIndexToApproved",
      "outputs": [
        {
          "name": "",
          "type": "address"
        }
      ],
      "payable": false,
      "stateMutability": "view",
      "type": "function"
    },
    {
      "constant": true,
      "inputs": [
        {
          "name": "",
          "type": "uint256"
        }
      ],
      "name": "kittyInExistence",
      "outputs": [
        {
          "name": "",
          "type": "bool"
        }
      ],
      "payable": false,
      "stateMutability": "view",
      "type": "function"
    },
    {
      "constant": false,
      "inputs": [
        {
          "name": "_kittyCore",
          "type": "address"
        }
      ],
      "name": "activateMarketPlace",
      "outputs": [],
      "payable": false,
      "stateMutability": "nonpayable",
      "type": "function"
    },
    {
      "constant": true,
      "inputs": [
        {
          "name": "_tokenId",
          "type": "uint256"
        }
      ],
      "name": "ownerOf",
      "outputs": [
        {
          "name": "owner",
          "type": "address"
        }
      ],
      "payable": false,
      "stateMutability": "view",
      "type": "function"
    },
    {
      "constant": true,
      "inputs": [
        {
          "name": "_owner",
          "type": "address"
        }
      ],
      "name": "balanceOf",
      "outputs": [
        {
          "name": "count",
          "type": "uint256"
        }
      ],
      "payable": false,
      "stateMutability": "view",
      "type": "function"
    },
    {
      "constant": true,
      "inputs": [
        {
          "name": "_owner",
          "type": "address"
        }
      ],
      "name": "tokensOfOwner",
      "outputs": [
        {
          "name": "ownerTokens",
          "type": "uint256[]"
        }
      ],
      "payable": false,
      "stateMutability": "view",
      "type": "function"
    },
    {
      "constant": true,
      "inputs": [
        {
          "name": "",
          "type": "bytes32"
        }
      ],
      "name": "breedingAssistant",
      "outputs": [
        {
          "name": "requestor",
          "type": "address"
        },
        {
          "name": "dadId",
          "type": "uint256"
        },
        {
          "name": "momId",
          "type": "uint256"
        },
        {
          "name": "randomNumber",
          "type": "uint256"
        },
        {
          "name": "kidGen",
          "type": "uint256"
        },
        {
          "name": "geneKid",
          "type": "uint256"
        }
      ],
      "payable": false,
      "stateMutability": "view",
      "type": "function"
    },
    {
      "constant": true,
      "inputs": [],
      "name": "owner",
      "outputs": [
        {
          "name": "",
          "type": "address"
        }
      ],
      "payable": false,
      "stateMutability": "view",
      "type": "function"
    },
    {
      "constant": false,
      "inputs": [
        {
          "name": "_price",
          "type": "uint256"
        },
        {
          "name": "_tokenId",
          "type": "uint256"
        }
      ],
      "name": "setOffer",
      "outputs": [],
      "payable": false,
      "stateMutability": "nonpayable",
      "type": "function"
    },
    {
      "constant": false,
      "inputs": [
        {
          "name": "_tokenId",
          "type": "uint256"
        }
      ],
      "name": "removeOffer",
      "outputs": [],
      "payable": false,
      "stateMutability": "nonpayable",
      "type": "function"
    },
    {
      "constant": true,
      "inputs": [],
      "name": "symbol",
      "outputs": [
        {
          "name": "",
          "type": "string"
        }
      ],
      "payable": false,
      "stateMutability": "view",
      "type": "function"
    },
    {
      "constant": true,
      "inputs": [
        {
          "name": "",
          "type": "bytes32"
        }
      ],
      "name": "nonces",
      "outputs": [
        {
          "name": "",
          "type": "uint256"
        }
      ],
      "payable": false,
      "stateMutability": "view",
      "type": "function"
    },
    {
      "constant": true,
      "inputs": [
        {
          "name": "",
          "type": "uint256"
        }
      ],
      "name": "kittyIndexToOwner",
      "outputs": [
        {
          "name": "",
          "type": "address"
        }
      ],
      "payable": false,
      "stateMutability": "view",
      "type": "function"
    },
    {
      "constant": false,
      "inputs": [
        {
          "name": "_to",
          "type": "address"
        },
        {
          "name": "_tokenId",
          "type": "uint256"
        }
      ],
      "name": "transfer",
      "outputs": [],
      "payable": false,
      "stateMutability": "nonpayable",
      "type": "function"
    },
    {
      "constant": false,
      "inputs": [
        {
          "name": "_tokenId",
          "type": "uint256"
        }
      ],
      "name": "buyKitty",
      "outputs": [],
      "payable": true,
      "stateMutability": "payable",
      "type": "function"
    },
    {
      "constant": true,
      "inputs": [],
      "name": "CREATION_LIMIT_GEN0",
      "outputs": [
        {
          "name": "",
          "type": "uint256"
        }
      ],
      "payable": false,
      "stateMutability": "view",
      "type": "function"
    },
    {
      "constant": false,
      "inputs": [
        {
          "name": "_keyHash",
          "type": "bytes32"
        },
        {
          "name": "_fee",
          "type": "uint256"
        },
        {
          "name": "_seed",
          "type": "uint256"
        }
      ],
      "name": "requestRandomness",
      "outputs": [
        {
          "name": "requestId",
          "type": "bytes32"
        }
      ],
      "payable": false,
      "stateMutability": "nonpayable",
      "type": "function"
    },
    {
      "constant": true,
      "inputs": [],
      "name": "gen0Counter",
      "outputs": [
        {
          "name": "",
          "type": "uint256"
        }
      ],
      "payable": false,
      "stateMutability": "view",
      "type": "function"
    },
    {
      "constant": false,
      "inputs": [
        {
          "name": "newOwner",
          "type": "address"
        }
      ],
      "name": "transferOwnership",
      "outputs": [],
      "payable": false,
      "stateMutability": "nonpayable",
      "type": "function"
    },
    {
      "inputs": [],
      "payable": false,
      "stateMutability": "nonpayable",
      "type": "constructor"
    },
    {
      "anonymous": false,
      "inputs": [
        {
          "indexed": true,
          "name": "requestId",
          "type": "bytes32"
        },
        {
          "indexed": false,
          "name": "keyHash",
          "type": "bytes32"
        },
        {
          "indexed": false,
          "name": "seed",
          "type": "uint256"
        }
      ],
      "name": "RequestRandomness",
      "type": "event"
    },
    {
      "anonymous": false,
      "inputs": [
        {
          "indexed": true,
          "name": "requestId",
          "type": "bytes32"
        },
        {
          "indexed": false,
          "name": "randomness",
          "type": "uint256"
        }
      ],
      "name": "RequestRandomnessFulfilled",
      "type": "event"
    },
    {
      "anonymous": false,
      "inputs": [
        {
          "indexed": false,
          "name": "TxType",
          "type": "string"
        },
        {
          "indexed": false,
          "name": "owner",
          "type": "address"
        },
        {
          "indexed": false,
          "name": "tokenId",
          "type": "uint256"
        }
      ],
      "name": "MarketTransaction",
      "type": "event"
    },
    {
      "anonymous": false,
      "inputs": [
        {
          "indexed": false,
          "name": "from",
          "type": "address"
        },
        {
          "indexed": false,
          "name": "to",
          "type": "address"
        },
        {
          "indexed": false,
          "name": "tokenId",
          "type": "uint256"
        }
      ],
      "name": "Transfer",
      "type": "event"
    },
    {
      "anonymous": false,
      "inputs": [
        {
          "indexed": false,
          "name": "owner",
          "type": "address"
        },
        {
          "indexed": false,
          "name": "approved",
          "type": "address"
        },
        {
          "indexed": false,
          "name": "tokenId",
          "type": "uint256"
        }
      ],
      "name": "Approval",
      "type": "event"
    },
    {
      "anonymous": false,
      "inputs": [
        {
          "indexed": false,
          "name": "owner",
          "type": "address"
        },
        {
          "indexed": false,
          "name": "kittyId",
          "type": "uint256"
        },
        {
          "indexed": false,
          "name": "momId",
          "type": "uint256"
        },
        {
          "indexed": false,
          "name": "dadId",
          "type": "uint256"
        },
        {
          "indexed": false,
          "name": "genes",
          "type": "uint256"
        }
      ],
      "name": "Birth",
      "type": "event"
    },
    {
      "constant": false,
      "inputs": [
        {
          "name": "_genes",
          "type": "uint256"
        }
      ],
      "name": "createKittyGen0",
      "outputs": [],
      "payable": false,
      "stateMutability": "nonpayable",
      "type": "function"
    },
    {
      "constant": true,
      "inputs": [
        {
          "name": "_id",
          "type": "uint256"
        }
      ],
      "name": "getKitty",
      "outputs": [
        {
          "name": "genes",
          "type": "uint256"
        },
        {
          "name": "birthTime",
          "type": "uint256"
        },
        {
          "name": "momId",
          "type": "uint256"
        },
        {
          "name": "dadId",
          "type": "uint256"
        },
        {
          "name": "generation",
          "type": "uint256"
        }
      ],
      "payable": false,
      "stateMutability": "view",
      "type": "function"
    },
    {
      "constant": false,
      "inputs": [
        {
          "name": "_userProvidedSeed",
          "type": "uint256"
        },
        {
          "name": "_dadId",
          "type": "uint256"
        },
        {
          "name": "_momId",
          "type": "uint256"
        }
      ],
      "name": "random",
      "outputs": [],
      "payable": false,
      "stateMutability": "nonpayable",
      "type": "function"
    },
    {
      "constant": false,
      "inputs": [
        {
          "name": "_requestId",
          "type": "bytes32"
        },
        {
          "name": "_randomness",
          "type": "uint256"
        }
      ],
      "name": "fulfillRandomness",
      "outputs": [],
      "payable": false,
      "stateMutability": "nonpayable",
      "type": "function"
    },
    {
      "constant": true,
      "inputs": [
        {
          "name": "_tokenId",
          "type": "uint256"
        }
      ],
      "name": "verifyKittyInExistence",
      "outputs": [
        {
          "name": "",
          "type": "bool"
        }
      ],
      "payable": false,
      "stateMutability": "view",
      "type": "function"
    }
  ],
  "bytecode": "0x608060405273f720cf1b963e0e7be9f58fd471efa67e7bf00cfb600d60006101000a81548173ffffffffffffffffffffffffffffffffffffffff021916908373ffffffffffffffffffffffffffffffffffffffff1602179055507320fe562d797a42dcb3399062ae9546cd06f63280600e60006101000a81548173ffffffffffffffffffffffffffffffffffffffff021916908373ffffffffffffffffffffffffffffffffffffffff160217905550348015620000bb57600080fd5b50600d60009054906101000a900473ffffffffffffffffffffffffffffffffffffffff16600e60009054906101000a900473ffffffffffffffffffffffffffffffffffffffff1633600560006101000a81548173ffffffffffffffffffffffffffffffffffffffff021916908373ffffffffffffffffffffffffffffffffffffffff16021790555081600960006101000a81548173ffffffffffffffffffffffffffffffffffffffff021916908373ffffffffffffffffffffffffffffffffffffffff16021790555080600860006101000a81548173ffffffffffffffffffffffffffffffffffffffff021916908373ffffffffffffffffffffffffffffffffffffffff1602179055505050600d60009054906101000a900473ffffffffffffffffffffffffffffffffffffffff16600960006101000a81548173ffffffffffffffffffffffffffffffffffffffff021916908373ffffffffffffffffffffffffffffffffffffffff160217905550600e60009054906101000a900473ffffffffffffffffffffffffffffffffffffffff16600860006101000a81548173ffffffffffffffffffffffffffffffffffffffff021916908373ffffffffffffffffffffffffffffffffffffffff1602179055507fced103054e349b8dfb51352f0f8fa9b5d20dde3d06f9f43cb2b85bc64b238205600102600b81905550670de0b6b3a7640000600c8190555060003342604051602001808373ffffffffffffffffffffffffffffffffffffffff1673ffffffffffffffffffffffffffffffffffffffff166c01000000000000000000000000028152601401828152602001925050506040516020818303038152906040528051906020012090506000806000838152602001908152602001600020600201819055506000806000838152602001908152602001600020600101819055506000806000838152602001908152602001600020600401819055507fffffffffffffffffffffffffffffffffffffffffffffffffffffffffffffffff60008083815260200190815260200160002060050181905550600080600083815260200190815260200160002060000160006101000a81548173ffffffffffffffffffffffffffffffffffffffff021916908373ffffffffffffffffffffffffffffffffffffffff1602179055506000620004308262000466640100000000026401000000009004565b905060016010600083815260200190815260200160002060006101000a81548160ff021916908315150217905550505062000a5b565b60006200047262000a11565b60a0604051908101604052806000808681526020019081526020016000206005015481526020014267ffffffffffffffff1681526020016000808681526020019081526020016000206002015463ffffffff1681526020016000808681526020019081526020016000206001015463ffffffff1681526020016000808681526020019081526020016000206004015461ffff168152509050600060018083908060018154018082558091505090600182039060005260206000209060020201600090919290919091506000820151816000015560208201518160010160006101000a81548167ffffffffffffffff021916908367ffffffffffffffff16021790555060408201518160010160086101000a81548163ffffffff021916908363ffffffff160217905550606082015181600101600c6101000a81548163ffffffff021916908363ffffffff16021790555060808201518160010160106101000a81548161ffff021916908361ffff16021790555050500390508063ffffffff168114151562000668576040517f08c379a00000000000000000000000000000000000000000000000000000000081526004018080602001828103825260128152602001807f4b6974747920496473206d69736d61746368000000000000000000000000000081525060200191505060405180910390fd5b7f0a5311bd2a6608f08a180df2ee7c5946819a649b204b554bb8e39825b2c50ad560008086815260200190815260200160002060000160009054906101000a900473ffffffffffffffffffffffffffffffffffffffff168260008088815260200190815260200160002060020154600080898152602001908152602001600020600101548660000151604051808673ffffffffffffffffffffffffffffffffffffffff1673ffffffffffffffffffffffffffffffffffffffff1681526020018581526020018481526020018381526020018281526020019550505050505060405180910390a1620007a0600080600087815260200190815260200160002060000160009054906101000a900473ffffffffffffffffffffffffffffffffffffffff16836200080e640100000000026401000000009004565b600080858152602001908152602001600020600080820160006101000a81549073ffffffffffffffffffffffffffffffffffffffff02191690556001820160009055600282016000905560038201600090556004820160009055600582016000905550508092505050919050565b600360008373ffffffffffffffffffffffffffffffffffffffff1673ffffffffffffffffffffffffffffffffffffffff16815260200190815260200160002060008154809291906001019190505550816002600083815260200190815260200160002060006101000a81548173ffffffffffffffffffffffffffffffffffffffff021916908373ffffffffffffffffffffffffffffffffffffffff160217905550600073ffffffffffffffffffffffffffffffffffffffff168373ffffffffffffffffffffffffffffffffffffffff161415156200096d57600360008473ffffffffffffffffffffffffffffffffffffffff1673ffffffffffffffffffffffffffffffffffffffff16815260200190815260200160002060008154809291906001900391905055506004600082815260200190815260200160002060006101000a81549073ffffffffffffffffffffffffffffffffffffffff02191690555b7fddf252ad1be2c89b69c2b068fc378daa952ba7f163c4a11628f55a4df523b3ef838383604051808473ffffffffffffffffffffffffffffffffffffffff1673ffffffffffffffffffffffffffffffffffffffff1681526020018373ffffffffffffffffffffffffffffffffffffffff1673ffffffffffffffffffffffffffffffffffffffff168152602001828152602001935050505060405180910390a1505050565b60a06040519081016040528060008152602001600067ffffffffffffffff168152602001600063ffffffff168152602001600063ffffffff168152602001600061ffff1681525090565b6138168062000a6b6000396000f3fe608060405260043610610180576000357c0100000000000000000000000000000000000000000000000000000000900463ffffffff16806301ffc9a71461018557806306fdde03146101f7578063095ea7b31461028757806318160ddd146102e25780631f1f897f1461030d57806323b872dd146103525780634579268a146103cd578063481af3d31461044f5780634f730ee2146104ca57806353f1191c1461051d5780636352211e1461056e57806368609713146105e957806370a082311461063c5780637299054c146106a15780638462151c146106f05780638852e048146107965780638da5cb5b14610834578063941b055b1461088b57806395a0f9c7146108d057806395d89b411461090b5780639e317f121461099b578063a45f4bfc146109ea578063a9059cbb14610a65578063ae5310f614610ac0578063b483433014610aee578063d5a776ca14610b19578063dc6cfe1014610b54578063e98b7f4d14610bb7578063ef5e94aa14610c22578063f2fde38b14610c4d575b600080fd5b34801561019157600080fd5b506101dd600480360360208110156101a857600080fd5b8101908080357bffffffffffffffffffffffffffffffffffffffffffffffffffffffff19169060200190929190505050610c9e565b604051808215151515815260200191505060405180910390f35b34801561020357600080fd5b5061020c610f78565b6040518080602001828103825283818151815260200191508051906020019080838360005b8381101561024c578082015181840152602081019050610231565b50505050905090810190601f1680156102795780820380516001836020036101000a031916815260200191505b509250505060405180910390f35b34801561029357600080fd5b506102e0600480360360408110156102aa57600080fd5b81019080803573ffffffffffffffffffffffffffffffffffffffff16906020019092919080359060200190929190505050610fb1565b005b3480156102ee57600080fd5b506102f7611073565b6040518082815260200191505060405180910390f35b34801561031957600080fd5b506103506004803603604081101561033057600080fd5b810190808035906020019092919080359060200190929190505050611082565b005b34801561035e57600080fd5b506103cb6004803603606081101561037557600080fd5b81019080803573ffffffffffffffffffffffffffffffffffffffff169060200190929190803573ffffffffffffffffffffffffffffffffffffffff16906020019092919080359060200190929190505050611180565b005b3480156103d957600080fd5b50610406600480360360208110156103f057600080fd5b81019080803590602001909291905050506111f6565b604051808373ffffffffffffffffffffffffffffffffffffffff1673ffffffffffffffffffffffffffffffffffffffff1681526020018281526020019250505060405180910390f35b34801561045b57600080fd5b506104886004803603602081101561047257600080fd5b8101908080359060200190929190505050611247565b604051808273ffffffffffffffffffffffffffffffffffffffff1673ffffffffffffffffffffffffffffffffffffffff16815260200191505060405180910390f35b3480156104d657600080fd5b50610503600480360360208110156104ed57600080fd5b810190808035906020019092919050505061127a565b604051808215151515815260200191505060405180910390f35b34801561052957600080fd5b5061056c6004803603602081101561054057600080fd5b81019080803573ffffffffffffffffffffffffffffffffffffffff16906020019092919050505061129a565b005b34801561057a57600080fd5b506105a76004803603602081101561059157600080fd5b810190808035906020019092919050505061133a565b604051808273ffffffffffffffffffffffffffffffffffffffff1673ffffffffffffffffffffffffffffffffffffffff16815260200191505060405180910390f35b3480156105f557600080fd5b506106226004803603602081101561060c57600080fd5b81019080803590602001909291905050506113b3565b604051808215151515815260200191505060405180910390f35b34801561064857600080fd5b5061068b6004803603602081101561065f57600080fd5b81019080803573ffffffffffffffffffffffffffffffffffffffff1690602001909291905050506113dd565b6040518082815260200191505060405180910390f35b3480156106ad57600080fd5b506106ee600480360360608110156106c457600080fd5b81019080803590602001909291908035906020019092919080359060200190929190505050611426565b005b3480156106fc57600080fd5b5061073f6004803603602081101561071357600080fd5b81019080803573ffffffffffffffffffffffffffffffffffffffff1690602001909291905050506117ac565b6040518080602001828103825283818151815260200191508051906020019060200280838360005b83811015610782578082015181840152602081019050610767565b505050509050019250505060405180910390f35b3480156107a257600080fd5b506107cf600480360360208110156107b957600080fd5b81019080803590602001909291905050506118fa565b604051808773ffffffffffffffffffffffffffffffffffffffff1673ffffffffffffffffffffffffffffffffffffffff168152602001868152602001858152602001848152602001838152602001828152602001965050505050505060405180910390f35b34801561084057600080fd5b50610849611956565b604051808273ffffffffffffffffffffffffffffffffffffffff1673ffffffffffffffffffffffffffffffffffffffff16815260200191505060405180910390f35b34801561089757600080fd5b506108ce600480360360408110156108ae57600080fd5b81019080803590602001909291908035906020019092919050505061197c565b005b3480156108dc57600080fd5b50610909600480360360208110156108f357600080fd5b8101908080359060200190929190505050611c3d565b005b34801561091757600080fd5b50610920612022565b6040518080602001828103825283818151815260200191508051906020019080838360005b83811015610960578082015181840152602081019050610945565b50505050905090810190601f16801561098d5780820380516001836020036101000a031916815260200191505b509250505060405180910390f35b3480156109a757600080fd5b506109d4600480360360208110156109be57600080fd5b810190808035906020019092919050505061205b565b6040518082815260200191505060405180910390f35b3480156109f657600080fd5b50610a2360048036036020811015610a0d57600080fd5b8101908080359060200190929190505050612073565b604051808273ffffffffffffffffffffffffffffffffffffffff1673ffffffffffffffffffffffffffffffffffffffff16815260200191505060405180910390f35b348015610a7157600080fd5b50610abe60048036036040811015610a8857600080fd5b81019080803573ffffffffffffffffffffffffffffffffffffffff169060200190929190803590602001909291905050506120a6565b005b610aec60048036036020811015610ad657600080fd5b8101908080359060200190929190505050612106565b005b348015610afa57600080fd5b50610b036124fd565b6040518082815260200191505060405180910390f35b348015610b2557600080fd5b50610b5260048036036020811015610b3c57600080fd5b8101908080359060200190929190505050612502565b005b348015610b6057600080fd5b50610ba160048036036060811015610b7757600080fd5b8101908080359060200190929190803590602001909291908035906020019092919050505061275f565b6040518082815260200191505060405180910390f35b348015610bc357600080fd5b50610bf060048036036020811015610bda57600080fd5b810190808035906020019092919050505061298d565b604051808681526020018581526020018481526020018381526020018281526020019550505050505060405180910390f35b348015610c2e57600080fd5b50610c37612ad8565b6040518082815260200191505060405180910390f35b348015610c5957600080fd5b50610c9c60048036036020811015610c7057600080fd5b81019080803573ffffffffffffffffffffffffffffffffffffffff169060200190929190505050612ade565b005b600060405180807f737570706f727473496e74657266616365286279746573342900000000000000815250601901905060405180910390207bffffffffffffffffffffffffffffffffffffffffffffffffffffffff1916827bffffffffffffffffffffffffffffffffffffffffffffffffffffffff19161480610f71575060405180807f746f6b656e734f664f776e6572286164647265737329000000000000000000008152506016019050604051809103902060405180807f7472616e7366657246726f6d28616464726573732c616464726573732c75696e81526020017f74323536290000000000000000000000000000000000000000000000000000008152506025019050604051809103902060405180807f7472616e7366657228616464726573732c75696e7432353629000000000000008152506019019050604051809103902060405180807f617070726f766528616464726573732c75696e743235362900000000000000008152506018019050604051809103902060405180807f6f776e65724f662875696e7432353629000000000000000000000000000000008152506010019050604051809103902060405180807f62616c616e63654f6628616464726573732900000000000000000000000000008152506012019050604051809103902060405180807f746f74616c537570706c79282900000000000000000000000000000000000000815250600d019050604051809103902060405180807f73796d626f6c28290000000000000000000000000000000000000000000000008152506008019050604051809103902060405180807f6e616d65282900000000000000000000000000000000000000000000000000008152506006019050604051809103902018181818181818187bffffffffffffffffffffffffffffffffffffffffffffffffffffffff1916827bffffffffffffffffffffffffffffffffffffffffffffffffffffffff1916145b9050919050565b6040805190810160405280600b81526020017f4976616e4b69747469657300000000000000000000000000000000000000000081525081565b610fbb8282612bb5565b1515610fc657600080fd5b610fd08133612c21565b7f8c5be1e5ebec7d5bd14f71427d1e84f3dd0314c0f7b2291e5b200ac8c7c3b925338383604051808473ffffffffffffffffffffffffffffffffffffffff1673ffffffffffffffffffffffffffffffffffffffff1681526020018373ffffffffffffffffffffffffffffffffffffffff1673ffffffffffffffffffffffffffffffffffffffff168152602001828152602001935050505060405180910390a15050565b60006001808054905003905090565b600061109860ff83612c7790919063ffffffff16565b9050600081101580156110ac575060ff8111155b1515611120576040517f08c379a00000000000000000000000000000000000000000000000000000000081526004018080602001828103825260188152602001807f496e76616c6964206e756d6265722067656e657261746564000000000000000081525060200191505060405180910390fd5b816000808581526020019081526020016000206003018190555061114383612cc1565b827f258e8aab35e09293c36892d6c2e2ee63509c0ba72c3437d609e4f30109d3f16c826040518082815260200191505060405180910390a2505050565b600073ffffffffffffffffffffffffffffffffffffffff168273ffffffffffffffffffffffffffffffffffffffff16141515156111bc57600080fd5b6111c63382612f47565b15156111d157600080fd5b6111db8382612bb5565b15156111e657600080fd5b6111f1838383612fb3565b505050565b60008060006007600085815260200190815260200160002090508060000160009054906101000a900473ffffffffffffffffffffffffffffffffffffffff1681600101548191509250925050915091565b60046020528060005260406000206000915054906101000a900473ffffffffffffffffffffffffffffffffffffffff1681565b60106020528060005260406000206000915054906101000a900460ff1681565b600560009054906101000a900473ffffffffffffffffffffffffffffffffffffffff1673ffffffffffffffffffffffffffffffffffffffff163373ffffffffffffffffffffffffffffffffffffffff161415156112f657600080fd5b80600660006101000a81548173ffffffffffffffffffffffffffffffffffffffff021916908373ffffffffffffffffffffffffffffffffffffffff16021790555050565b60006002600083815260200190815260200160002060009054906101000a900473ffffffffffffffffffffffffffffffffffffffff169050600073ffffffffffffffffffffffffffffffffffffffff168173ffffffffffffffffffffffffffffffffffffffff16141515156113ae57600080fd5b919050565b60006010600083815260200190815260200160002060009054906101000a900460ff169050919050565b6000600360008373ffffffffffffffffffffffffffffffffffffffff1673ffffffffffffffffffffffffffffffffffffffff168152602001908152602001600020549050919050565b6114303383612bb5565b15156114a4576040517f08c379a000000000000000000000000000000000000000000000000000000000815260040180806020018281038252601e8152602001807f546865207573657220646f65736e2774206f776e2074686520746f6b656e000081525060200191505060405180910390fd5b6114ae3382612bb5565b1515611522576040517f08c379a000000000000000000000000000000000000000000000000000000000815260040180806020018281038252601e8152602001807f546865207573657220646f65736e2774206f776e2074686520746f6b656e000081525060200191505060405180910390fd5b600c54600860009054906101000a900473ffffffffffffffffffffffffffffffffffffffff1673ffffffffffffffffffffffffffffffffffffffff166370a08231306040518263ffffffff167c0100000000000000000000000000000000000000000000000000000000028152600401808273ffffffffffffffffffffffffffffffffffffffff1673ffffffffffffffffffffffffffffffffffffffff16815260200191505060206040518083038186803b1580156115e057600080fd5b505afa1580156115f4573d6000803e3d6000fd5b505050506040513d602081101561160a57600080fd5b8101908080519060200190929190505050111515611690576040517f08c379a00000000000000000000000000000000000000000000000000000000081526004018080602001828103825260168152602001807f4e6f7420656e6f756768204c494e4b20746f6b656e730000000000000000000081525060200191505060405180910390fd5b600083434060405160200180838152602001828152602001925050506040516020818303038152906040528051906020012060019004905060006116d9600b54600c548461275f565b90503360008083815260200190815260200160002060000160006101000a81548173ffffffffffffffffffffffffffffffffffffffff021916908373ffffffffffffffffffffffffffffffffffffffff16021790555083600080838152602001908152602001600020600101819055508260008083815260200190815260200160002060020181905550807ffcbc2bbea91e7ab227222eccd49e7ddabe282be9501710f827fdb0b4b1f5a1a0600b5484604051808381526020018281526020019250505060405180910390a25050505050565b606060006117b9836113dd565b905060008114156117fd5760006040519080825280602002602001820160405280156117f45781602001602082028038833980820191505090505b509150506118f5565b60608160405190808252806020026020018201604052801561182e5781602001602082028038833980820191505090505b509050600061183b611073565b905060008090506000600190505b82811115156118ec578673ffffffffffffffffffffffffffffffffffffffff166002600083815260200190815260200160002060009054906101000a900473ffffffffffffffffffffffffffffffffffffffff1673ffffffffffffffffffffffffffffffffffffffff1614156118df578084838151811015156118c857fe5b906020019060200201818152505081806001019250505b8080600101915050611849565b83955050505050505b919050565b60006020528060005260406000206000915090508060000160009054906101000a900473ffffffffffffffffffffffffffffffffffffffff16908060010154908060020154908060030154908060040154908060050154905086565b600560009054906101000a900473ffffffffffffffffffffffffffffffffffffffff1681565b600073ffffffffffffffffffffffffffffffffffffffff16600660009054906101000a900473ffffffffffffffffffffffffffffffffffffffff1673ffffffffffffffffffffffffffffffffffffffff1614151515611a43576040517f08c379a000000000000000000000000000000000000000000000000000000000815260040180806020018281038252601e8152602001807f4b6974747920436f72652061646472657373206e6f7420646566696e6564000081525060200191505060405180910390fd5b6000600660009054906101000a900473ffffffffffffffffffffffffffffffffffffffff1673ffffffffffffffffffffffffffffffffffffffff166368609713836040518263ffffffff167c01000000000000000000000000000000000000000000000000000000000281526004018082815260200191505060206040518083038186803b158015611ad457600080fd5b505afa158015611ae8573d6000803e3d6000fd5b505050506040513d6020811015611afe57600080fd5b8101908080519060200190929190505050905060011515811515141515611b2457600080fd5b336007600084815260200190815260200160002060000160006101000a81548173ffffffffffffffffffffffffffffffffffffffff021916908373ffffffffffffffffffffffffffffffffffffffff1602179055508260076000848152602001908152602001600020600101819055507fd99e4fad9ad6313b1feb588fa8e605e3a9873172f2024330c35dd2b4041a4386338360405180806020018473ffffffffffffffffffffffffffffffffffffffff1673ffffffffffffffffffffffffffffffffffffffff1681526020018381526020018281038252600c8152602001807f437265617465206f666665720000000000000000000000000000000000000000815250602001935050505060405180910390a1505050565b600073ffffffffffffffffffffffffffffffffffffffff16600660009054906101000a900473ffffffffffffffffffffffffffffffffffffffff1673ffffffffffffffffffffffffffffffffffffffff1614151515611d04576040517f08c379a000000000000000000000000000000000000000000000000000000000815260040180806020018281038252601e8152602001807f4b6974747920436f72652061646472657373206e6f7420646566696e6564000081525060200191505060405180910390fd5b60011515600660009054906101000a900473ffffffffffffffffffffffffffffffffffffffff1673ffffffffffffffffffffffffffffffffffffffff166368609713836040518263ffffffff167c01000000000000000000000000000000000000000000000000000000000281526004018082815260200191505060206040518083038186803b158015611d9757600080fd5b505afa158015611dab573d6000803e3d6000fd5b505050506040513d6020811015611dc157600080fd5b81019080805190602001909291905050501515141515611de057600080fd5b611de861374c565b600760008381526020019081526020016000206040805190810160405290816000820160009054906101000a900473ffffffffffffffffffffffffffffffffffffffff1673ffffffffffffffffffffffffffffffffffffffff1673ffffffffffffffffffffffffffffffffffffffff16815260200160018201548152505090503373ffffffffffffffffffffffffffffffffffffffff16816000015173ffffffffffffffffffffffffffffffffffffffff16141515611f35576040517f08c379a00000000000000000000000000000000000000000000000000000000081526004018080602001828103825260388152602001807f596f752073686f756c64206f776e20746865206b6974747920746f206265206181526020017f626c6520746f2072656d6f76652074686973206f66666572000000000000000081525060400191505060405180910390fd5b60076000838152602001908152602001600020600080820160006101000a81549073ffffffffffffffffffffffffffffffffffffffff0219169055600182016000905550507fd99e4fad9ad6313b1feb588fa8e605e3a9873172f2024330c35dd2b4041a4386338360405180806020018473ffffffffffffffffffffffffffffffffffffffff1673ffffffffffffffffffffffffffffffffffffffff1681526020018381526020018281038252600c8152602001807f52656d6f7665206f666665720000000000000000000000000000000000000000815250602001935050505060405180910390a15050565b6040805190810160405280600281526020017f434b00000000000000000000000000000000000000000000000000000000000081525081565b600a6020528060005260406000206000915090505481565b60026020528060005260406000206000915054906101000a900473ffffffffffffffffffffffffffffffffffffffff1681565b600073ffffffffffffffffffffffffffffffffffffffff168273ffffffffffffffffffffffffffffffffffffffff16141515156120e257600080fd5b6120ec3382612bb5565b15156120f757600080fd5b612102338383612fb3565b5050565b600073ffffffffffffffffffffffffffffffffffffffff16600660009054906101000a900473ffffffffffffffffffffffffffffffffffffffff1673ffffffffffffffffffffffffffffffffffffffff16141515156121cd576040517f08c379a000000000000000000000000000000000000000000000000000000000815260040180806020018281038252601e8152602001807f4b6974747920436f72652061646472657373206e6f7420646566696e6564000081525060200191505060405180910390fd5b60011515600660009054906101000a900473ffffffffffffffffffffffffffffffffffffffff1673ffffffffffffffffffffffffffffffffffffffff166368609713836040518263ffffffff167c01000000000000000000000000000000000000000000000000000000000281526004018082815260200191505060206040518083038186803b15801561226057600080fd5b505afa158015612274573d6000803e3d6000fd5b505050506040513d602081101561228a57600080fd5b810190808051906020019092919050505015151415156122a957600080fd5b6122b161374c565b600760008381526020019081526020016000206040805190810160405290816000820160009054906101000a900473ffffffffffffffffffffffffffffffffffffffff1673ffffffffffffffffffffffffffffffffffffffff1673ffffffffffffffffffffffffffffffffffffffff16815260200160018201548152505090508060200151341415156123ac576040517f08c379a00000000000000000000000000000000000000000000000000000000081526004018080602001828103825260188152602001807f546865207072696365206973206e6f7420636f7272656374000000000000000081525060200191505060405180910390fd5b60076000838152602001908152602001600020600080820160006101000a81549073ffffffffffffffffffffffffffffffffffffffff0219169055600182016000905550506123fb8233612c21565b61240a81600001513384611180565b806000015173ffffffffffffffffffffffffffffffffffffffff166108fc349081150290604051600060405180830381858888f19350505050158015612454573d6000803e3d6000fd5b507fd99e4fad9ad6313b1feb588fa8e605e3a9873172f2024330c35dd2b4041a4386338360405180806020018473ffffffffffffffffffffffffffffffffffffffff1673ffffffffffffffffffffffffffffffffffffffff168152602001838152602001828103825260038152602001807f4275790000000000000000000000000000000000000000000000000000000000815250602001935050505060405180910390a15050565b600a81565b600560009054906101000a900473ffffffffffffffffffffffffffffffffffffffff1673ffffffffffffffffffffffffffffffffffffffff163373ffffffffffffffffffffffffffffffffffffffff1614151561255e57600080fd5b600a600f541015156125d8576040517f08c379a000000000000000000000000000000000000000000000000000000000815260040180806020018281038252601c8152602001807f47656e2030206372656174696f6e206c696d697420726561636865640000000081525060200191505060405180910390fd5b600f60008154809291906001019190505550600033604051602001808273ffffffffffffffffffffffffffffffffffffffff1673ffffffffffffffffffffffffffffffffffffffff166c0100000000000000000000000002815260140191505060405160208183030381529060405280519060200120905060008060008381526020019081526020016000206002018190555060008060008381526020019081526020016000206001018190555060008060008381526020019081526020016000206004018190555081600080838152602001908152602001600020600501819055503360008083815260200190815260200160002060000160006101000a81548173ffffffffffffffffffffffffffffffffffffffff021916908373ffffffffffffffffffffffffffffffffffffffff160217905550600061271a826131b5565b905060016010600083815260200190815260200160002060006101000a81548160ff02191690831515021790555061275a6702c68af0bb1400008261197c565b505050565b6000600860009054906101000a900473ffffffffffffffffffffffffffffffffffffffff1673ffffffffffffffffffffffffffffffffffffffff16634000aea0600960009054906101000a900473ffffffffffffffffffffffffffffffffffffffff1685878660405160200180838152602001828152602001925050506040516020818303038152906040526040518463ffffffff167c0100000000000000000000000000000000000000000000000000000000028152600401808473ffffffffffffffffffffffffffffffffffffffff1673ffffffffffffffffffffffffffffffffffffffff16815260200183815260200180602001828103825283818151815260200191508051906020019080838360005b8381101561288e578082015181840152602081019050612873565b50505050905090810190601f1680156128bb5780820380516001836020036101000a031916815260200191505b50945050505050602060405180830381600087803b1580156128dc57600080fd5b505af11580156128f0573d6000803e3d6000fd5b505050506040513d602081101561290657600080fd5b8101908080519060200190929190505050506000612939858430600a60008a815260200190815260200160002054613549565b90506129626001600a6000888152602001908152602001600020546135c490919063ffffffff16565b600a600087815260200190815260200160002081905550612983858261364e565b9150509392505050565b6000806000806000806001878154811015156129a557fe5b9060005260206000209060020201905060008160010160009054906101000a900467ffffffffffffffff1667ffffffffffffffff16111515612a4f576040517f08c379a00000000000000000000000000000000000000000000000000000000081526004018080602001828103825260178152602001807f746865206b6974747920646f65736e277420657869737400000000000000000081525060200191505060405180910390fd5b8060010160009054906101000a900467ffffffffffffffff1667ffffffffffffffff1694508060010160089054906101000a900463ffffffff1663ffffffff16935080600101600c9054906101000a900463ffffffff1663ffffffff1692508060010160109054906101000a900461ffff1661ffff169150806000015495505091939590929450565b600f5481565b600560009054906101000a900473ffffffffffffffffffffffffffffffffffffffff1673ffffffffffffffffffffffffffffffffffffffff163373ffffffffffffffffffffffffffffffffffffffff16141515612b3a57600080fd5b600073ffffffffffffffffffffffffffffffffffffffff168173ffffffffffffffffffffffffffffffffffffffff16141515612bb25780600560006101000a81548173ffffffffffffffffffffffffffffffffffffffff021916908373ffffffffffffffffffffffffffffffffffffffff1602179055505b50565b60008273ffffffffffffffffffffffffffffffffffffffff166002600084815260200190815260200160002060009054906101000a900473ffffffffffffffffffffffffffffffffffffffff1673ffffffffffffffffffffffffffffffffffffffff1614905092915050565b806004600084815260200190815260200160002060006101000a81548173ffffffffffffffffffffffffffffffffffffffff021916908373ffffffffffffffffffffffffffffffffffffffff1602179055505050565b6000612cb983836040805190810160405280601881526020017f536166654d6174683a206d6f64756c6f206279207a65726f0000000000000000815250613687565b905092915050565b600080612ce26000808581526020019081526020016000206001015461298d565b94505050509150600080612d0a6000808781526020019081526020016000206002015461298d565b945050505091506000612d1b61377c565b6000600790506000809050600190505b608081111515612dd9576000816000808c81526020019081526020016000206003015416141515612d8257606486811515612d6257fe5b0660ff168383600881101515612d7457fe5b602002018181525050612daa565b606488811515612d8e57fe5b0660ff168383600881101515612da057fe5b6020020181815250505b606486811515612db657fe5b049550606488811515612dc557fe5b049750600182039150600281029050612d2b565b600060076000808c815260200190815260200160002060030154811515612dfc57fe5b06905060636000808c815260200190815260200160002060030154811515612e2057fe5b068482600881101515612e2f57fe5b602002018181525050600091505b6008821015612e7b578382600881101515612e5457fe5b602002015185019450600782141515612e6e576064850294505b8180600101925050612e3d565b600080905086891015612ea257600187019050600281811515612e9a57fe5b049050612ecc565b86891115612ec457600189019050600281811515612ebc57fe5b049050612ecb565b6001870190505b5b856000808d815260200190815260200160002060050181905550806000808d8152602001908152602001600020600401819055506000612f0b8c6131b5565b905060016010600083815260200190815260200160002060006101000a81548160ff021916908315150217905550505050505050505050505050565b60008273ffffffffffffffffffffffffffffffffffffffff166004600084815260200190815260200160002060009054906101000a900473ffffffffffffffffffffffffffffffffffffffff1673ffffffffffffffffffffffffffffffffffffffff1614905092915050565b600360008373ffffffffffffffffffffffffffffffffffffffff1673ffffffffffffffffffffffffffffffffffffffff16815260200190815260200160002060008154809291906001019190505550816002600083815260200190815260200160002060006101000a81548173ffffffffffffffffffffffffffffffffffffffff021916908373ffffffffffffffffffffffffffffffffffffffff160217905550600073ffffffffffffffffffffffffffffffffffffffff168373ffffffffffffffffffffffffffffffffffffffff1614151561311157600360008473ffffffffffffffffffffffffffffffffffffffff1673ffffffffffffffffffffffffffffffffffffffff16815260200190815260200160002060008154809291906001900391905055506004600082815260200190815260200160002060006101000a81549073ffffffffffffffffffffffffffffffffffffffff02191690555b7fddf252ad1be2c89b69c2b068fc378daa952ba7f163c4a11628f55a4df523b3ef838383604051808473ffffffffffffffffffffffffffffffffffffffff1673ffffffffffffffffffffffffffffffffffffffff1681526020018373ffffffffffffffffffffffffffffffffffffffff1673ffffffffffffffffffffffffffffffffffffffff168152602001828152602001935050505060405180910390a1505050565b60006131bf6137a0565b60a0604051908101604052806000808681526020019081526020016000206005015481526020014267ffffffffffffffff1681526020016000808681526020019081526020016000206002015463ffffffff1681526020016000808681526020019081526020016000206001015463ffffffff1681526020016000808681526020019081526020016000206004015461ffff168152509050600060018083908060018154018082558091505090600182039060005260206000209060020201600090919290919091506000820151816000015560208201518160010160006101000a81548167ffffffffffffffff021916908367ffffffffffffffff16021790555060408201518160010160086101000a81548163ffffffff021916908363ffffffff160217905550606082015181600101600c6101000a81548163ffffffff021916908363ffffffff16021790555060808201518160010160106101000a81548161ffff021916908361ffff16021790555050500390508063ffffffff16811415156133b4576040517f08c379a00000000000000000000000000000000000000000000000000000000081526004018080602001828103825260128152602001807f4b6974747920496473206d69736d61746368000000000000000000000000000081525060200191505060405180910390fd5b7f0a5311bd2a6608f08a180df2ee7c5946819a649b204b554bb8e39825b2c50ad560008086815260200190815260200160002060000160009054906101000a900473ffffffffffffffffffffffffffffffffffffffff168260008088815260200190815260200160002060020154600080898152602001908152602001600020600101548660000151604051808673ffffffffffffffffffffffffffffffffffffffff1673ffffffffffffffffffffffffffffffffffffffff1681526020018581526020018481526020018381526020018281526020019550505050505060405180910390a16134db600080600087815260200190815260200160002060000160009054906101000a900473ffffffffffffffffffffffffffffffffffffffff1683612fb3565b600080858152602001908152602001600020600080820160006101000a81549073ffffffffffffffffffffffffffffffffffffffff02191690556001820160009055600282016000905560038201600090556004820160009055600582016000905550508092505050919050565b600084848484604051602001808581526020018481526020018373ffffffffffffffffffffffffffffffffffffffff1673ffffffffffffffffffffffffffffffffffffffff16815260200182815260200194505050505060405160208183030381529060405280519060200120600190049050949350505050565b6000808284019050838110151515613644576040517f08c379a000000000000000000000000000000000000000000000000000000000815260040180806020018281038252601b8152602001807f536166654d6174683a206164646974696f6e206f766572666c6f77000000000081525060200191505060405180910390fd5b8091505092915050565b60008282604051602001808381526020018281526020019250505060405160208183030381529060405280519060200120905092915050565b60008083141582901515613736576040517f08c379a00000000000000000000000000000000000000000000000000000000081526004018080602001828103825283818151815260200191508051906020019080838360005b838110156136fb5780820151818401526020810190506136e0565b50505050905090810190601f1680156137285780820380516001836020036101000a031916815260200191505b509250505060405180910390fd5b50828481151561374257fe5b0690509392505050565b6040805190810160405280600073ffffffffffffffffffffffffffffffffffffffff168152602001600081525090565b61010060405190810160405280600890602082028038833980820191505090505090565b60a06040519081016040528060008152602001600067ffffffffffffffff168152602001600063ffffffff168152602001600063ffffffff168152602001600061ffff168152509056fea165627a7a7230582037fc5a0f8109b17c5a277ba1450f1ad8a43012bfe1d7eb9810bec591ddf29d7b0029",
  "source": "pragma solidity 0.5.0;\n\nimport \"./utils/Ownable.sol\";\nimport \"./KittyMarketPlace.sol\";\nimport \"./KittyFactory.sol\";\nimport \"./utils/link_oracle/VRFConsumerBase.sol\";\nimport \"./utils/link_oracle/VRFRequestIDBase.sol\";\nimport \"./utils/SafeMath.sol\";\n\ncontract KittyCore is Ownable, KittyMarketPlace, VRFConsumerBase{\n\n  using SafeMath for uint;\n\n  bytes32 internal keyHash;\n  uint256 internal fee;\n  address _vrfCoordinator = 0xf720CF1B963e0e7bE9F58fd471EFa67e7bF00cfb;\n  address _link = 0x20fE562d797A42Dcb3399062AE9546cd06f63280;\n\n  uint256 public constant CREATION_LIMIT_GEN0 = 10;\n\n  // Counts the number of cats the contract owner has created.\n  uint256 public gen0Counter;\n\n  // Add a list of newly created kitties\n  mapping (uint256 => bool) public kittyInExistence;\n\n\n  // A new random number request has been made\n  event RequestRandomness(bytes32 indexed requestId,bytes32 keyHash,uint256 seed);\n\n  // A new random number has been returned from oracle\n\n  event RequestRandomnessFulfilled(bytes32 indexed requestId,uint256 randomness);\n\n  constructor()\n  VRFConsumerBase(_vrfCoordinator, _link) public {\n    // We are creating the first kitty at index 0\n    vrfCoordinator = _vrfCoordinator;\n    LINK = LinkTokenInterface(_link);\n    keyHash = 0xced103054e349b8dfb51352f0f8fa9b5d20dde3d06f9f43cb2b85bc64b238205; // hard-coded for Ropsten\n    fee = 10 ** 18; // 1 LINK hard-coded for Ropsten\n\n    bytes32 gen0Creation = keccak256(abi.encodePacked(msg.sender,block.timestamp));\n\n    breedingAssistant[gen0Creation].momId = 0;\n    breedingAssistant[gen0Creation].dadId = 0;\n    breedingAssistant[gen0Creation].kidGen = 0;\n    breedingAssistant[gen0Creation].geneKid = uint256(-1);\n    breedingAssistant[gen0Creation].requestor = address(0);\n\n    uint kittyId = _createKitty(gen0Creation);\n\n    kittyInExistence[kittyId] = true;\n  }\n\n\n  /*\n  *       we get a\n  *\n  *       Basic binary operation\n  *\n  *       >>> '{0:08b}'.format(255 & 1)\n  *       '00000001'\n  *       >>> '{0:08b}'.format(255 & 2)\n  *       '00000010'\n  *       >>> '{0:08b}'.format(255 & 4)\n  *       '00000100'\n  *       >>> '{0:08b}'.format(255 & 8)\n  *       '00001000'\n  *       >>> '{0:08b}'.format(255 & 16)\n  *       '00010000'\n  *       >>> '{0:08b}'.format(255 & 32)\n  *       '00100000'\n  *       >>> '{0:08b}'.format(255 & 64)\n  *       '01000000'\n  *       >>> '{0:08b}'.format(255 & 128)\n  *       '10000000'\n  *\n  *       So we use a mask on our random number to check if we will use the mumID or the dadId\n  *\n  *       For example 205 is 11001101 in binary So\n  *       mum - mum - dad -dad -mum - mum - dad - mum\n  *\n  */\n\n  function breeding(bytes32 _requestId) private {\n\n    ( uint256 Dadgenes,,,,uint256 DadGeneration ) = getKitty(breedingAssistant[_requestId].dadId);\n\n    ( uint256 Mumgenes,,,,uint256 MumGeneration ) = getKitty(breedingAssistant[_requestId].momId);\n\n    uint256 geneKid;\n    uint256 [8] memory geneArray;\n    uint256 index = 7;\n    uint256 i = 0;\n\n    for(i = 1; i <= 128; i=i*2){\n      /* We are */\n      if(breedingAssistant[_requestId].randomNumber & i != 0){\n        geneArray[index] = uint8(Mumgenes % 100);\n      } else {\n        geneArray[index] = uint8(Dadgenes % 100);\n      }\n      Mumgenes /= 100;\n      Dadgenes /= 100;\n      index -= 1;\n    }\n\n    /* Add a random parameter in a random place */\n    uint256 newGeneIndex =  breedingAssistant[_requestId].randomNumber % 7;\n    geneArray[newGeneIndex] = breedingAssistant[_requestId].randomNumber % 99;\n\n    /* We reverse the DNa in the right order */\n    for (i = 0 ; i < 8; i++ ){\n      geneKid += geneArray[i];\n      if(i != 7){\n        geneKid *= 100;\n      }\n    }\n\n    uint256 kidGen = 0;\n    if (DadGeneration < MumGeneration){\n      kidGen = MumGeneration + 1;\n      kidGen /= 2;\n    } else if (DadGeneration > MumGeneration){\n      kidGen = DadGeneration + 1;\n      kidGen /= 2;\n    } else{\n      kidGen = MumGeneration + 1;\n    }\n\n    breedingAssistant[_requestId].geneKid = geneKid;\n    breedingAssistant[_requestId].kidGen = kidGen;\n\n    uint tokenId = _createKitty(_requestId);\n    kittyInExistence[tokenId] = true;\n  }\n\n  function createKittyGen0(uint256 _genes) public onlyOwner {\n    require(gen0Counter < CREATION_LIMIT_GEN0, \"Gen 0 creation limit reached\");\n\n    gen0Counter++;\n\n    bytes32 gen0Creation = keccak256(abi.encodePacked(msg.sender));\n\n    breedingAssistant[gen0Creation].momId = 0;\n    breedingAssistant[gen0Creation].dadId = 0;\n    breedingAssistant[gen0Creation].kidGen = 0;\n    breedingAssistant[gen0Creation].geneKid = _genes;\n    breedingAssistant[gen0Creation].requestor = msg.sender;\n\n    // Gen0 have no owners they are own by the contract\n    uint256 tokenId = _createKitty(gen0Creation);\n    kittyInExistence[tokenId] = true;\n    setOffer(0.2 ether, tokenId);\n  }\n\n  function getKitty(uint256 _id)\n    public\n    view\n    returns (\n    uint256 genes,\n    uint256 birthTime,\n    uint256 momId,\n    uint256 dadId,\n    uint256 generation\n  ) {\n    Kitty storage kitty = kitties[_id];\n\n    require(kitty.birthTime > 0, \"the kitty doesn't exist\");\n\n    birthTime = uint256(kitty.birthTime);\n    momId = uint256(kitty.momId);\n    dadId = uint256(kitty.dadId);\n    generation = uint256(kitty.generation);\n    genes = kitty.genes;\n  }\n\n  function random (uint256 _userProvidedSeed, uint256 _dadId, uint256 _momId) public {\n\n    require(_owns(msg.sender, _dadId), \"The user doesn't own the token\");\n    require(_owns(msg.sender, _momId), \"The user doesn't own the token\");\n\n    require(LINK.balanceOf(address(this)) > fee, \"Not enough LINK tokens\");\n    uint256 seed = uint256(keccak256(abi.encode(_userProvidedSeed, blockhash(block.number)))); // Hash user seed and blockhash\n    bytes32 requestId = requestRandomness(keyHash, fee, seed);\n\n    breedingAssistant[requestId].requestor = msg.sender;\n    breedingAssistant[requestId].dadId = _dadId;\n    breedingAssistant[requestId].momId = _momId;\n\n    emit RequestRandomness(requestId, keyHash, seed);\n  }\n\n  function fulfillRandomness(bytes32 _requestId, uint256 _randomness) external {\n    // Generates a random number between 0 and 255\n\n    uint256 result = _randomness.mod(255);\n\n    require (result >= 0 && result <= 255, \"Invalid number generated\");\n\n    breedingAssistant[_requestId].randomNumber = _randomness;\n\n    breeding (_requestId);\n\n    emit RequestRandomnessFulfilled(_requestId, result);\n  }\n\n  function verifyKittyInExistence (uint256 _tokenId) external view\n  returns (bool) {\n    return kittyInExistence[_tokenId];\n  }\n\n}\n",
  "sourcePath": "/Users/dan/Documents/Coding/Solidity/academy/academy-cryptokitties/contracts/KittyCore.sol",
  "compiler": {
    "name": "solc",
    "version": "0.5.0+commit.1d4f565a.Emscripten.clang"
  },
  "schemaVersion": "3.0.23",
  "updatedAt": "2020-06-27T11:54:39.613Z",
  "networkType": "ethereum",
  "devdoc": {
    "methods": {
      "requestRandomness(bytes32,uint256,uint256)": {
        "details": "The source of the seed data must be something which the oraclecannot anticipate. See \"SECURITY CONSIDERATIONS\" above.The fulfillRandomness method receives the output, once it's providedby the Oracle, and verified by the vrfCoordinator.The _keyHash must already be registered with the VRFCoordinator, andthe _fee must exceed the fee specified during registration of the_keyHash.The returned requestId can be used to distinguish responses to *concurrent requests. It is passed as the first argument tofulfillRandomness.",
        "params": {
          "_fee": "The amount of LINK to send with the request",
          "_keyHash": "ID of public key against which randomness is generated",
          "_seed": "Random seed from which output randomness is determined"
        },
        "return": "requestId which will be returned with the response to this request"
      },
      "transferOwnership(address)": {
        "details": "Allows the current owner to transfer control of the contract to a newOwner.",
        "params": {
          "newOwner": "The address to transfer ownership to."
        }
      }
    }
  },
  "userdoc": {
    "methods": {
      "requestRandomness(bytes32,uint256,uint256)": {
        "notice": "requestRandomness initiates a request for VRF output given _seed"
      }
    }
  }
}